:020000040800F2
:10000000700500209D010008F3180008AB160008D9
:10001000F1180008B10200080125000800000000E6
:10002000000000000000000000000000C91B0008E4
:10003000B30200080000000015190008CB1B0008DF
:10004000B7010008B7010008B7010008B7010008B0
:10005000B7010008B7010008B7010008B7010008A0
:10006000B7010008B7010008B7010008B701000890
:10007000B7010008B7010008B7010008B701000880
:10008000B7010008B7010008B7010008B701000870
:10009000B7010008B7010008B7010008B701000860
:1000A000B7010008B7010008B7010008B701000850
:1000B000B7010008B7010008B7010008B701000840
:1000C000B7010008B7010008B7010008B701000830
:1000D000B7010008B7010008B7010008B701000820
:1000E000B7010008B7010008B7010008B701000810
:1000F000B7010008B7010008B7010008B701000800
:10010000B7010008B7010008B7010008B7010008EF
:10011000B7010008B7010008B7010008B7010008DF
:10012000B7010008B7010008B7010008B7010008CF
:10013000B7010008B7010008B7010008B7010008BF
:10014000B7010008B7010008B7010008B7010008AF
:10015000B7010008B7010008B7010008B70100089F
:10016000B7010008B7010008B7010008B70100088F
:10017000B7010008B7010008B7010008000000003F
:10018000B7010008B7010008DFF80CD000F07EF8D6
:1001900000480047212500087005002006488047D8
:1001A00006480047FEE7FEE7FEE7FEE7FEE7FEE75C
:1001B000FEE7FEE7FEE7FEE73D1C000889010008B8
:1001C0002DE9F05F0546002092469B46884606468C
:1001D000814640241BE0284641464746224600F01F
:1001E00044F853465A46C01A914110D31146184656
:1001F000224600F02BF82D1A67EB01084F462246E5
:100200000120002100F022F817EB00094E41201ECA
:10021000A4F10104DFDC484631462A46434600F09B
:1002200000B830BCBDE8C09FD2B201E000F8012B9D
:10023000491EFBD270470022F6E710B513460A4666
:1002400004461946FFF7F0FF204610BD202A04DBC4
:10025000203A00FA02F1002070479140C2F12003D9
:1002600020FA03F3194390407047202A04DB203A18
:1002700021FA02F00021704721FA02F3D040C2F1C6
:10028000200291400843194670470000064C074D74
:1002900006E0E06840F0010394E807009847103456
:1002A000AC42F6D3FFF774FF2C2A00084C2A000852
:1002B000FEE770472DE9F84FDFF898B100234FF0C3
:1002C000010C4FF0030A4FF00F090BF1040EB9E0D7
:1002D0000CFA03F4224070D04D68022D01D0122D8B
:1002E0000ED1DD0800EB8508D8F820505E07F70E28
:1002F00009FA07F6B5430E69BE402E43C8F82060E0
:1003000007685E0091F804800AFA06F508F0030811
:10031000AF4308FA06F848EA0708C0F800804F68BB
:10032000012F05D0022F03D0112F01D0122F13D18E
:10033000D0F80880CF6828EA0508B74047EA0807E0
:100340008760D0F804800F7928EA0408C7F3001703
:100350009F4047EA08074760D1F804806FEA080722
:10036000BF0706D1C76AA743C8F3C0049C403C43FB
:10037000C462C468AC438D68B5402543C5604C6811
:10038000E4005ED5344C256E45F001052566246EEB
:1003900023F0030504F001040094304C2E19B468D6
:1003A0009D072F0F09FA07F5AC43B0F1904F05D028
:1003B0002B4DA84204D101251CE042E0002519E0A4
:1003C000284DA84201D1022514E0274DA84201D1B1
:1003D00003250FE0254DA84201D104250AE0244D54
:1003E000A84201D1052505E0224DA84201D10625EC
:1003F00000E00725BD402543B560DBF800405D46C1
:100400004E689443F60300D514432C60DEF8004098
:1004100075464E689443B60300D514432C600D4DC9
:1004200008352C684E689443F60200D514432C60BE
:10043000084D0C352C684E689443B60200D5144321
:100440002C605B1C0A6832FA03F57FF441AF00F0C0
:1004500013B80000000401400010024000000140F9
:100460000004004800080048000C00480010004844
:10047000001400480018004818BCBDE8E08F0AB11D
:1004800081617047816270470148006870470000D1
:100490007000002002480168491C0160704700009C
:1004A0007000002010B50024032000F059F800204F
:1004B00000F008F808B1012401E000F01BF8204624
:1004C00010BD000070B5054609484FF47A7100244C
:1004D0000068B0FBF1F000F09DFD08B1012404E0DC
:1004E00000222946501E00F01BF8204670BD000077
:1004F00074000020094808B5016E41F00101016651
:10050000016E01F001010091816D41F08051816522
:10051000806D00F08050009008BD00000010024087
:10052000F0B40E4B1B680C46C3F30223C3F107055E
:10053000042D00D90425191D072901D2002300E04C
:10054000DB1E012606FA05F1491E214099409E4016
:10055000761E16403143F0BC01F0CCB90CED00E042
:10056000064900F0070208684FF6FF03184040EA0A
:100570000220034A10430860704700000CED00E0C1
:100580000000FA051649B0F5007F0868C0F3412065
:1005900009D0022805D0086820F4C06040F48060CB
:1005A0000860002070470128FBD0086820F4C06074
:1005B00040F4007008600B483222006850430A4A39
:1005C000B0FBF2F0401C00E0401E4A69520501D524
:1005D0000028F9D148694005E3D5032070470000A1
:1005E000007000407400002040420F000248006884
:1005F00000F4C06070470000007000402DE9F84F23
:10060000044600270088E54D3E46010504F1200B15
:100610001DD5606E78B1B0F5800F11D0B0F5000F28
:1006200004D0B0F5400F22D001270FE0E86840F475
:100630008030E8601BE00021201D01F06DF903E02F
:100640000021584601F0FEF9070010D03E462088F0
:10065000C00426D5A06EC0B1B0F1807F1AD0B0F131
:10066000007F0DD0B0F1407F19D0012718E0D5F8F8
:100670008800616E20F440000843C5F88800E6E772
:10068000E86840F48030E86009E00021201D01F0B6
:1006900043F903E00021584601F0D4F90746F7B1C9
:1006A0003E46206880033AD5A86D4FF00008C00090
:1006B00009D4A86D40F08050A865A86D4FF00108DE
:1006C00000F080500090DFF8D8A2DAF8001041F472
:1006D0008071CAF80010FFF7D7FE814610E0D5F808
:1006E0008800A16E20F040700843C5F88800D8E764
:1006F000FFF7CAFEA0EB0900022801D9032705E095
:10070000DAF80000C005F3D5002F7CD04FEA0706C9
:10071000B8F1000F03D0A86D20F08050A8652078B4
:10072000C00707D0D5F88800A16B20F0030008436C
:10073000C5F888002078800707D5D5F88800E16BD8
:1007400020F00C000843C5F888002078400707D542
:10075000D5F88800216C20F030000843C5F88800E7
:100760002078000707D5D5F88800616C20F0C0001C
:100770000843C5F888002078C00607D5D5F888005A
:10078000A16C20F440700843C5F8880020788006EA
:1007900007D5D5F88800E16C20F440600843C5F81F
:1007A00088002088800507D5D5F88800E16D20F401
:1007B00040200843C5F888002088400507D5D5F8B3
:1007C0008800216E20F440100843C5F88800207886
:1007D000400607D5D5F88800216D20F44050084325
:1007E000C5F888002078000607D5D5F88800616D27
:1007F00020F440400843C5F888002088C00509D58A
:10080000D5F8880000E01CE0A16D20F440300843DA
:10081000C5F8880020884FF0006780044FF080689A
:100820004FD5D5F88800E16E20F040600843C5F848
:100830008800E06EB8423CD1E86840F48010E8607F
:100840003FE0D5F8900010F4407015D0D4F8841033
:10085000814211D0D5F89000D5F8901020F4407066
:1008600041F48031C5F89010D5F8901021F4803112
:10087000C5F89010C5F89000C00710D0FFF704FE2F
:10088000074641F2883906E0FFF7FEFDC11B4945E6
:1008900001D903263CE7D5F890008007F4D5D5F8B8
:1008A0009000D4F8841020F440700843C5F89000FC
:1008B0002EE7404505D10121201D01F02DF800B1A2
:1008C00006462068000317D5D5F88800216F20F070
:1008D00040600843C5F88800206FB84204D1E8683A
:1008E00040F48010E86007E0404505D10121201D5B
:1008F00001F012F800B106462068400317D5D5F87C
:100900008800616F20F040600843C5F88800606F80
:10091000B84204D1E86840F48010E86007E0404540
:1009200005D10121201D00F0F7FF00B10646208807
:1009300040041AD5D5F88800A16F20F04050084334
:10094000C5F88800A06FB0F1805F03D0B0F1005F00
:1009500005D00AE00221201D00F0DEFF03E00221A5
:10096000584601F06FF800B106462088000407D50C
:10097000D5F88800E16F20F080400843C5F8880072
:100980002068C00307D555F8880FD4F8801020F0F0
:10099000004008432860304600F004B800100240D0
:1009A0000070004018BCBDE8E08F00002DE9F04762
:1009B0000F46050058D03F4E306800F00700B8429F
:1009C00009D2306820F0070038433060306800F00A
:1009D0000700B84248D12878374CC0072CD0686847
:1009E000032811D0022812D0216898B149050029A6
:1009F0003ADAA16821F003010143A160FFF744FD49
:100A0000804641F2883910E021688901EFE72168CA
:100A10008903ECE78907EAE7FFF736FDA0EB080159
:100A2000494502D90320BDE8F087A068696800F055
:100A30000C00B0EB810FEFD12878800705D5A068B6
:100A4000A96820F0F0000843A060306800F00700BB
:100A5000B8420BD9306820F0070038433060306866
:100A600000F00700B84201D00120DCE728784007F9
:100A700005D5A068E96820F4E0600843A060287804
:100A8000000706D5A068296920F4605040EAC1003B
:100A9000A06000F03BF8A168084AC1F30311515C63
:100AA00001F01F01C84006490860BDE8F04700207A
:100AB000FFF708BD0020024000100240E4290008B2
:100AC000740000200548064900688968054AC1F39A
:100AD0000221515C01F01F01C840704774000020E2
:100AE00000100240242A0008054806490068896869
:100AF000054AC1F3C221515C01F01F01C840704793
:100B00007400002000100240242A000870B5254916
:100B1000002318468A68CC6812F00C0204F0030621
:100B2000214C4FEA640509D00C2A05D0042A26D0AE
:100B3000082A00D1284670BD012E10D10B681B0772
:100B400004D4D1F89430C3F3032302E00B68C3F359
:100B50000313164E56F823307AB10C2AEBD1C8682D
:100B600000F00302C868C0F30210401C022A08D03B
:100B7000032A09D0B3FBF0F008E0184670BD204608
:100B800070BDB4FBF0F001E0B5FBF0F0CA68C968D5
:100B9000C2F306225043C1F34161491C4900B0FB36
:100BA000F1F070BD001002400024F400F4290008A8
:100BB0002DE9F84305007CD0FD4CA06800F00C0640
:100BC000E06800F003072878C00661D576B10C2EE6
:100BD00001D1012F0AD0A8690028206878D040F000
:100BE00001002060FFF750FC804659E02068800734
:100BF00002D5A8690028DED0286A2168090703D534
:100C0000216801F0F00104E0D4F89410F02202EA27
:100C10001111884215D900F099FF002849D12068A8
:100C200040F0080020602068296A20F0F0000843A6
:100C300020606068E96920F47F4040EA012060603C
:100C400015E0206840F0080020602068296A20F044
:100C5000F000084320606068E96920F47F4040EAC2
:100C600001206060286A00F071FF0028D6D1FFF7EC
:100C70004DFFA168CF4AC1F30311515C01F01F0180
:100C8000C840CD4908600020FFF71CFC00287DD13A
:100C90002FE000BFFFF7F8FBA0EB0800022876D892
:100CA00020688007F6D5206840F0080020602068A2
:100CB00001E0BBE00CE0296A20F0F000084320606E
:100CC0006068E96920F47F4040EA0120606010E03C
:100CD00020F001002060FFF7D7FB804606E000BF50
:100CE000FFF7D2FBA0EB08000228D8D820688007C5
:100CF000F6D42878C00740D0082E18D00C2E01D189
:100D0000032F14D06868B0F5803F17D0B0F5A02F3E
:100D1000206817D020F480302060206820F48020E4
:100D200020606868E0B1FFF7AFFB804614E0206800
:100D3000800322D56868002878D01EE0206840F43F
:100D40008030EDE740F480202060F7E7FFF79CFB60
:100D5000A0EB08006428A2D820688003F6D50CE038
:100D6000FFF792FB804605E0FFF78EFBA0EB080043
:100D7000642894D820688003F6D4287880073BD56F
:100D8000042E11D00C2E04D1022F01E036E1A1E097
:100D90000AD0E868002820681ED040F480702060E7
:100DA000FFF772FB07460CE0206840050CD5E868A9
:100DB0000028C1D008E000BFFFF766FBC01B022877
:100DC00093D820684005F7D56068297C20F0F8505A
:100DD00040EA016060600FE020F480702060FFF75F
:100DE00053FB074605E000BFFFF74EFBC01B022880
:100DF00070D820684005F7D42878000729D568699D
:100E00000028D4F8940012D040F00100C4F89400F7
:100E1000FFF73AFB074604E0FFF736FBC01B02284A
:100E200058D8D4F894008007F6D512E0EDE020F011
:100E30000100C4F89400FFF727FB074605E000BF58
:100E4000FFF722FBC01B022844D8D4F89400800787
:100E5000F6D42878400768D5A06D0027C00008D4D4
:100E6000A06D40F08050A065A06D012700F080507B
:100E7000009052480168C90512D40168814641F4C6
:100E800080710160FFF700FB804605E0FFF7FCFA88
:100E9000A0EB080002281DD8D9F80000C005F5D540
:100EA000A868012817D00528D4F8900018D020F0A1
:100EB0000100C4F89000D4F8900020F0040000BFB6
:100EC000C4F89000A86841F28839D0B1FFF7DCFA85
:100ED000804611E06BE0D4F8900040F00100EFE7AD
:100EE00040F00400C4F89000F5E700BFFFF7CCFA2B
:100EF000A0EB080149455AD8D4F890008007F5D5F1
:100F00000EE0FFF7C1FA804606E000BFFFF7BCFA2B
:100F1000A0EB0801494570D8D4F890008007F5D4BB
:100F20001FB1A06D20F08050A065A86AF0B30C2E10
:100F30006BD00228206820F08070206004D02068E8
:100F400010F0205F47D04AE0FFF79EFA064604E023
:100F5000FFF79AFA801B02284FD820688001F7D447
:100F6000286BE96A000110380843696BAA6B090213
:100F7000120941EA42410843A98F114A490802EB8C
:100F80004151084395F840104908120102EB4161B4
:100F90000843E060206840F080702060E06840F026
:100FA0008070E060FFF770FA054610E02BE024E067
:100FB00000100240E4290008740000200070004086
:100FC0000000E0FFFFF760FA401B022815D82068F8
:100FD0008001F7D517E0E06820F00300E060E068EA
:100FE0000B490840E060FFF74FFA054608E000BFF4
:100FF000FFF74AFA401B022802D90320BDE8F88314
:1010000020688001F4D40020F8E70120F6E7000012
:10101000FFFFEEFE10B5401EB0F1807F01D301202E
:1010200010BD4FF0E02460610F21601700F062FCFA
:101030000020A06107202061002010BD70B590F84D
:101040003C20012A24D0012480F83C40022280F870
:101050003D200268536895680E4EB24202D00E4E93
:10106000B24203D123F470064B68334323F0700679
:101070000B688968334325F0800529435360026873
:10108000916080F83D40002180F83C10084670BD1A
:10109000022070BD002C01400034014010B5040056
:1010A00003D094F83D0010B107E0012010BD0020EE
:1010B00084F83C00204600F00DF8022084F83D0042
:1010C000211D206800F0DCFD012084F83D00002097
:1010D00010BD000008B501680B48B1F1804F0BD07E
:1010E0000A4A914207D1816D41F008018165806D06
:1010F00000F00800009008BD816D41F0010181659C
:10110000806D00F00100F5E700100240000C004087
:1011100070B5044690F83C00012817D0012584F8EA
:101120003C50022084F83D0020688268324E3240F4
:1011300022F47F4282600868502839D00DDC2028D4
:1011400055D005DC98B3102843D150E0022070BD83
:1011500030284CD040283CD141E0602830D0702865
:101160000CD0B0F5805F03D0B0F5005F31D112E054
:1011700020688168204A7032114016E0CB68D1E9BE
:101180000121206800F0E9FD21688868304040F0C6
:10119000770088601DE0CB68D1E90121206800F06C
:1011A000DCFD2068816841F48041816011E01EE02F
:1011B000CA684968206800F06BFF5021206806E08B
:1011C000CA684968206800F074FF6021206800F058
:1011D000CEFD84F83D50002084F83C0070BDCA6804
:1011E0004968206800F054FF40212068EFE722683A
:1011F00001461046EBE7000088FFFEFF70B586B0A1
:10120000044614216846FFF716F82568002316499E
:10121000022201244FF09040B5F1804F14D0134EBC
:10122000B5420FD1CD6C45F00105CD64C96C009479
:10123000CDE9012301F00101CDE9042103936946C1
:10124000FFF738F806B070BDCD6C45F00105CD64F0
:10125000C96C01F00101059120218DE80E00CDE956
:1012600003346946ECE7000000100240000C004027
:1012700070B5044690F83C000D4601280ED00126BA
:1012800084F83C60022084F83D000C2A45D007DC3D
:101290005AB1042A1BD0082A78D12CE0022070BD54
:1012A000102A4ED0142A71D15DE0206800F068FD4C
:1012B0002068816941F0080181612068816921F01D
:1012C00004018161206881692A69114311E0206865
:1012D00000F0A4FD2068816941F40061816120680B
:1012E000816921F480618161206881692A6941EA0C
:1012F000022181614AE0206800F0D8FD2068C169C0
:1013000041F00801C1612068C16921F00401C16197
:101310002068C1692A69114311E0206800F00EFEBF
:101320002068C16941F40061C1612068C16921F48C
:101330008061C1612068C1692A6941EA0221C161F5
:1013400024E0206800F034FE2068416D41F008017F
:1013500041652068416D21F0040141652068416DBF
:101360002A69114311E0206800F05AFE2068416D9F
:1013700041F4006141652068416D21F4806141655F
:101380002068416D2A6941EA0221416584F83D6087
:10139000002084F83C0070BD10B5040003D094F820
:1013A0003D0010B107E0012010BD002084F83C0092
:1013B000204600F00CF8022084F83D00211D206832
:1013C00000F05EFC012084F83D00002010BD704755
:1013D00010B504460068012200F0B2FC12482168F2
:1013E00081420BD01148814208D01148814205D07A
:1013F0001048814202D01048814203D1486C40F429
:1014000000404864206882680C490A40062A08D0D7
:1014100082680A40B2F5803F03D0016841F00101C3
:101420000160002010BD0000002C0140003401408C
:101430000040014000440140004801400700010015
:1014400010B5040003D094F8710010B107E001203A
:1014500010BD002084F87000204600F027F82420FA
:1014600084F871002068016821F0010101602046C4
:1014700000F0C4FE0128EBD0606A10B1204600F0F5
:101480002AFE2068416821F490414160206881680B
:1014900021F02A0181602068016841F001010160AA
:1014A0002046BDE8104000F07ABE000010B586B0BE
:1014B000044614216846FEF7BEFE124920688842A1
:1014C0001ED11148816D41F400318165816D01F4B7
:1014D00000310591C16C41F00801C164C06C6946DE
:1014E00000F008000590602000900220019000208C
:1014F000029003200390072004900448FEF7DAFED0
:1015000006B010BD0044004000100240000C00482E
:101510002DE9F84F044690F872009A4616460D469B
:10152000202865D1EDB1E6B194F8700001285FD0B4
:10153000012084F8700000276767222084F8720079
:101540005434FEF7A1FFA6808146E68054F84C0C87
:101550004FF48058FF21543C404508D1206918B110
:101560000DE0012000F046B840F2FF100DE07F22B0
:1015700018B1B0F1805F05D009E0206950B9A4F836
:101580005C1004E0206928B13F20A4F85C00B4F8A6
:101590005C601CE0A4F85C20F9E74B4600222021A7
:1015A0002046CDF800A000F079FF08B10320D9E76C
:1015B000A068404501D12069A0B12068808C3040EE
:1015C00005F8010BB4F85A00401EA4F85A00B4F80C
:1015D0005A000028E1D1202084F8720084F870704D
:1015E0000020BFE72068808C304025F8020BE9E737
:1015F0000220B7E718BCBDE8E08F2DE9F8430446A8
:1016000090F871001F4616460D4620284BD1C5B1F3
:10161000BEB194F87000012845D0012084F8700014
:101620004FF00008C4F87480212084F87100FEF7A0
:101630002BFFA4F850608146A4F852604FF4805606
:1016400015E00120BDE8F8838021204600F026FF48
:10165000D8B9A068B04201D12069C0B115F8010B1A
:1016600021680885B4F85200401EA4F85200B4F86E
:1016700052004B464FF0000200970028E4D14FF093
:101680004001204600F00AFF30B10320DAE735F8C8
:10169000020BC0F30800E3E7202084F8710084F80F
:1016A00070800020CEE70220CCE7FEE770B5164838
:1016B000174D4FF480748278C378144852EA0301BE
:1016C00016D0012A16D0012B14D0022A14D0022BD6
:1016D00012D0032A01D0032B14D101220421FEF7DA
:1016E000CEFE012221462846BDE87040FEF7C7BE67
:1016F0000022F3E7002200E001220421FEF7BFFEF2
:101700000022EFE770BD0000000000200004004848
:10171000001000482DE9F04186B014216846FEF71C
:101720008AFD2348C16C41F00101C164C16C01F024
:1017300001010591C16C41F00201C164C16C01F06D
:1017400002010591C16C41F01001C164C16C01F04E
:1017500010010591C16C41F00801C164C06C154FC6
:1017600000F008000590002204213846FEF787FEAD
:10177000DFF844804FF48076002231464046FEF781
:101780007EFE0420009001250024CDE90154694625
:1017900038460394FEF78EFD0096CDE90154694664
:1017A00040460394FEF786FD06B0BDE8F0810000D8
:1017B00000100240000400480010004810B58EB030
:1017C00000240794089409940A940B940C941C2107
:1017D00068460D94FEF72FFD18484FF080410160D8
:1017E0007F21C0E9011443F2D301C0E90314802131
:1017F0008161FFF753FC4FF48050079007A90F4811
:10180000FFF786FC0D48FFF7C7FD30200B900BA9B2
:101810000D940A48FFF712FC6020009040F2E2406D
:10182000CDE901040022694604480494FFF720FD35
:101830000248FFF7E3FC0EB010BD00007800002066
:1018400010B58EB000240794089409940A940B9460
:101850000C941C2168460D94FEF7EDFC18481749BE
:1018600001607F21C0E9011443F2D301C0E90314F0
:101870008461FFF713FC4FF48050079007A91048CC
:10188000FFF746FC0E48FFF787FD30200B900BA9B1
:101890000D940B48FFF7D2FB6020009040F2E2402D
:1018A000CDE901040022694605480494FFF7E0FCF5
:1018B0000348FFF7A3FC0EB010BD0000000C004071
:1018C000B80000200948084901604FF416514160F2
:1018D000002181600C22C160C0E904128161C161F4
:1018E00001624162FFF7ACBD00440040F8000020F7
:1018F000FEE770470907090E002806DA00F00F001E
:1019000000F1E02080F8141D704700F1E02080F81D
:1019100000147047704700002DE9F041444C054623
:101920008846E0680026810728680DD0E16801F04C
:101930000301814216D1A8B1E0686968C0F30210C2
:10194000401C88420ED120E0012804D0022805D096
:10195000032807D108E02168890701E021684905CB
:10196000002907DB01265FE02168890302D4216892
:101970004903F5E7E1686A686FF00F0321F073012E
:1019800003EB021211430143E160206820F0806004
:101990002060FEF779FD074605E000BFFEF774FD05
:1019A000C01B022837D820680001F7D4B8F1000F17
:1019B00018D0B8F1010F1ED0287D4FF07E414008AD
:1019C00001EB4060A96840EA01202169194A1140F1
:1019D00008432061206840F080602060FEF754FDDD
:1019E00007461AE0A868E9680002090940EA414090
:1019F0002169114AEBE7288A1049400801EB405061
:101A0000A96840EA012021690D4AE0E7FEF73CFDA4
:101A1000C01B022801D9032606E020680001F5D585
:101A20002069A969084320613046BDE8F0810000C3
:101A300000100240FF80FFF9FF80FDFF0000E0FF83
:101A4000FF809FFF2DE9F0413D4C06468846E06847
:101A50000025810730680DD0E16801F00301814263
:101A600016D1A8B1E0687168C0F30210401C88422A
:101A70000ED120E0012804D0022805D0032807D188
:101A800008E02168890701E021684905002907DB92
:101A9000012551E02168890302D421684903F5E753
:101AA000E16872686FF00F0321F0730103EB02121B
:101AB00011430143E160206820F080502060FEF770
:101AC000E3FC074605E000BFFEF7DEFCC01B022872
:101AD00029D820688000F7D4B8F1000F15D0307CE9
:101AE0004FF07E41400801EB4060B16840EA0120C0
:101AF0006169144A114008436061206840F08050D9
:101B00002060FEF7C1FC07460FE0B068F1680002F4
:101B1000090940EA414061690B4AEBE7FEF7B4FC72
:101B2000C01B022801D9032506E020688000F5D5F6
:101B300060697169084360612846BDE8F081000072
:101B400000100240FF80FFF9FF80FDFFF8B51C4D3B
:101B500006460024A86DC00002D5FEF747FD0DE043
:101B6000A86D40F08050A865A86D00F080500090EE
:101B7000FEF73CFDA96D21F08051A965B0F5007F0D
:101B800004D0802E07D94FF003040AE0802E08D934
:101B9000A02E01D804E001D1022402E0702E00D171
:101BA00001240848016821F0070121430160006811
:101BB00000F00700A04201D00120F8BD0020F8BDD0
:101BC00000100240002002407047FEF763BC30B5B1
:101BD000B9B0442122A8FEF72EFB142133A8FEF74A
:101BE0002AFB88216846FEF726FB0224E0012590A7
:101BF000102026901420CDE92E4022942C9407200A
:101C0000CDE930042D9422A83294FEF7D1FF0F20A5
:101C1000002533900320CDE934053695042133A8FF
:101C20003795FEF7C3FE0F9568460094FEF7E6FC75
:101C30002002FEF7A7FC39B030BD00000D48016856
:101C400041F4700101600C48016841F0010101603C
:101C5000002181600268094B1A4002608214C26050
:101C6000026822F48022026081610249C003803947
:101C70000860704788ED00E000100240FFFFF6EAC0
:101C80002DE9F0470268264B264D274E274F284C5A
:101C90004FF0804A984209D0504507D0A84205D05D
:101CA000B04203D0B84201D0A04204D122F0700C5F
:101CB0004A6842EA0C02DFF87CC0DFF87C80DFF87B
:101CC0007C9098420FD050450DD0A8420BD0B04226
:101CD00009D0B84207D0A04205D0604503D04045A6
:101CE00001D0484503D122F44075CA682A434D69A2
:101CF00022F080022A4302608A68C2620A68826215
:101D0000984207D0A04205D0604503D0404501D09D
:101D1000484501D10969016301214161BDE8F087AE
:101D2000002C01400004004000080040000C00406E
:101D3000003401400040014000440140004801409F
:101D400010B501F01F030121046A99408C4304621D
:101D5000016A9A401143016210BD10B5846842EADD
:101D6000032224F47F440A432243826010BD826828
:101D700022F070020A4342F00701816070470000C0
:101D80002DE9F043026A22F001020262056A43680B
:101D900082691C4C25F0020522400C6822F00302E7
:101DA00014438A68194E2A43174D194FDFF864C04F
:101DB000DFF86490A84207D0B04205D0B84203D003
:101DC000604501D0484506D122F00808CA6842EAB9
:101DD000080222F00402A84207D0B04205D0B8425F
:101DE00003D0604501D0484505D14D6923F44073C7
:101DF0001D438B692B4343608461496841630262E0
:101E0000BDE8F0838FFFFEFF002C0140003401404D
:101E1000004001400044014000480140F0B5026A22
:101E200022F010020262056A42688369194C1B4E57
:101E300023400C6823F4407343EA042425F0200374
:101E40008D6843EA0513144DA84201D0B04206D173
:101E5000CF6823F0800343EA071323F04003A8422E
:101E60000AD0B04208D00E4DA84205D00D4DA84270
:101E700002D00D4DA84207D14D6922F4406242EADA
:101E800085028D6942EA8502426084614968816306
:101E90000362F0BDFF8FFFFE002C014000340140C3
:101EA000004001400044014000480140F0B5026A92
:101EB00022F480720262056A4368C269194C1B4EA3
:101EC00022400C6822F00302144325F400728D684E
:101ED00042EA0522144DA84201D0B04206D1CF6893
:101EE00022F4006242EA072222F48062A8420AD069
:101EF000B04208D00E4DA84205D00E4DA84202D0E7
:101F00000D4DA84207D14D6923F4405343EA051310
:101F10008D6943EA05134360C4614968C163026285
:101F2000F0BD00008FFFFEFF002C01400034014097
:101F300000400140004401400048014030B5026AC1
:101F400022F480520262046A4268C369124D24F48A
:101F500000542B400D6823F4407343EA05238D6839
:101F600044EA05340D4DA8420BD00D4DA84208D0CF
:101F70000C4DA84205D00C4DA84202D00B4DA842F2
:101F800004D14D6922F4804242EA85124260C36165
:101F900049680164046230BDFF8FFFFE002C0140E0
:101FA000003401400040014000440140004801402D
:101FB00030B5026A22F480320262046A4268436DDC
:101FC000114D2B400D681D4324F400330C8943EA66
:101FD00004430E4CA0420BD00D4CA04208D00D4C37
:101FE000A04205D00C4CA04202D00C4CA04204D11F
:101FF0004C6922F4803242EA042242604565496815
:102000008165036230BD00008FFFFEFF002C0140A0
:1020100000340140004001400044014000480140BC
:1020200030B5026A22F480120262046A4268436D8B
:10203000114D24F400142B400D6843EA05230D894B
:1020400044EA05540D4DA8420BD00D4DA84208D0CE
:102050000C4DA84205D00C4DA84202D00B4DA84211
:1020600004D14D6922F4802242EA85224260436510
:102070004968C165046230BDFF8FFFFE002C01403E
:10208000003401400040014000440140004801404C
:1020900010B5036A046A24F001040462846924F020
:1020A000F00444EA021423F00A020A438461026243
:1020B00010BD10B5036A23F0100303628369046A3C
:1020C00023F4704343EA023224F0A00343EA0111EF
:1020D0008261016210BD90F82410C90706D0016822
:1020E0004A68836A22F400321A434A6090F8241046
:1020F000890706D501684A68C36A22F480321A4308
:102100004A6090F82410490706D501684A68036BB5
:1021100022F480221A434A6090F82410090706D559
:1021200001684A68436B22F400421A434A6090F8FF
:102130002410C90606D501688A68836B22F4805290
:102140001A438A6090F82410890606D501688A68C7
:10215000C36B22F400521A438A6090F82410490697
:1021600011D501684A68036C22F480121A434A6050
:10217000016CB1F5801F06D101684A68436C22F4F6
:10218000C0021A434A6090F82410090606D5016877
:102190004A68806C22F4002202434A607047F8B516
:1021A000002604464667FEF76FF90546206800687A
:1021B0006FF07E47000708D52B4600224FF4001130
:1021C0002046009700F06AF960B92068006840076F
:1021D0000AD52B4600224FF480012046009700F0DC
:1021E0005DF908B10320F8BD202084F8710084F85F
:1021F000720084F870600020F8BD00002DE9F04105
:102200000446016880682369E669184363691025FC
:10221000002733431843954A0B68954E33400343D8
:102220000B6020684168E36821F440511943416024
:102230002168A069914201D0236A18438B6823F476
:10224000306303438B608B4B21688B4899420DD1DF
:10225000D0F8880010F0030006D001285AD00228D8
:1022600056D0032859D157E0012556E0834B9942B7
:102270000BD1D0F8880010F00C0047D0042849D0CA
:10228000082845D00C2848D146E07D4B99420BD117
:10229000D0F8880010F0300038D010283AD020282C
:1022A00036D0302839D137E0764B99420BD1D0F86F
:1022B000880010F0C00029D040282BD0802827D0DB
:1022C000C0282AD128E0704B99420ED1D0F888005E
:1022D00010F440701AD0B0F5807F1BD0B0F5007FAD
:1022E00016D0B0F5407F18D116E0914215D1D0F844
:1022F000880010F4406009D0B0F5806F0AD0B0F5C6
:10230000006F05D0B0F5406F07D105E0002504E06F
:10231000022502E0042500E008255C4B00264FF46E
:10232000004091423DD135B1022D07D0042D07D098
:10233000082D10D107E0FEF7C5FB03E0184602E0C8
:10234000FEF7E4FBA8B3626802EB4201814202D8C7
:10235000B0EB023F01D9012775E0DFF834815DB1B0
:10236000022D0CD0042D13D0082DF4D150082905CE
:10237000401846F1000105E0FEF7A4FB0AE0500812
:102380004449F5E70023FDF71BFFA0F5407156E037
:10239000FEF7BCFB6268010E030250081818714179
:1023A000F0E7E1694FF6EF7881422FD1092DD2D2C3
:1023B00000E048E0DFE805F00609200523050505F3
:1023C0002600C8E7FEF77EFB01E0FEF78DFB41002B
:1023D000D4F8040001EB5001B1FBF0F080B2A0F1A1
:1023E00010014145B7D84FF6F0710140C0F34200EB
:1023F00001432068C16026E027496068EAE7FEF7EC
:1024000085FBE4E74FF480316068E3E7092DA2D251
:10241000DFE805F006091E052205050525009AE7F7
:10242000FEF750FB01E0FEF75FFB0146606801EB41
:10243000500100BFB1FBF0F080B2A0F110014145A6
:1024400089D82168C860266638466666BDE8F0818E
:10245000606803EB5001EDE7FEF758FBE5E76168C4
:1024600000EB5100B0FBF1F0E6E700000080004017
:10247000F369FFEF003801400010024000440040C3
:1024800000480040004C0040005000400024F40090
:10249000FFFC0F00000024F40048E8012DE9F041A2
:1024A000984617460E460446069D1DE0681C1BD044
:1024B0002DB1FDF7E9FFA0EB0800A84214D9206870
:1024C000016821F4D07101602068816821F0010168
:1024D0008160202084F8710084F87200002084F864
:1024E00070000320BDE8F0812068C06936EA000072
:1024F00004D00020B842D9D00020F3E70120F9E74A
:10250000FEE702E008C8121F08C1002AFAD170478E
:102510007047002001E001C1121F002AFBD1704763
:10252000FDF7C0FFFFF753FBFFF7F4F8FFF746F99D
:10253000FFF786F9FFF7C6F900210E48FEF748FFBE
:102540000C4800214030FEF743FF00BF00F08EF83A
:1025500000F0BCF8084800F081F9FFF7A7F8FDF794
:1025600093FF00F1640400BFFDF78EFFA042FBD390
:10257000ECE70000780000206200002010B51B4846
:1025800088B00024C06950B101280BD002280CD0BB
:1025900003280DD004280ED005280FD010E04FF4EA
:1025A000A0740DE04FF4FA740AE04FF42F7407E0C2
:1025B0004FF4617404E040F21A4401E040F2E24456
:1025C0001C216846FDF737FE6020CDE9000400209D
:1025D00002900246049069460548FEF749FE002134
:1025E0000348FEF7F5FE08B010BD00000000002013
:1025F0007800002010B51B4888B00024006A50B154
:1026000001280BD002280CD003280DD004280ED0AE
:1026100005280FD010E04FF4A0740DE04FF4FA74C9
:102620000AE04FF42F7407E04FF4617404E040F2C5
:102630001A4401E040F2E2441C216846FDF7FBFD2C
:102640006020CDE900040020029002460490694613
:102650000548FEF70DFE00210348FEF7B9FE08B05D
:1026600010BD000000000020B800002070B5154C1F
:102670000A20002320700D2060700122A4F138018F
:102680001148FEF745FFA4F138052878B8B10023BA
:10269000012229460C48FEF7B0FF28782E1F0D288E
:1026A00004D0E1787171E070A17008E004231A464B
:1026B00004490548FEF7A1FF052030707070002026
:1026C000287070BD3C000020F80000202DE9F04784
:1026D000614C022620462178002500694FF001094F
:1026E0004FF0030807294CD2DFE801F0047D4B745A
:1026F0004B824D00584F4037395C20290CD1391896
:10270000A7F13A024978E1611170801C2061FFF75E
:1027100035FF84F80080A5702069385C00B9256118
:102720002069395C302906D13918801C4978C4E900
:10273000031084F800902069395C40290AD161694E
:1027400011B184F8028083E03918801C4978C4E90B
:10275000051020610146785C50280AD16069002884
:1027600003DC491CC4E9041503E0401EA169C4E967
:102770000410785C602804D12078032801D006205A
:102780002070BDE8F087A16B19291DDC39B105293E
:1027900005D00B2903D0112901D0172903D1052019
:1027A000E061FFF7EBFEA06B022805D0082803D0FC
:1027B0000E2801D0142803D10420E061FFF7DEFECB
:1027C000A06B401CA06305E0401C206184F80080E1
:1027D000A570A563A0680A2802DA401CA060D0E7B3
:1027E0002570A560CDE7D4E902018842F8DCF4E762
:1027F00019483C30C078702819D0502817D0632869
:1028000019D0432817D014497228C96916D0522804
:1028100014D06C2816D04C2814D06E28B1D04E2875
:10282000AFD0622816D0422814D0A67010E02670CF
:1028300084F80290A5E72570A570A2E70029A0D032
:10284000491E02E005299CD0491CE161FFF796FE74
:10285000267096E72561EEE7000000202DE9F0479D
:102860005F4C07462046617802260025C06A4FF07B
:1028700001094FF00308072947D2DFE801F0047887
:10288000466F467D4800395C202909D13918801CE3
:1028900049782162E062FFF7ADFE84F80180E570BF
:1028A000E06A385C00B9E562E06A395C302906D13B
:1028B0003918801C4978C4E90A1084F80190E06A4C
:1028C000395C40290AD1216B11B184F8038083E07F
:1028D0003918801C4978C4E90C10E0620146785C24
:1028E00050280AD1206B002803DC491CC4E90B15D1
:1028F00003E0401E616BC4E90B10785C602804D1D2
:102900006078032801D006206070BDE8F087A16BD5
:1029100019291DDC39B1052905D00B2903D011294E
:1029200001D0172903D105202062FFF763FEA06BB9
:10293000022805D0082803D00E2801D0142803D17E
:1029400004202062FFF756FEA06B401CA06305E048
:10295000401CE06284F80180E570A563606A0A2883
:1029600002DA401C6062D0E765706562CDE7D4E9A9
:1029700009018842F8DCF4E719483C308078702877
:1029800019D0502817D0632819D0432817D01449DC
:102990007228096A16D0522814D06C2816D04C28F8
:1029A00014D06E28B1D04E28AFD0622816D042285D
:1029B00014D0E67010E0667084F80390A5E76570A7
:1029C000E570A2E70029A0D0491E02E005299CD0AD
:1029D000491C2162FFF70EFE667096E7E562EEE79E
:1029E00000000020000000000000000001020304BD
:1029F00006070809A0860100400D0300801A0600A2
:102A000000350C0040420F0080841E0000093D008C
:102A100000127A000024F40000366E010048E8013C
:102A2000006CDC0200000000010203044C2A0008D4
:102A3000000000207800000002250008C42A0008D9
:102A400078000020F80400001225000801010101AF
:102A50000000000000000000000000000000000076
:102A60000000000000000000000000000000000066
:102A70000000000000000000000000000000000056
:102A80000000000000000000000000002000200501
:102A900020002003400020012004502000200230AC
:102AA0000020022003301F301F301F20040040018F
:102AB00020004003200520045050000000000000CA
:042AC00000093D00CC
:040000050800018965
:00000001FF
