:020000040800F2
:10000000502F00207D020008B3260008B32200080C
:10001000B1260008450800082D3400080000000043
:100020000000000000000000000000009D0100082A
:100030004708000800000000F90100085D2A0008D8
:10004000970200089702000897020008970200082C
:10005000970200089702000897020008970200081C
:10006000970200089702000897020008970200080C
:1000700097020008970200089702000897020008FC
:1000800097020008970200089702000897020008EC
:1000900097020008970200089702000897020008DC
:1000A00097020008970200089702000897020008CC
:1000B000612B0008970200089702000897020008C9
:1000C00097020008970200089702000897020008AC
:1000D00097020008970200082134000897020008E0
:1000E000970200089702000897020008970200088C
:1000F000970200089702000897020008970200087C
:10010000970200089702000897020008970200086B
:10011000970200089702000897020008970200085B
:10012000970200089702000897020008970200084B
:10013000970200089702000897020008970200083B
:10014000970200089702000897020008970200082B
:10015000970200089702000897020008970200081B
:10016000970200089702000897020008970200080B
:10017000970200089702000897020008000000009C
:100180009702000897020008DFF80CD000F01CFB73
:10019000004800473D3A0008502F00202C4B1968BA
:1001A000086800F05AB880F30988BFF36F8F4FF0EA
:1001B000000080F3118870470000000008480068C4
:1001C000006880F308884FF0000080F3148862B65E
:1001D00061B6BFF34F8FBFF36F8F00DF00BF00BF6B
:1001E00008ED00E0DFF80C00016841F470010160E7
:1001F000704700BF88ED00E0EFF30980BFF36F8F19
:10020000134B1A681EF0100F08BF20ED108A20E96A
:10021000F04F106009B44FF0500080F31188BFF325
:100220004F8FBFF36F8F04F03FF94FF0000080F362
:10023000118809BC1968086800F014B81EF0100F86
:1002400008BF00F014B880F30988BFF36F8F7047C0
:1002500060000020EFF30580704730C8B0E8C04F61
:10026000FFF7A1BF30C8B0E8C04FFFF7E7BFB0EC61
:10027000088AB0EC08CAFFF7E6BF000006488047CE
:1002800006480047FEE7FEE7FEE7FEE7FEE7FEE77B
:10029000FEE7FEE7FEE7FEE71D2B000889010008E8
:1002A0002DE9F05F0546002092469B4688460646AB
:1002B000814640241BE0284641464746224600F03E
:1002C00004FA53465A46C01A914110D311461846B3
:1002D000224600F0EBF92D1A67EB01084F46224643
:1002E0000120002100F0E2F917EB00094E41201E29
:1002F000A4F10104DFDC484631462A46434600F0BB
:1003000000B830BCBDE8C09F40EA01039B0703D0A2
:1003100009E008C9121F08C0042AFAD203E011F844
:10032000013B00F8013B521EF9D27047D2B201E006
:1003300000F8012B491EFBD270470022F6E710B5EA
:1003400013460A4604461946FFF7F0FF204610BD43
:10035000421C10F8011B0029FBD1801A70472DE9BF
:10036000FE4F804681EA0300C00F0C46009021F04A
:10037000004123F00045B8EB0200A94105D24046F8
:10038000214690461C460B46024623F0004010438F
:1003900047D0270DC7F30A00C3F30A510290401A51
:1003A000019040286BDAC3F3130040F4801B0098DF
:1003B000924620B10023D2EB030A63EB0B0B0198AA
:1003C0005946C0F14002504600F070F906460D460D
:1003D00050465946019A00F088F910EB0800614137
:1003E000002487EA115284EAE7731A4340D0009A46
:1003F00062B3019A012A4FEA075215DC001B61EB38
:1004000002014FF0004202EA0752CDE90042001C0F
:1004100041F5801132462B4600F088F903B000F018
:1004200045B840462146F9E7001B61EB0201001C7C
:1004300041F5801300185B412018A2F5001747EB27
:10044000030140EAD570B6196D4111E06D084FEA1D
:10045000360645EAC0754FEA0752001B61EB020100
:10046000001C41F5801149084FEA30000019514144
:1004700032462B4603B000F01CB800F048B9009893
:10048000012240000023D0EB020263EBE0730098EE
:1004900021464FEAE074B8EB000061EB0401E9E7A4
:1004A00083F000435BE781F0004158E730BCBDE8D2
:1004B000C08F30BCBDE8C04FFFF7DFBF2DE9FE4F56
:1004C00081EA030404F0004421F0004100944FF05D
:1004D000000B23F0004350EA01045ED052EA03040B
:1004E0005BD0C3F30A54C1F30A552C44A4F2F3348D
:1004F0000194A0FB0254C1F3130141F48011C3F332
:10050000130343F4801301FB024400FB034E840AEF
:10051000970A44EA815447EA8357A4FB0768029587
:100520008D0A05FB07854FEA932C04FB0C54270525
:10053000029D4FEA065847EA1637B5EB08056EEB01
:10054000070C870E920E47EA811742EA8312A7FB37
:100550000201B6EB0B0164EB00042B0D43EA0C33F4
:100560005E1844EB1C50DA465146E7FB0201C5F326
:1005700013044FEA0B3343EA14534FEA0432019C4D
:1005800043EA0603A4F10C040294009CCDE900B4F4
:1005900000F0CCF803B000F003B800200146F9E702
:1005A00030BCBDE8C08F0EB5C10F80EAE0700844D2
:1005B000CA07002140F233438DE80E000A460B467D
:1005C00000F0B4F803B000BD0EB540F23341029123
:1005D0000021CDE900110A460B4600F0A7F803B050
:1005E00000BD70B5C1F30A5201F000450024C1F30B
:1005F000130140F2FF3341F480119A4201DA0020E6
:1006000070BD40F233439A42A2F2334203DC5242BD
:1006100000F05BF800E090402C43F1D0404270BD08
:1006200030B5041E71F1000404DB4FF00044404279
:1006300064EB0101141E73F1000405DB1C464FF04E
:100640000043524263EB04038B4208BF824230BD39
:1006500030B5041E71F1000404DB4FF00044404249
:1006600064EB0101141E73F1000405DB1C464FF01E
:100670000043524263EB0403994208BF904230BDED
:1006800030B50B46014600202022012409E021FA62
:1006900002F59D4205D303FA02F5491B04FA02F55F
:1006A0002844151EA2F10102F1DC30BD202A04DB32
:1006B000203A00FA02F1002070479140C2F1200375
:1006C00020FA03F3194390407047202A04DB203AB4
:1006D00021FA02F00021704721FA02F3D040C2F162
:1006E00020029140084319467047202A06DBCB17A9
:1006F000203A41FA02F043EAE07306E041FA02F3DD
:10070000D040C2F12002914008431946704710B50D
:10071000141E73F1000408DA401C41F10001921824
:100720005B411A4301D120F0010010BD2DE9F04DCD
:1007300092469B4611B1B1FA81F202E0B0FA80F222
:1007400020329046FFF7B2FF04460F4640EA0A0007
:1007500041EA0B0153465A46084313D0114653EA67
:10076000010019D0C8F140025046FFF7AEFF054620
:100770000E46504659464246FFF798FF084305D0BB
:10078000012004E020463946BDE8F08D00200543F5
:1007900046EAE0762C4337430A986305E40AA0EB67
:1007A00008000022FD0A44EA47540A3002D500201E
:1007B0000146E9E7010510196941DDE9084500191D
:1007C0006941BDE8F04DA2E7064C074D06E0E06840
:1007D00040F0010394E8070098471034AC42F6D388
:1007E000FFF7D6FC904E0008B04E00080349096898
:1007F000096B002900D0084770470000280000203E
:1008000070B50E4C01250026A0688047D42803D07F
:10081000A0688047D5280ED1094D41F23F002C60D9
:10082000216888472868816A304688472868C16AF5
:10083000102088470025284670BD00002C000020AD
:1008400028000020FEE77047704700002DE9F041C6
:10085000354C86B0E06C40F01000E064E06C01259F
:1008600000F010000095059001AA00260327DFF88C
:10087000BC8082E8E0006946404600F0E3F80122CF
:100880001146404600F0C3F9E06C40F00400E0641B
:10089000E06C009500F00400059001AADFF890805C
:1008A00082E8E0006946404600F0CCF8012211469B
:1008B000404600F0ACF9E06C40F00800E064E06C09
:1008C000694600F00800059080208DE8E100194D90
:1008D000284600F0B7F801228021284600F097F959
:1008E000E06C40F00800E064E06C694600F008004D
:1008F00005900420CDE900062846CDE9026700F006
:10090000A1F8E06C40F00200E064E06C694600F0A1
:1009100002000590A0150090074800F093F802F03F
:1009200031F806B0BDE8F081001002400010004828
:1009300000080048000C0048000400482DE9F04180
:1009400014460546012A02D941F0C00601E041F0F3
:100950008006104F00228021384600F058F90E48DA
:100960000068016821F444410160304602F054F807
:1009700006E0002002F050F8641E05F8010BA4B256
:10098000002CF6D13846BDE8F0410122802100F06C
:100990003EB90000000C0048EC0200202DE9F041B7
:1009A000144605460E46012A01D941F040060F4F74
:1009B00000228021384600F02AF90D4800680168BD
:1009C00021F444410160304602F026F805E0287821
:1009D00002F022F8641EA4B26D1C002CF7D1384638
:1009E000BDE8F0410122802100F011B9000C00485F
:1009F000EC02002010B590F825100024022903D045
:100A00000421C16301241AE001680A6822F00E0281
:100A10000A6001680A6822F001020A6090F8441036
:100A2000036C01F01C02012101FA02F25A6080F805
:100A30002510002180F82410816B01B188472046E1
:100A400010BD00002DE9F84FDFF898B100234FF0FA
:100A5000010C4FF0030A4FF00F090BF1040EB9E03F
:100A60000CFA03F4224070D04D68022D01D0122DF3
:100A70000ED1DD0800EB8508D8F820505E07F70E90
:100A800009FA07F6B5430E69BE402E43C8F8206048
:100A900007685E0091F804800AFA06F508F003087A
:100AA000AF4308FA06F848EA0708C0F800804F6824
:100AB000012F05D0022F03D0112F01D0122F13D1F7
:100AC000D0F80880CF6828EA0508B74047EA080749
:100AD0008760D0F804800F7928EA0408C7F300176C
:100AE0009F4047EA08074760D1F804806FEA08078B
:100AF000BF0706D1C76AA743C8F3C0049C403C4364
:100B0000C462C468AC438D68B5402543C5604C6879
:100B1000E4005ED5344C256E45F001052566246E53
:100B200023F0030504F001040094304C2E19B4683E
:100B30009D072F0F09FA07F5AC43B0F1904F05D090
:100B40002B4DA84204D101251CE042E0002519E00C
:100B5000284DA84201D1022514E0274DA84201D119
:100B600003250FE0254DA84201D104250AE0244DBC
:100B7000A84201D1052505E0224DA84201D1062554
:100B800000E00725BD402543B560DBF800405D4629
:100B90004E689443F60300D514432C60DEF8004001
:100BA00075464E689443B60300D514432C600D4D32
:100BB00008352C684E689443F60200D514432C6027
:100BC000084D0C352C684E689443B60200D514438A
:100BD0002C605B1C0A6832FA03F57FF441AF00F029
:100BE00013B8000000040140001002400000014062
:100BF0000004004800080048000C004800100048AD
:100C0000001400480018004818BCBDE8E08F0AB185
:100C10008161704781627047014800687047000039
:100C20002000002002480168491C01607047000054
:100C30002000002010B50024032000F089F80020D7
:100C400000F008F808B1012401E000F03BF820466C
:100C500010BD000000B5014687B000221C2000F046
:100C600057F81C2000F048F81348816D41F001014D
:100C70008165806D05A900F001000690684600F0CE
:100C800019FB00F037FB0D494FF08042B0FBF1F14A
:100C90000B48491E0260416040F2E7320021C0E982
:100CA0000321816000F0FCFE10B1012007B000BDFF
:100CB000034800F025FFF9E70010024040420F0012
:100CC000140200200B4882B0016E41F00101016660
:100CD000016E01F001010091816D41F0805181654B
:100CE000806D002200F0805000900F21901E02B015
:100CF00000F00EB80010024000F01F0201219140E8
:100D00004009800000F1E020C0F8001170470000A9
:100D1000F0B40E4B1B680C46C3F30223C3F1070566
:100D2000042D00D90425191D072901D2002300E054
:100D3000DB1E012606FA05F1491E214099409E401E
:100D4000761E16403143F0BC01F0B4BC0CED00E05F
:100D5000064900F0070208684FF6FF03184040EA12
:100D60000220034A10430860704700000CED00E0C9
:100D70000000FA051649B0F5007F0868C0F341206D
:100D800009D0022805D0086820F4C06040F48060D3
:100D90000860002070470128FBD0086820F4C0607C
:100DA00040F4007008600B483222006850430A4A41
:100DB000B0FBF2F0401C00E0401E4A69520501D52C
:100DC0000028F9D148694005E3D5032070470000A9
:100DD000007000402400002040420F0002480068DC
:100DE00000F4C06070470000007000402DE9F84F2B
:100DF000044600270088E54D3E46010504F1200B1E
:100E00001DD5606E78B1B0F5800F11D0B0F5000F30
:100E100004D0B0F5400F22D001270FE0E86840F47D
:100E20008030E8601BE00021201D01F053FC03E04E
:100E30000021584601F0E4FC070010D03E4620880F
:100E4000C00426D5A06EC0B1B0F1807F1AD0B0F139
:100E5000007F0DD0B0F1407F19D0012718E0D5F800
:100E60008800616E20F440000843C5F88800E6E77A
:100E7000E86840F48030E86009E00021201D01F0BE
:100E800029FC03E00021584601F0BAFC0746F7B1FF
:100E90003E46206880033AD5A86D4FF00008C00098
:100EA00009D4A86D40F08050A865A86D4FF00108E6
:100EB00000F080500090DFF8D8A2DAF8001041F47A
:100EC0008071CAF80010FFF7A7FE814610E0D5F840
:100ED0008800A16E20F040700843C5F88800D8E76C
:100EE000FFF79AFEA0EB0900022801D9032705E0CD
:100EF000DAF80000C005F3D5002F7CD04FEA0706D2
:100F0000B8F1000F03D0A86D20F08050A8652078BC
:100F1000C00707D0D5F88800A16B20F00300084374
:100F2000C5F888002078800707D5D5F88800E16BE0
:100F300020F00C000843C5F888002078400707D54A
:100F4000D5F88800216C20F030000843C5F88800EF
:100F50002078000707D5D5F88800616C20F0C00024
:100F60000843C5F888002078C00607D5D5F8880062
:100F7000A16C20F440700843C5F8880020788006F2
:100F800007D5D5F88800E16C20F440600843C5F827
:100F900088002088800507D5D5F88800E16D20F409
:100FA00040200843C5F888002088400507D5D5F8BB
:100FB0008800216E20F440100843C5F8880020788E
:100FC000400607D5D5F88800216D20F4405008432D
:100FD000C5F888002078000607D5D5F88800616D2F
:100FE00020F440400843C5F888002088C00509D592
:100FF000D5F8880000E01CE0A16D20F440300843E3
:10100000C5F8880020884FF0006780044FF08068A2
:101010004FD5D5F88800E16E20F040600843C5F850
:101020008800E06EB8423CD1E86840F48010E86087
:101030003FE0D5F8900010F4407015D0D4F884103B
:10104000814211D0D5F89000D5F8901020F440706E
:1010500041F48031C5F89010D5F8901021F480311A
:10106000C5F89010C5F89000C00710D0FFF7D4FD68
:10107000074641F2883906E0FFF7CEFDC11B49451E
:1010800001D903263CE7D5F890008007F4D5D5F8C0
:101090009000D4F8841020F440700843C5F8900004
:1010A0002EE7404505D10121201D01F013FB00B1C1
:1010B00006462068000317D5D5F88800216F20F078
:1010C00040600843C5F88800206FB84204D1E86842
:1010D00040F48010E86007E0404505D10121201D63
:1010E00001F0F8FA00B106462068400317D5D5F89C
:1010F0008800616F20F040600843C5F88800606F89
:10110000B84204D1E86840F48010E86007E0404548
:1011100005D10121201D01F0DDFA00B1064620882D
:1011200040041AD5D5F88800A16F20F0405008433C
:10113000C5F88800A06FB0F1805F03D0B0F1005F08
:1011400005D00AE00221201D01F0C4FA03E00221CB
:10115000584601F055FB00B106462088000407D52B
:10116000D5F88800E16F20F080400843C5F888007A
:101170002068C00307D555F8880FD4F8801020F0F8
:10118000004008432860304600F004B800100240D8
:101190000070004018BCBDE8E08F00002DE9F0476A
:1011A0000F46050058D03F4E306800F00700B842A7
:1011B00009D2306820F0070038433060306800F012
:1011C0000700B84248D12878374CC0072CD068684F
:1011D000032811D0022812D0216898B149050029AE
:1011E0003ADAA16821F003010143A160FFF714FD81
:1011F000804641F2883910E021688901EFE72168D3
:101200008903ECE78907EAE7FFF706FDA0EB080191
:10121000494502D90320BDE8F087A068696800F05D
:101220000C00B0EB810FEFD12878800705D5A068BE
:10123000A96820F0F0000843A060306800F00700C3
:10124000B8420BD9306820F007003843306030686E
:1012500000F00700B84201D00120DCE72878400701
:1012600005D5A068E96820F4E0600843A06028780C
:10127000000706D5A068296920F4605040EAC10043
:10128000A06000F05BF8A168084AC1F30311515C4B
:1012900001F01F01C84006490860BDE8F047002082
:1012A000FFF7D8BC0020024000100240F04D0008BB
:1012B000240000200F2202600C4A936803F003030D
:1012C0004360936803F0F0038360936803F4E06382
:1012D000C36092684FF4E06303EAD20202610448FB
:1012E000006800F00700086070470000001002402E
:1012F000002002400548064900688968054AC1F394
:101300000221515C01F01F01C840704724000020F9
:1013100000100240304E0008054806490068896800
:10132000054AC1F3C221515C01F01F01C84070475A
:101330002400002000100240304E000870B52549FE
:10134000002318468A68CC6812F00C0204F00306E9
:10135000214C4FEA640509D00C2A05D0042A26D076
:10136000082A00D1284670BD012E10D10B681B073A
:1013700004D4D1F89430C3F3032302E00B68C3F321
:101380000313164E56F823307AB10C2AEBD1C868F5
:1013900000F00302C868C0F30210401C022A08D003
:1013A000032A09D0B3FBF0F008E0184670BD2046D0
:1013B00070BDB4FBF0F001E0B5FBF0F0CA68C9689D
:1013C000C2F306225043C1F34161491C4900B0FBFE
:1013D000F1F070BD001002400024F400004E00083F
:1013E0002DE9F84305007CD0FD4CA06800F00C0608
:1013F000E06800F003072878C00661D576B10C2EAE
:1014000001D1012F0AD0A8690028206878D040F0C7
:1014100001002060FFF700FC804659E0206880074B
:1014200002D5A8690028DED0286A2168090703D5FB
:10143000216801F0F00104E0D4F89410F02202EAEF
:101440001111884215D901F05FFA002849D12068AE
:1014500040F0080020602068296A20F0F00008436E
:1014600020606068E96920F47F4040EA0120606004
:1014700015E0206840F0080020602068296A20F00C
:10148000F000084320606068E96920F47F4040EA8A
:1014900001206060286A01F037FA0028D6D1FFF7F2
:1014A0004DFFA168CF4AC1F30311515C01F01F0148
:1014B000C840CD4908600020FFF7CCFB00287DD153
:1014C0002FE000BFFFF7A8FBA0EB0800022876D8AA
:1014D00020688007F6D5206840F00800206020686A
:1014E00001E0BBE00CE0296A20F0F0000843206036
:1014F0006068E96920F47F4040EA0120606010E004
:1015000020F001002060FFF787FB804606E000BF67
:10151000FFF782FBA0EB08000228D8D820688007DC
:10152000F6D42878C00740D0082E18D00C2E01D150
:10153000032F14D06868B0F5803F17D0B0F5A02F06
:10154000206817D020F480302060206820F48020AC
:1015500020606868E0B1FFF75FFB804614E0206818
:10156000800322D56868002878D01EE0206840F407
:101570008030EDE740F480202060F7E7FFF74CFB78
:10158000A0EB08006428A2D820688003F6D50CE000
:10159000FFF742FB804605E0FFF73EFBA0EB0800AB
:1015A000642894D820688003F6D4287880073BD537
:1015B000042E11D00C2E04D1022F01E036E1A1E05F
:1015C0000AD0E868002820681ED040F480702060AF
:1015D000FFF722FB07460CE0206840050CD5E868C1
:1015E0000028C1D008E000BFFFF716FBC01B02288F
:1015F00093D820684005F7D56068297C20F0F85022
:1016000040EA016060600FE020F480702060FFF726
:1016100003FB074605E000BFFFF7FEFAC01B0228E8
:1016200070D820684005F7D42878000729D5686964
:101630000028D4F8940012D040F00100C4F89400BF
:10164000FFF7EAFA074604E0FFF7E6FAC01B0228B4
:1016500058D8D4F894008007F6D512E0EDE020F0D9
:101660000100C4F89400FFF7D7FA074605E000BF71
:10167000FFF7D2FAC01B022844D8D4F894008007A0
:10168000F6D42878400768D5A06D0027C00008D49C
:10169000A06D40F08050A065A06D012700F0805043
:1016A000009052480168C90512D40168814641F48E
:1016B00080710160FFF7B0FA804605E0FFF7ACFAF1
:1016C000A0EB080002281DD8D9F80000C005F5D508
:1016D000A868012817D00528D4F8900018D020F069
:1016E0000100C4F89000D4F8900020F0040000BF7E
:1016F000C4F89000A86841F28839D0B1FFF78CFA9D
:10170000804611E06BE0D4F8900040F00100EFE774
:1017100040F00400C4F89000F5E700BFFFF77CFA42
:10172000A0EB080149455AD8D4F890008007F5D5B8
:101730000EE0FFF771FA804606E000BFFFF76CFA93
:10174000A0EB0801494570D8D4F890008007F5D483
:101750001FB1A06D20F08050A065A86AF0B30C2ED8
:101760006BD00228206820F08070206004D02068B0
:1017700010F0205F47D04AE0FFF74EFA064604E03B
:10178000FFF74AFA801B02284FD820688001F7D45F
:10179000286BE96A000110380843696BAA6B0902DB
:1017A000120941EA42410843A98F114A490802EB54
:1017B0004151084395F840104908120102EB41617C
:1017C0000843E060206840F080702060E06840F0EE
:1017D0008070E060FFF720FA054610E02BE024E07F
:1017E00000100240F04D000824000020007000406E
:1017F0000000E0FFFFF710FA401B022815D8206810
:101800008001F7D517E0E06820F00300E060E068B1
:101810000B490840E060FFF7FFF9054608E000BF0C
:10182000FFF7FAF9401B022802D90320BDE8F8832C
:1018300020688001F4D40020F8E70120F6E70000DA
:10184000FFFFEEFE2DE9F0470446007900268946A9
:1018500001280CD0012727716079B046012808D0F3
:101860005FF0010684F804803046BDE8F08702206E
:10187000FBE702206071FFF7CFF905460BE000BFE0
:10188000FFF7CAF9401B022805D90420607184F8CB
:1018900004800320E9E720684068C043C007EFD117
:1018A00020688068E060C9F800006771DAE710B569
:1018B000044600F10C01FFF7C5FF08B1002010BD80
:1018C000E06810BD70B5040003D06079002510B148
:1018D00005E0012070BD2571204600F00DF80220C2
:1018E00060712068016841F00401016001206071AD
:1018F000A560002070BD000008B500680649884258
:1019000008D10648C16C41F48021C164C06C00F468
:101910008020009008BD0000000806500010024022
:1019200090F85D0070472DE9F041040005D00025D6
:10193000A56294F85D0018B107E00120BDE8F081D0
:1019400084F85C50204600F045F8022384F85D30AE
:101950002068016821F040010160E0684FF4E06612
:10196000B04201D9002101E04FF48051B0F5706F11
:1019700002D0B04200D0A562276B012227B9B04245
:1019800001D9236300E02263D4E901031843D4E9B9
:10199000043633431843238B03F400731843E3697D
:1019A0001843236A1843A36A184323681860636BBB
:1019B000606AA66918430427E36807EA16463343BA
:1019C0001843084321684860256684F85D2000209C
:1019D000B4E7000010B586B0044614216846FEF74F
:1019E000ACFC1249206888421ED11148816D41F437
:1019F00080418165816D01F480410591C16C41F0A8
:101A00000801C164C06C694600F0080005901A2006
:101A100000900220019000200290032003900520F6
:101A200004900448FFF70EF806B010BD00380040DF
:101A300000100240000C00487047704770470000DB
:101A400070B590F83C20012A24D0012480F83C4055
:101A5000022280F83D200268536895680E4EB2421B
:101A600002D00E4EB24203D123F470064B683343CA
:101A700023F070060B688968334325F080052943FD
:101A800053600268916080F83D40002180F83C106E
:101A9000084670BD022070BD002C0140003401409A
:101AA00010B5040003D094F83D0010B107E0012008
:101AB00010BD002084F83C00204600F00DF8022004
:101AC00084F83D00211D206801F050F8012084F8C1
:101AD0003D00002010BD000008B50068064988429E
:101AE00008D10648816D41F008018165806D00F0E4
:101AF0000800009008BD0000000C004000100240EB
:101B00000168CA6842F00102CA6000688268074939
:101B10000A40062A08D082680A40B2F5803F03D006
:101B2000016841F0010101600020704707000100D9
:101B300070B5044690F83C00012817D0012584F8C0
:101B40003C50022084F83D0020688268324E3240CA
:101B500022F47F4282600868502839D00DDC2028AA
:101B600055D005DC98B3102843D150E0022070BD59
:101B700030284CD040283CD141E0602830D070283B
:101B80000CD0B0F5805F03D0B0F5005F31D112E02A
:101B900020688168204A7032114016E0CB68D1E994
:101BA0000121206801F04FF821688868304040F03A
:101BB000770088601DE0CB68D1E90121206801F041
:101BC00042F82068816841F48041816011E01EE0A4
:101BD000CA684968206801F0D1F95021206806E000
:101BE000CA684968206801F0DAF96021206801F0CC
:101BF00034F884F83D50002084F83C0070BDCA6879
:101C00004968206801F0BAF940212068EFE72268AE
:101C100001461046EBE7000088FFFEFF704770B5F5
:101C20000446006801694FF00005C943890715D4CF
:101C3000C168C943890711D4E91E016101202077D9
:101C4000206880698007204602D0FFF7E7FF04E0A4
:101C500000F0D0F8204600F07EF925772068016971
:101C6000C943490717D4C168C943490713D46FF062
:101C700004010161022020772068806910F4407F10
:101C8000204602D0FFF7CAFF04E000F0B3F8204678
:101C900000F061F9257720680169C943090716D466
:101CA000C168C943090712D46FF00801016104201B
:101CB00020772068C0698007204602D0FFF7AEFF7A
:101CC00004E000F097F8204600F045F925772068F9
:101CD0000169C943C90617D4C168C943C90613D4E9
:101CE0006FF010010161082020772068C06910F4AE
:101CF000407F204602D0FFF791FF04E000F07AF821
:101D0000204600F028F9257720680169C943C907F2
:101D100008D1C168C943C90704D1891E01612046A1
:101D200000F052F920680169C943090609D4C16865
:101D3000C943090605D46FF0800101612046FFF711
:101D40007CFE20680169C943C90509D4C168C9433B
:101D5000090605D46FF4807101612046FFF76CFE1F
:101D600020680169C943490609D4C168C9434906C5
:101D700005D46FF040010161204600F02CF9206885
:101D80000169C94389060BD4C168C943890607D4D0
:101D90006FF0200101612046BDE87040FFF74EBEA4
:101DA00070BD000010B586B0044614216846FEF7E9
:101DB000C4FA0E492068884215D10D48C16C41F023
:101DC0000101C164C06C002100F0010005900320F6
:101DD00000900220CDE901010390049069464FF084
:101DE0009040FEF72FFE06B010BD0000000C004032
:101DF00000100240704770B5044690F83C000D4654
:101E000001280ED0012684F83C60022084F83D00B1
:101E10000C2A45D007DC5AB1042A1BD0082A78D1F5
:101E20002CE0022070BD102A4ED0142A71D15DE042
:101E3000206800F01BFF2068816941F00801816182
:101E40002068816921F004018161206881692A6923
:101E5000114311E0206800F057FF2068816941F4C8
:101E6000006181612068816921F48061816120685D
:101E700081692A6941EA022181614AE0206800F013
:101E80008BFF2068C16941F00801C1612068C16908
:101E900021F00401C1612068C1692A69114311E080
:101EA000206800F0C1FF2068C16941F40061C16190
:101EB0002068C16921F48061C1612068C1692A6913
:101EC00041EA0221C16124E0206800F0E7FF2068B8
:101ED000416D41F0080141652068416D21F0040128
:101EE00041652068416D2A69114311E0206801F0C5
:101EF0000DF82068416D41F4006141652068416D35
:101F000021F4806141652068416D2A6941EA02211E
:101F1000416584F83D60002084F83C0070BD10B538
:101F2000040003D094F83D0010B107E0012010BD7B
:101F3000002084F83C00204600F00CF8022084F8D1
:101F40003D00211D206800F011FE012084F83D00B5
:101F5000002010BD7047704710B50446006801228C
:101F600000F064FE1248216881420BD01148814282
:101F700008D01148814205D01048814202D0104853
:101F8000814203D1486C40F4004048642068826874
:101F90000C490A40062A08D082680A40B2F5803F00
:101FA00003D0016841F001010160002010BD000074
:101FB000002C014000340140004001400044014039
:101FC00000480140070001000068B0F1804F01D1D6
:101FD000FEF728BE70477047704770472DE9F04103
:101FE00002680446D0691168936810F00F0F4FF033
:101FF00000055BD003F0010601F49077374369D008
:10200000C70707D0CF0505D501271762626F42F0D9
:1020100001026267820708D5DA0706D02768022224
:102020003A62626F42F004026267420708D5DA073B
:1020300006D0236804221A62626F42F002026267CD
:1020400002070AD501F02002324306D02368082295
:102050001A62626F42F008026267626F002A32D031
:10206000800605D5880603D5216E09B1204688472C
:10207000606F000703D420688068400625D520469D
:1020800001F03BF820688168490619D5816821F084
:1020900040018160E06E98B120498163E06EFEF7F7
:1020A000A9FC00280FD0E06E816B06E0860611D5F2
:1020B0008E060FD5216E1EE02046BDE8F041084790
:1020C0002046FFF78AFFBDE8F0812046FFF785FF35
:1020D0006567F8E7C60209D55B0207D54FF48010A3
:1020E00010622046BDE8F041FFF776BF030605D534
:1020F0000B0603D5616E0029DED1E4E74006E2D588
:102100004806E0D51168204621F0400111602021E9
:1021100084F87110656600F0CBF8D4E7E73000086A
:1021200010B5040003D094F8710010B107E001204D
:1021300010BD002084F87000204600F027F824200D
:1021400084F871002068016821F0010101602046D7
:1021500000F0E4FF0128EBD0606A10B1204600F0E7
:1021600030FF2068416821F4904141602068816817
:1021700021F02A0181602068016841F001010160BD
:102180002046BDE8104000F080BF000010B586B0CA
:10219000044614216846FEF7D0F8164920688842A4
:1021A00026D11548816D41F400318165816D01F4BE
:1021B00000310591C16C41F00801C164C06C6946F1
:1021C00000F008000590602000900220019000209F
:1021D000029003200390072004900848FEF732FC89
:1021E000002205212620FEF793FD2620FEF784FD20
:1021F00006B010BD0044004000100240000C004832
:102200002DE9F843044690F871001F4616460D4626
:1022100020284BD1C5B1BEB194F87000012845D03B
:10222000012084F870004FF00008C4F87480212069
:1022300084F87100FEF7F0FCA4F850608146A4F821
:1022400052604FF4805615E00120BDE8F8838021EC
:10225000204601F0B3F8D8B9A068B04201D1206996
:10226000C0B115F8010B21680885B4F85200401E72
:10227000A4F85200B4F852004B464FF00002009709
:102280000028E4D14FF04001204601F097F830B12A
:102290000320DAE735F8020BC0F30800E3E720205B
:1022A00084F8710084F870800020CEE70220CCE72B
:1022B0007047FEE7704738B5044601222221684680
:1022C000FEF73CFB14B1012C05D00AE09DF800009C
:1022D00000F07F0003E09DF8000000F0F7008DF8AB
:1022E0000000012222216846FEF758FB38BD38B5B0
:1022F0000446012222216846FEF720FB14B1012C7E
:1023000007D00EE09DF8000000F07F0040F0800054
:1023100005E09DF8000000F0F70040F008008DF89F
:102320000000012222216846FEF738FB38BD38B58F
:102330000446012224216846FEF700FB9DF80000B8
:10234000012200F0EF0020438DF8000024216846B0
:10235000FEF724FB38BD38B504460122212168462A
:10236000FEF7ECFA9DF80000012200F0C0002043C7
:102370008DF8000021216846FEF710FB38BD1CB522
:10238000044600208DF800008DF804000122302161
:102390006846FEF7D3FA0122222101A8FEF7CEFA01
:1023A0009DF80000012200F080008DF800009DF8EB
:1023B0000400302100F0DF0004438DF8044068463B
:1023C000FEF7ECFA0122222101A8FEF7E7FA1CBD74
:1023D00038B5044600208DF80000FEF737FA8DF876
:1023E0000040012220216846FEF7D8FA200A8DF825
:1023F0000000012223216846FEF7D0FA38BD08B557
:1024000001228DF8000020216846FEF7C7FA08BDBA
:1024100008B5FEF71BFA01220F216846FEF78EFA77
:102420009DF8000008BD000070B505462DED028B3B
:1024300086B0002000900190029003908DF810006B
:1024400004469FED288A0122232104A8FEF776FA8C
:10245000062228216846FEF771FA9DF8101068469A
:102460004B0602AA0DD400BF00EB440610F814304E
:10247000767803EB062322F81430641C032CF3DB7C
:102480000BE000EB440310F814605B7803EB0623C9
:1024900022F81430641C032CF3DB11F0300004D05C
:1024A000102805D0202808D105E09FED0F8A04E010
:1024B0009FED0E8A01E09FED0E8A002132F9110096
:1024C00000EE100A05EB8100491CB8EEC00A032992
:1024D00020EE080A80ED000AF0DB06B0BDEC028BAE
:1024E00070BD00000000000000000C4100008C41A5
:1024F00000008C4208B5012224216846FEF71EFA2E
:102500009DF80000012240F080008DF80000242199
:102510006846FEF743FA08BD70B586B014216846D8
:10252000FDF70BFF1F48C16C41F00101C164C16C94
:1025300001F001010591C16C41F00801C164C16C59
:1025400001F008010591C16C41F00201C164C06C49
:10255000154E00F002000590002280213046FEF763
:1025600056FB124D0420CDE9000500246946029473
:102570003046FEF767FA802000900120CDE9010483
:102580000320039069463046FEF75CFA4FF48070F2
:10259000CDE90005694602940548FEF753FA06B0F6
:1025A00070BD000000100240000C00480000111037
:1025B000000400480E480D494FF4407201604FF48A
:1025C000827141600021C0E902124FF40072016182
:1025D000C0E90512C161016207224162C0E90A1225
:1025E000016308214163FFF79EB9000000380040F5
:1025F000E800002010B58EB00024079408940994D8
:102600000A940B940C941C2168460D94FDF795FEDA
:102610001B481A4901604F21C0E9011444F62061AA
:10262000C0E903148461FFF73BFA4FF48050079030
:1026300007A91348FFF77CFA1148FFF770FC0B94C9
:102640000BA90F480D94FFF7FBF96020009042F2B0
:102650001070CDE901040022694609480494FFF78F
:10266000CAFB4FF47A700190042269460448FFF7D0
:10267000C2FB0348FFF796FB0EB010BD000C0040F4
:102680004C0100200948084901604FF4E1314160E4
:10269000002181600C22C160C0E904128161C16126
:1026A00001624162FFF73CBD004400408C01002004
:1026B000FEE770470907090E002806DA00F00F0050
:1026C00000F1E02080F8141D704700F1E02080F850
:1026D000001470472DE9F041444C05468846E068F7
:1026E0000026810728680DD0E16801F003018142CE
:1026F00016D1A8B1E0686968C0F30210401C884296
:102700000ED120E0012804D0022805D0032807D1EB
:1027100008E02168890701E021684905002907DBF5
:1027200001265FE02168890302D421684903F5E7A7
:10273000E1686A686FF00F0321F0730103EB021286
:1027400011430143E160206820F080602060FEF7C3
:1027500063FA074605E000BFFEF75EFAC01B0228D9
:1027600037D820680001F7D4B8F1000F18D0B8F1BD
:10277000010F1ED0287D4FF07E41400801EB4060E4
:10278000A96840EA01202169194A114008432061E3
:10279000206840F080602060FEF73EFA07461AE0AD
:1027A000A868E9680002090940EA41402169114A24
:1027B000EBE7288A1049400801EB4050A96840EA3D
:1027C000012021690D4AE0E7FEF726FAC01B022826
:1027D00001D9032606E020680001F5D52069A96922
:1027E000084320613046BDE8F0810000001002403F
:1027F000FF80FFF9FF80FDFF0000E0FFFF809FFFEB
:102800002DE9F0413D4C06468846E06800258107E9
:1028100030680DD0E16801F00301814216D1A8B102
:10282000E0687168C0F30210401C88420ED120E0BD
:10283000012804D0022805D0032807D108E0216828
:10284000890701E021684905002907DB012551E0DE
:102850002168890302D421684903F5E7E1687268B9
:102860006FF00F0321F0730103EB021211430143D8
:10287000E160206820F080502060FEF7CDF9074627
:1028800005E000BFFEF7C8F9C01B022829D8206860
:102890008000F7D4B8F1000F15D0307C4FF07E41A6
:1028A000400801EB4060B16840EA01206169144AC8
:1028B000114008436061206840F080502060FEF7BE
:1028C000ABF907460FE0B068F1680002090940EA79
:1028D000414061690B4AEBE7FEF79EF9C01B0228F5
:1028E00001D9032506E020688000F5D5606971698B
:1028F000084360612846BDE8F081000000100240F6
:10290000FF80FFF9FF80FDFFF8B51C4D064600244F
:10291000A86DC00002D5FEF761FA0DE0A86D40F089
:102920008050A865A86D00F080500090FEF756FA20
:10293000A96D21F08051A965B0F5007F04D0802EEB
:1029400007D94FF003040AE0802E08D9A02E01D841
:1029500004E001D1022402E0702E00D101240848D5
:10296000016821F0070121430160006800F00700C1
:10297000A04201D00120F8BD0020F8BD00100240A7
:102980000020024000B587B01F48FEF7C9FF0028AD
:1029900038D11D481D49072201601021C161002165
:1029A000816041610161C0E90A121202C2600162E4
:1029B0004FF40072826141624FF4827242601448A7
:1029C000826D42F480428265826D02F480420592FB
:1029D000C26C42F00802C264C06C00F008000590AE
:1029E0001A2000900220CDE90101039005200490F7
:1029F00069460848FEF726F807B003485DF804EB7F
:102A0000FEF791BF07B000BDEC0200200038004087
:102A100000100240000C00480D490A68136843F09A
:102A2000400313600A6893689B07FCD5107309681C
:102A30008868C007FCD0087B8A6812F4C05FFBD1AD
:102A40008A681206FCD40A6822F040020A607047C5
:102A5000EC020020012001F029F8FBE710B550201E
:102A600080F31188BFF34F8FBFF36F8F02F020F810
:102A700018B104494FF080500860002080F311889D
:102A800010BD000004ED00E02DE9F041B8B0442194
:102A900022A8FDF752FC142133A8FDF74EFC882133
:102AA0006846FDF74AFC0224E0012590102022949C
:102AB000269001262C94CDE92D4614204FF00708CE
:102AC000CDE92F080427CDE9314722A8FEF788FC7D
:102AD0000F20002533900320CDE9340536950421DD
:102AE00033A83795FEF75AFB0B480F950090400628
:102AF0001D900597CDE901460C20CDE90308E004BF
:102B0000CDE906406846FEF771F92002FEF732F97A
:102B100038B0BDE8F0810000020004000D480168F3
:102B200041F4700101600C48016841F0010101604D
:102B3000002181600268094B1A4002608214C26061
:102B4000026822F48022026081610249C003803958
:102B50000860704788ED00E000100240FFFFF6EAD1
:102B60000148FFF75CB80000140200202DE9F0478F
:102B70000268264B264D274E274F284C4FF0804A9F
:102B8000984209D0504507D0A84205D0B04203D0A2
:102B9000B84201D0A04204D122F0700C4A6842EA47
:102BA0000C02DFF87CC0DFF87C80DFF87C90984274
:102BB0000FD050450DD0A8420BD0B04209D0B8423A
:102BC00007D0A04205D0604503D0404501D048451C
:102BD00003D122F44075CA682A434D6922F080026D
:102BE0002A4302608A68C2620A688262984207D0F9
:102BF000A04205D0604503D0404501D0484501D1F1
:102C00000969016301214161BDE8F087002C0140A1
:102C10000004004000080040000C00400034014067
:102C200000400140004401400048014010B501F05F
:102C30001F030121046A99408C430462016A9A408F
:102C40001143016210BD10B5846842EA032224F4E6
:102C50007F440A432243826010BD826822F07002E2
:102C60000A4342F007018160704700002DE9F043FC
:102C7000026A22F001020262056A436882691C4C02
:102C800025F0020522400C6822F0030214438A68F2
:102C9000194E2A43174D194FDFF864C0DFF86490CE
:102CA000A84207D0B04205D0B84203D0604501D059
:102CB000484506D122F00808CA6842EA080222F014
:102CC0000402A84207D0B04205D0B84203D0604504
:102CD00001D0484505D14D6923F440731D438B69EC
:102CE0002B4343608461496841630262BDE8F0831D
:102CF0008FFFFEFF002C01400034014000400140E6
:102D00000044014000480140F0B5026A22F0100280
:102D10000262056A42688369194C1B4E23400C68A5
:102D200023F4407343EA042425F020038D6843EA2A
:102D30000513144DA84201D0B04206D1CF6823F04C
:102D4000800343EA071323F04003A8420AD0B042AD
:102D500008D00E4DA84205D00D4DA84202D00D4D11
:102D6000A84207D14D6922F4406242EA85028D698A
:102D700042EA850242608461496881630362F0BD72
:102D8000FF8FFFFE002C0140003401400040014055
:102D90000044014000480140F0B5026A22F480720C
:102DA0000262056A4368C269194C1B4E22400C68D6
:102DB00022F00302144325F400728D6842EA0522D2
:102DC000144DA84201D0B04206D1CF6822F400626F
:102DD00042EA072222F48062A8420AD0B04208D018
:102DE0000E4DA84205D00E4DA84202D00D4DA8426E
:102DF00007D14D6923F4405343EA05138D6943EA33
:102E000005134360C4614968C1630262F0BD0000FC
:102E10008FFFFEFF002C01400034014000400140C4
:102E2000004401400048014030B5026A22F480525B
:102E30000262046A4268C369124D24F400542B40B4
:102E40000D6823F4407343EA05238D6844EA053492
:102E50000D4DA8420BD00D4DA84208D00C4DA842F4
:102E600005D00C4DA84202D00B4DA84204D14D69AB
:102E700022F4804242EA85124260C36149680164DB
:102E8000046230BDFF8FFFFE002C01400034014082
:102E900000400140004401400048014030B5026A52
:102EA00022F480320262046A4268436D114D2B4065
:102EB0000D681D4324F400330C8943EA04430E4C8F
:102EC000A0420BD00D4CA04208D00D4CA04205D022
:102ED0000C4CA04202D00C4CA04204D14C6922F40C
:102EE000803242EA04224260456549688165036296
:102EF00030BD00008FFFFEFF002C01400034014078
:102F000000400140004401400048014030B5026AE1
:102F100022F480120262046A4268436D114D24F467
:102F200000142B400D6843EA05230D8944EA05543B
:102F30000D4DA8420BD00D4DA84208D00C4DA84213
:102F400005D00C4DA84202D00B4DA84204D14D69CA
:102F500022F4802242EA8522426043654968C165C5
:102F6000046230BDFF8FFFFE002C014000340140A1
:102F700000400140004401400048014010B5036A90
:102F8000046A24F001040462846924F0F00444EA31
:102F9000021423F00A020A438461026210BD10B5D4
:102FA000036A23F0100303628369046A23F4704305
:102FB00043EA023224F0A00343EA01118261016274
:102FC00010BD90F82410C90706D001684A68836ACA
:102FD00022F400321A434A6090F82410890706D57B
:102FE00001684A68C36A22F480321A434A6090F842
:102FF0002410490706D501684A68036B22F4802231
:103000001A434A6090F82410090706D501684A68F7
:10301000436B22F400421A434A6090F82410C90618
:1030200006D501688A68836B22F480521A438A604D
:1030300090F82410890606D501688A68C36B22F4CB
:1030400000521A438A6090F82410490611D501688D
:103050004A68036C22F480121A434A60016CB1F58D
:10306000801F06D101684A68436C22F4C0021A43EB
:103070004A6090F82410090606D501684A68806CF9
:1030800022F4002202434A607047F8B50026044645
:103090004667FDF7C1FD0546206800686FF07E4772
:1030A000000708D52B4600224FF400112046009758
:1030B00000F084F960B92068006840070AD52B4603
:1030C00000224FF480012046009700F077F908B104
:1030D0000320F8BD202084F8710084F8720084F881
:1030E00070600020F8BD10B5806A0021A0F85A1069
:1030F000A0F85210FEF771FF10BD01680A6822F4B3
:1031000090720A6001688A6822F001028A602021B8
:1031100080F8721000210166704700002DE9F0412F
:103120000446016880682369E669184363691025CD
:10313000002733431843954A0B68954E33400343A9
:103140000B6020684168E36821F4405119434160F5
:103150002168A069914201D0236A18438B6823F447
:10316000306303438B608B4B21688B4899420DD1B0
:10317000D0F8880010F0030006D001285AD00228A9
:1031800056D0032859D157E0012556E0834B994288
:103190000BD1D0F8880010F00C0047D0042849D09B
:1031A000082845D00C2848D146E07D4B99420BD1E8
:1031B000D0F8880010F0300038D010283AD02028FD
:1031C00036D0302839D137E0764B99420BD1D0F840
:1031D000880010F0C00029D040282BD0802827D0AC
:1031E000C0282AD128E0704B99420ED1D0F888002F
:1031F00010F440701AD0B0F5807F1BD0B0F5007F7E
:1032000016D0B0F5407F18D116E0914215D1D0F814
:10321000880010F4406009D0B0F5806F0AD0B0F596
:10322000006F05D0B0F5406F07D105E0002504E040
:10323000022502E0042500E008255C4B00264FF43F
:10324000004091423DD135B1022D07D0042D07D069
:10325000082D10D107E0FEF74DF803E0184602E014
:10326000FEF76CF8A8B3626802EB4201814202D813
:10327000B0EB023F01D9012775E0DFF834815DB181
:10328000022D0CD0042D13D0082DF4D1500829059F
:10329000401846F1000105E0FEF72CF80AE050085E
:1032A0004449F5E70023FCF7FBFFA0F5407156E029
:1032B000FEF744F86268010E0302500818187141C5
:1032C000F0E7E1694FF6EF7881422FD1092DD2D294
:1032D00000E048E0DFE805F00609200523050505C4
:1032E0002600C8E7FEF706F801E0FEF715F84100F2
:1032F000D4F8040001EB5001B1FBF0F080B2A0F172
:1033000010014145B7D84FF6F0710140C0F34200BB
:1033100001432068C16026E027496068EAE7FEF7BC
:103320000DF8E4E74FF480316068E3E7092DA2D29D
:10333000DFE805F006091E052205050525009AE7C8
:10334000FDF7D8FF01E0FDF7E7FF0146606801EBFC
:10335000500100BFB1FBF0F080B2A0F11001414577
:1033600089D82168C860266638466666BDE8F0815F
:10337000606803EB5001EDE7FDF7E0FFE5E761680A
:1033800000EB5100B0FBF1F0E6E7000000800040E8
:10339000F369FFEF00380140001002400044004094
:1033A00000480040004C0040005000400024F40061
:1033B000FFFC0F00000024F40048E8012DE9F04173
:1033C000984617460E460446069D1DE0681C1BD015
:1033D0002DB1FDF721FCA0EB0800A84214D920680C
:1033E000016821F4D07101602068816821F0010139
:1033F0008160202084F8710084F87200002084F835
:1034000070000320BDE8F0812068C06936EA000042
:1034100004D00020B842D9D00020F3E70120F9E71A
:103420000148FEF7DBBD00008C010020FEE7000034
:103430000FB4084B10B504A902AA039800F01CF8B9
:10344000044602A9002000F0BBF9204610BC5DF83C
:1034500014FB0000C137000802E008C8121F08C1B1
:10346000002AFAD170477047002001E001C1121F05
:10347000002AFBD1704700002DE9FF4F8BB0884632
:103480000546002606E025280BD0DDE90D12904701
:103490006D1C761C28780028F5D10FB0304600F05E
:1034A00063B90024A146A2460122AE4900E00443CC
:1034B00015F8013F203B02FA03F00842F7D12878C3
:1034C0002A2810D06FF02F022878A0F130010929A6
:1034D00015D809EB890102EB410144F0020400EB2D
:1034E00001096D1CF0E758F8041B5FEA010903D5D8
:1034F00044F40054C9F1000944F002046D1C28781A
:103500002E2817D115F8010F44F004042A280ED0F4
:103510006FF02F022878A0F1300109290AD80AEBB0
:103520008A0102EB410100EB010A6D1CF2E758F839
:1035300004AB6D1C28786C280FD006DC4C2817D003
:1035400068280DD06A2814D104E0742810D07A2895
:103550000FD10DE044F400140AE044F4801401E0BB
:1035600044F440146978814202D104F580146D1C42
:103570006D1C2878692865D006DC00288DD063286A
:1035800027D0642806D15DE06E2808D073282AD0A1
:10359000752877D0DDE90D129047761CE0E0C4F382
:1035A0000250022809D003280DD0D8F800100428B2
:1035B0000DD00E6008F10408D2E0D8F80010F21720
:1035C000C1E90062F6E7D8F800100E80F2E70E704D
:1035D000F0E718F8041B8DF8001000208DF80100AA
:1035E000EB46012003E058F804BB4FF0FF306107C1
:1035F0004FF0000701D40AE07F1C57450DDA8742DF
:10360000FADB1BF807100029F6D106E07F1C874281
:10361000FCDB1BF807100029F8D1DDE90D23A9EB2D
:1036200007008146214600F0B4F83044C61904E092
:10363000DDE90D121BF8010B90477F1EF8D22146E1
:10364000484688E058F8040BC4F302514FF00A0BC7
:10365000032900D100B2042900D140B2002802DAC7
:1036600040422D2102E0210505D52B218DF82410A3
:10367000012104E006E0E10710D02021F6E708AFC1
:10368000089113E058F8040BC4F302514FF00A0BF1
:10369000032900D180B2042900D1C0B20021EEE795
:1036A0005946FCF7EDFF303107F8011D0028F7D12E
:1036B000ADEB070000F1200B600702D524F4803445
:1036C00001E04FF0010ADA4502DDAAEB0B0000E051
:1036D0000020824600EB0B0108980144A9EB010091
:1036E0000A90E00306D4DDE90D2321460A9800F094
:1036F00050F806444FF0000908E009A911F8090044
:10370000DDE90D12904709F10109761C08998945F8
:10371000F3DBE0030CD5DDE90D2321460A9800F028
:1037200038F8064404E0DDE90D1230209047761C9D
:10373000BAF10001AAF1010AF5DC05E0DDE90D129C
:1037400017F8010B9047761CBBF10001ABF1010BA0
:10375000F4DC0A982146DDE90D2300F008F8064460
:103760006D1C97E60928010030BCBDE8C08F2DE92B
:10377000F041044600251E461746880404D405E09F
:1037800039462020B0476D1C641EF9D52846BDE897
:10379000F0812DE9F041044600251E469046C803FD
:1037A00001D5302700E02027880404D505E04146F4
:1037B0003846B0476D1C641EF9D52846BDE8F08137
:1037C0000A68531C0B601070704700002DED068BCB
:1037D000D0B068A104A8FFF72BFE9FED6A8B0026EE
:1037E00004AD40F2DD579FED699B6A4C60690A2881
:1037F0006FDA2169322975DC2068FCF7D4FE89462E
:1038000049EC100B804653EC182B51EC100BFCF7D5
:1038100055FE41EC110B49EC108B53EC112B51EC84
:10382000100BFCF79CFD41EC1A0B6068FCF7BBFE2B
:1038300053EC1A2BFCF7F4FE4DD82068FCF7B3FECE
:10384000894649EC100B8046B0EE481AF0EE681A33
:1038500053EC112B51EC100BFCF730FE41EC110B2B
:1038600049EC108B53EC112B51EC100BFCF718FEAC
:1038700041EC1A0B6068FCF796FE53EC1A2BFCF730
:10388000E7FE28D8E068A26800EB800102EB410166
:1038900040002661C4E902106169242068543E4852
:1038A000FEF705F8B0FBF7F107FB1100FCF78CFE03
:1038B00053EC192BFCF753FDFCF793FE02462060F6
:1038C00035480021B83800F019FC6069401C60617F
:1038D00004E03FE006E061692D2068542069401C47
:1038E00020611DE0212129540120C4E903062A4852
:1038F000FDF7DDFFB0FBF7F107FB1100FCF764FEFD
:1039000053EC192BFCF72BFDFCF76BFE02462060F5
:1039100021480021B83800F0F1FB6069401C60616B
:1039200004A800F0C5FCD4E90032D4E903018DE815
:103930000F001A491DA8A3686269FFF779FD1DA849
:1039400000F0B6FC16A11DA8FFF772FD1DA800F03F
:10395000AFFC0BE007D114A136A8A268FFF768FD01
:1039600036A800F0A5FC6069401C6061642000F08E
:103970009DF83BE72D2D2D2D2D2D2D2D2D2D0A0DB7
:10398000000000009A9999999999A93F00000000B8
:1039900000407F400000002004020020384E000854
:1039A0001B5B3241000000000A0A0A0D46696E6185
:1039B0006C2053636F72653A2025640A0D00000085
:1039C0001CB51749154808600846FDF77BFF1448E9
:1039D000FDF76DFF40F2DD51B0FBF1F201FB12008B
:1039E000FCF7F2FD9FED0F1B53EC112BFCF7B7FC1E
:1039F000FCF7F7FD0D490246086009480021B83878
:103A000000F07CFB00200090034601904FF4807290
:103A100007A1094801F010F81CBD0000000806507D
:103A2000040200200000000000407F400000002051
:103A30007072696E74000000CD37000886B0FDF723
:103A4000F9F8FFF721F8FEF767FDFEF71BFE1149B5
:103A50000F4808600846FDF735FFFEF7CBFDFEF77F
:103A6000A9FD14220C496846FCF74EFC002168466B
:103A700000F028F80949886100F08EF800F01AFB80
:103A800000F076F8FFF79CFF00F017F8FEE7000063
:103A900000080650D8000020DC4D0008000000207F
:103AA00001460020842900D0C81C704710B500B919
:103AB000012000F01DFC002010BD10B500F0B8FC86
:103AC000002010BD3EB504460D46B0F90800FFF7D2
:103AD000E7FF02A9CDE90001208A2B4682B2D4E992
:103AE000001000F0A9FF012801D000203EBD02987F
:103AF0003EBD00002DED028B4FF4FA77194E9FED7D
:103B00001A8A1A4C06F10C054FF4FA681548FCF7AE
:103B10006DFE002006EB800191ED000AC0EE080A60
:103B2000BDEEE00A10EE101A45F82010401C0328E4
:103B3000F0DBA868616808446060B84201DC676037
:103B400003E0404501DBC4F80480606844F620616E
:103B50000A1A044804218C3000F0D0FA0A20FFF73A
:103B6000A5FFD3E7C000002000401C460000002055
:103B70001CB5FCF745FE00200090034601904FF471
:103B8000807202A1034800F057FF1CBD7072696E7D
:103B900074000000F53A000810B5012000F02CFD7B
:103BA0000149086010BD00001C0000202DE9F04113
:103BB000184C0F46054666692068001D00F0BEFAE5
:103BC00038B9206890F82C1001208840A169814301
:103BD000A161681C07D137B12168BDE8F0410E48EA
:103BE000091D00F0E5BA20683544B54245602168FA
:103BF00005D2A068BDE8F041091D00F0C1BA6068B7
:103C0000091D00F0BDFA206B854200D22563BDE896
:103C1000F0810000600000202C0400202DE9F0411C
:103C2000054600F0D1FA2E4C2069401C2061206826
:103C30002C4F10B1E06940B32DE0256020690128C8
:103C400029D1002606EB860007EB800000F08AFAF7
:103C5000761C072EF6D323488C3000F083FA2148D7
:103C6000A03000F07FFA1F48B43000F07BFA1D4806
:103C7000C83000F077FA1B48DC3000F073FA1948BE
:103C80008C3060601430A06005E02068E96AC06A8A
:103C9000884200D82560E06A401CE062E96A0120A1
:103CA000A26988401043A06101EB810007EB80000E
:103CB000291D00F07DFA00F0A7FAE06900280CD079
:103CC0002068E96AC06A884207D207494FF08050ED
:103CD0000860BFF34F8FBFF36F8FBDE8F081000026
:103CE000600000205003002004ED00E02DE9F041C9
:103CF000856B174604460026026C82B1C7B1E068A6
:103D0000FCF702FBE168206C091AE160226891422D
:103D100002D26168081AE060022F16D017E020680E
:103D2000A8B9606800F028FF0646002060600EE039
:103D3000A068FCF7E9FA216CA0680844A0606168FB
:103D4000884204D32068A06001E005B16D1E6D1C9F
:103D5000A5633046BDE8F08110B50446006B00F065
:103D600067FA2046BDE8104000F062BA0F4842F200
:103D70001071420705D0C01D0C4A20F00700821ABE
:103D8000891A0B4A00230144C2E900030839103A9A
:103D900021F0070111604B600B600B1AC0E90013A2
:103DA00093604FF000405360D060704740040020A3
:103DB000AC000020154E164CA6F1C8074FF08058F5
:103DC000DFF8509012E000BF00F0FEF9F068C5681F
:103DD000281D00F0B3F92069401E2061E068401EF4
:103DE000E06000F011FA2846FFF7B6FFE06800280F
:103DF000EAD13868012805D9C9F80080BFF34F8F90
:103E0000BFF36F8F00F0ADF9F0E700001804002059
:103E10006000002004ED00E02DE9F0479A46DDE95E
:103E2000098481466FF00303206B03EB8202104488
:103E3000089D20F00706700707D0502080F31188F6
:103E4000BFF34F8FBFF36F8FFEE723180A5C83F831
:103E500034200A5C12B1401C1028F6D3002784F8E5
:103E60004370072D00D30625E562C4E91157201DD4
:103E700000F083F904F1180000F07FF92461C5F126
:103E800007006462A061E76484F8507052464946B6
:103E9000304600F01DF92060B8F1000F01D0C8F8DD
:103EA0000040BDE8F087000030B5114900E0114640
:103EB0000A688242FBD34B685C18844203D1406895
:103EC00018444860084643681C18944209D1084CBD
:103ED000103C2468A24209D052681A4442600A6821
:103EE00012680260814200D0086030BD0460F9E7CA
:103EF000AC00002010B5044600F066F9A06B28B1B4
:103F00005FF0000400F080F9204610BD0124F9E7BD
:103F100006484168096829B14168C968C9684968A3
:103F2000016370474FF0FF31FAE7000060000020A6
:103F300008484068401C4FF0500080F3118804D0BE
:103F4000BFF34F8FBFF36F8FFEE7BFF34F8FBFF30A
:103F50006F8FFEE7B40000202DE9F041044600F029
:103F600033F994F9455004F1240609E0606A48B138
:103F7000304600F097FE08B100F0E8F96D1E6DB212
:103F8000002DF3DC4FF0FF3684F8456000F03CF97B
:103F900000F01AF994F9445004F1100709E020697F
:103FA00048B1384600F07EFE08B100F0CFF96D1E32
:103FB0006DB2002DF3DC84F84460BDE8F04100F000
:103FC00023B900002DE9F0410546002700F064FA0E
:103FD000314E306808B9FFF7C9FEF06805424BD191
:103FE000C5B3083568070ED005F00700C0F108001A
:103FF0000544680707D0502080F31188BFF34F8F26
:10400000BFF36F8FFEE72DB37068854234D8224826
:10401000103001460C6801E020460C466168A94258
:1040200002D221680029F7D131688C4224D0076878
:104030002168016060680837411B10290FD9601999
:10404000420708D0502080F31188BFF34F8FBFF391
:104050006F8FFEE710E041606560FFF725FF616844
:104060007068401A7060B268904200D2B060F06828
:1040700001430020C4E9000100F04EFE780707D09C
:10408000502080F31188BFF34F8FBFF36F8FFEE78F
:104090003846BDE8F08100009C0000200449086813
:1040A00018B10868826C521C82640868704700006E
:1040B0006000002010B500210448FDF74DFFBDE869
:1040C000104004210148FDF747BF00004C010020CB
:1040D00010B5031F4FF080741C601B1F21F00101FD
:1040E0001960191F044B0B6014390A60091F6FF027
:1040F000020244380A6010BD313F000870B588B034
:104100000C46064615461C216846FCF716F99CB17C
:10411000702000900021CDE90151049122466946AA
:104120003046FDF768FE08B1FCF78EFB21463046AD
:10413000FDF712FF08B070BD6020EAE7D0E9013258
:1041400001699A60D0E901235A604A68824201D12C
:1041500082684A60002202610868401E08600868A0
:104160007047704700F108014FF0FF32C0E90112BB
:10417000C160016100210160704700210161704749
:1041800030B50B685A1C02D000F1080202E0026947
:1041900004E02246546825689D42FAD953684B6072
:1041A00099608A60516008610168491C016030BDF6
:1041B00042684A6093688B609368596091600861B7
:1041C0000168491C01607047502080F31188BFF3DB
:1041D0004F8FBFF36F8F0A494868401C4860012821
:1041E0000CD10848006810F0FF0F07D0502080F372
:1041F0001188BFF34F8FBFF36F8FFEE7704700004A
:10420000B400002004ED00E00849486828B1401ED1
:10421000486001D180F311887047502080F31188E5
:10422000BFF34F8FBFF36F8FFEE70000B400002095
:1042300070B5002827D0144DA0F108046168E86823
:10424000014207D1502080F31188BFF34F8FBFF395
:104250006F8FFEE722683AB1502080F31188BFF3D8
:104260004F8FBFF36F8FFEE78143616000F014F959
:1042700060686968084468602046FFF715FEBDE87D
:10428000704000F049BD70BD9C0000204FF0E02060
:1042900000210161816105494FF47A720968B1FB1F
:1042A000F2F1491E4161072101617047240000209D
:1042B00070B50C4C05464FF0FF31206800F0C6FA8F
:1042C0002846FCF745F882B2074B29460748FDF718
:1042D00097FF2068BDE8704000231A46194600F099
:1042E00005BA00001C000020A08601008C010020FF
:1042F00010B5020014D00F48806B38B1502080F305
:104300001188BFF34F8FBFF36F8FFEE700F0C4F843
:1043100000211046FFF74AFC00F0FEFC002807D100
:1043200005494FF080500860BFF34F8FBFF36F8F88
:1043300010BD00006000002004ED00E002498A6A20
:104340000260496941607047600000200149012016
:10435000486270476000002010B50C4650B1094912
:1043600009681831FFF70CFF2046BDE81040012115
:10437000FFF71CBC502080F31188BFF34F8FBFF3B1
:104380006F8FFEE76000002070B504004BD0A26C78
:10439000A2B1606C884200D30146E06A884242D0F4
:1043A000012A40D1204D2A6894420FD1502080F339
:1043B0001188BFF34F8FBFF36F8FFEE7502080F35C
:1043C0001188BFF34F8FBFF36F8FFEE7E162A269E1
:1043D000002A02DBC1F10701A161144E00EB80004D
:1043E000616906EB800081421DD1201DFFF7A6FE0A
:1043F000012150B9E06A00EB800256F8222022B970
:10440000AA6901FA00F08243AA61E06AAA698140C0
:104410001143A96100EB800006EB8000211DBDE87F
:104420007040FFF7C5BE70BD600000205003002043
:104430001CB515480024CDE900402346802213A175
:10444000144800F0F9FA012809D0401C1AD1502074
:1044500080F31188BFF34F8FBFF36F8FFEE75020BB
:1044600080F31188BFF34F8FBFF36F8F06484FF073
:10447000FF31343801630121C1614461BDE81C4052
:1044800000F040B81CBD00009400002049444C4599
:1044900000000000B53D00080248816B491C8163A3
:1044A00070470000600000201448816B11B10121A9
:1044B00041627047002141628169B1FA81F1C1F125
:1044C0001F0101EB81020E4951F822306BB101EB63
:1044D000820101F108034A6852684A609A4201D198
:1044E00052684A60D16801607047502080F311889B
:1044F000BFF34F8FBFF36F8FFEE700006000002017
:10450000500300201CB537480168374A914207D153
:10451000502080F31188BFF34F8FBFF36F8FFEE7FA
:1045200000683149491E884207D1502080F3118824
:10453000BFF34F8FBFF36F8FFEE72C4908780190D0
:10454000FF20087008788DF800009DF800009DF8A5
:10455000002000F0F000904207D0502080F3118836
:10456000BFF34F8FBFF36F8FFEE79DF80000204B26
:1045700000F0500018700720986005E09DF80020BA
:1045800052008DF80020401E9DF800201206F5D440
:104590009860032807D0502080F31188BFF34F8F15
:1045A000BFF36F8FFEE74FF440709860019808707A
:1045B0000C482030016841F470010160016841F04D
:1045C00070410160FFF762FE00205860FBF70AFEB1
:1045D0000848016841F040410160FBF7EFFD002011
:1045E0001CBD000000ED00E071C20F4100E400E0DE
:1045F000B400002034EF00E010B502460021012095
:1046000000F00CF8041E07D00021416001600B4649
:104610000A46C16000F06AF8204610BD70B50E462B
:10462000050013D0D6B105FB06F04830FFF7CAFCF1
:10463000040009D004F1480120468EB10160C0E9B0
:104640000F56012100F00EF8204670BD502080F377
:104650001188BFF34F8FBFF36F8FFEE70020E4E7B1
:104660000060ECE770B50D46040025D0FFF7ACFD07
:10467000D4E90F20216802FB001161600021A163D1
:104680002168A1600A46D4E90F01401E00FB012108
:10469000E16021464FF0FF3001F8440F487004F10B
:1046A00010008DB1FFF75EFD04F12400FFF75AFD05
:1046B000FFF7AAFD012070BD502080F31188BFF3E1
:1046C0004F8FBFF36F8FFEE721690029F0D000F014
:1046D000E9FA0028ECD004494FF080500860BFF39D
:1046E0004F8FBFF36F8FE3E704ED00E02DE9FF4745
:1046F00082B01D468A464FF00008040003D0BAF18C
:10470000000F08D011E0502080F31188BFF34F8FC5
:10471000BFF36F8FFEE7206C38B1502080F3118813
:10472000BFF34F8FBFF36F8FFEE7022D0AD1E06B0F
:10473000012807D0502080F31188BFF34F8FBFF3BB
:104740006F8FFEE700F0A6F93F4F4FF000094FF0E2
:10475000805648B9049838B1502080F31188BFF3CF
:104760004F8FBFF36F8FFEE7FFF72EFDA06BE16B5E
:10477000884207D3022D05D00498D0B1B8F1000FBC
:104780001AD01EE02A4651462046FFF7AFFA616A6A
:1047900019B104F1240000F085FA20B13E60BFF3A6
:1047A0004F8FBFF36F8FFFF72FFD012006B0BDE8DD
:1047B000F087FFF729FD22E06846FFF7BFFD4FF0C5
:1047C0000108FFF721FDFFF767FEFFF7FDFC94F9F5
:1047D0004400401C01D184F8449094F94500401CE9
:1047E00001D184F84590FFF70FFD04A9684600F059
:1047F000E9F830B12046FFF7AFFB00F08DFA00205A
:10480000D4E7FFF7E1FCA06BE16B884213D1FFF71F
:10481000FBFC04F110000499FFF79EFD2046FFF712
:104820009BFB00F079FA00289ED13E60BFF34F8FCA
:10483000BFF36F8F98E7FFF7E7FC2046FFF78CFB8D
:1048400000F06AFA90E7000004ED00E02DE9F34380
:10485000002683B00400354609D0206C78B1502082
:1048600080F31188BFF34F8FBFF36F8FFEE75020A7
:1048700080F31188BFF34F8FBFF36F8FFEE700F017
:1048800009F9DFF83C814FF000094FF0805748B933
:10489000049838B1502080F31188BFF34F8FBFF3D5
:1048A0006F8FFEE7FFF790FCA06BC8B1401EA063BE
:1048B000206810B9FFF7F2FB6060206950B104F185
:1048C000100000F0EFF928B1C8F80070BFF34F8F67
:1048D000BFF36F8FFFF798FC012005B0BDE8F083B0
:1048E000049808B166B10FE03DB1502080F3118803
:1048F000BFF34F8FBFF36F8FFEE7FFF785FC5DE0DF
:104900006846FFF71BFD0126FFF77EFCFFF7C4FD9D
:10491000FFF75AFC94F94400401C01D184F84490FC
:1049200094F94500401C01D184F84590FFF76CFCD8
:1049300004A9684600F046F80028204612D0FFF788
:104940000BFB00F0E9F92046FFF7D4FA0028A9D0C4
:104950009DB3FFF739FC606A50B3206B0068C0F16B
:10496000070126E0FFF7C6FAE0B1206838B9FFF783
:104970002BFC606800F04CF90546FFF745FC04F19C
:1049800024000499FFF7E8FC2046FFF7E5FA00F061
:10499000C3F9002886D1C8F80070BFF34F8FBFF36A
:1049A0006F8F7FE72046FFF7D7FA00F0B5F979E778
:1049B00000216068FFF7E8FC9FE7FFE700208CE735
:1049C00004ED00E02DE9F0410C46050011D0C4B122
:1049D000FFF7FAFB174B5A696E682068911B471C5A
:1049E00017D02F689B6A9F4219D0964217D801248E
:1049F00010E0502080F31188BFF34F8FBFF36F8F0B
:104A0000FEE7502080F31188BFF34F8FBFF36F8F05
:104A1000FEE70024FFF7F8FB2046BDE8F08188425E
:104A200005D9401A20602846FFF788FCF1E70020EE
:104A30002060DCE7600000202DE9FF5F8346DDE9B0
:104A40000E87994616468A469000FFF7BBFA050086
:104A50001AD05420FFF7B6FA040012D025630021C3
:104A6000CDE90241CDE900874B46324651465846D2
:104A7000FFF7D2F92046FFF7D1F8012004B000F08B
:104A800006B82846FFF7D4FB4FF0FF30F6E730BCFE
:104A9000BDE8C09F0548C16919B1806B18B10020FD
:104AA000704701207047022070470000600000201E
:104AB0002DE9F0412E4C0027A06B40B1206A401C2C
:104AC0002062606A00B101273846BDE8F08166695E
:104AD000761C666113D16068006838B1502080F39D
:104AE0001188BFF34F8FBFF36F8FFEE76068A16837
:104AF0006160A060A06A401CA062FFF709FA206B09
:104B0000DFF87080864209D36068006880B1606811
:104B1000C068C568686886420DD220632068C06A94
:104B200000EB800158F821000128CAD90127C8E705
:104B30004FF0FF30F1E7281DFFF700FBA86A18B11E
:104B400005F11800FFF7FAFAE86A0121A26981402D
:104B50001143A16100EB800108EB8100291DFFF7E3
:104B600027FBE86A2168C96A8842CDD30127CBE7D1
:104B7000600000205003002070B504004FF00001D9
:104B800040D0214D2868844207D0502080F31188FE
:104B9000BFF34F8FBFF36F8FFEE7A06C38B1401E9D
:104BA000A064636CE26A9A422CD040B12AE05020A3
:104BB00080F31188BFF34F8FBFF36F8FFEE7201D87
:104BC000FFF7BCFA114A012150B9E06A00EB8003FB
:104BD00052F8233023B9AB6901FA00F08343AB618B
:104BE000606CE062C0F10700A061E06AAB698140DF
:104BF0001943A96100EB800002EB8000211DFFF743
:104C0000D7FA0121084670BD600000205003002043
:104C100070B504004FF0000038D0204DE16A2A68DA
:104C2000D26A914233D2A069002804DB2868C06AA6
:104C3000C0F10700A0611A4E01EB8101606906EB2B
:104C4000810188421ED1201DFFF778FA012150B959
:104C5000E06A00EB800256F8222022B9AA6901FA24
:104C600000F08243AA612868C06AE062AA698140B4
:104C70001143A96100EB800006EB8000211DFFF7C6
:104C800097FA02E02868C06AE062012070BD616C9A
:104C90002A68D26A9142F8D370BD000060000020FB
:104CA000500300202DE9F041C068C468ACB104F1A4
:104CB00018000746FFF742FA154DA86B0126A0B170
:104CC00039461448FFF774FAE06A2968C96A8842CD
:104CD0001CD901206E62BDE8F081502080F311885C
:104CE000BFF34F8FBFF36F8FFEE7201DFFF726FA4C
:104CF000E16AAA6906FA01F01043A86101EB81009C
:104D00000449B43901EB8000211DDBE70020E2E714
:104D100060000020040400202DE9F0472C4D002401
:104D20002746A86B38B1FFF74FFAA86B401EA8635F
:104D3000A86B40B146E0502080F31188BFF34F8F3D
:104D4000BFF36F8FFEE72969224E0120D1B3A6F190
:104D5000B40980463068E8B1F068C46804F118000E
:104D6000FFF7ECF9201DFFF7E9F9E06AAA6908FAF4
:104D700000F11143A96100EB800109EB8100211DC5
:104D8000FFF716FAE06A2968C96A8842E2D3C5F8D3
:104D90002480DFE70CB1FFF7BBF82C6A44B146462C
:104DA000FFF786FE00B16E62641EF9D10020286212
:104DB000686A38B10849012738070860BFF34F8F88
:104DC000BFF36F8FFFF720FA3846BDE8F087000089
:104DD000600000200404002004ED00E0844E000880
:104DE000552A0008000000000000000080000000BC
:104DF000000000000000000001020304060708098B
:104E0000A0860100400D0300801A060000350C004A
:104E100040420F0080841E0000093D0000127A000D
:104E20000024F40000366E010048E801006CDC024A
:104E300000000000010203045475726E3A202564DC
:104E40000920506F696E74733A2025640920436FFE
:104E50006D626F3A2025322E3064092054696D65E9
:104E60003A2025322E30640920506F736974696FBF
:104E70006E3A2025342E3064092025342E30640DFE
:104E80000A00000064656661756C745461736B00A0
:104E9000B04E000800000020C00000005834000898
:104EA000704F0008C0000020902E000068340008F9
:104EB00090010000E204000000000000010000007A
:104EC00000000000000000000000000000000000E2
:104ED0000000000000093D0000000000D123000890
:104EE000B522000811240008F5240008FF2300085B
:104EF0007F230008EF220008B7220008000000000E
:104F000000000000572300082F2300082924000870
:104F10000000000000000000000000000000000091
:104F20000000000000000000000000000000000081
:104F30000000000000000000000000000000000071
:104F40000000000000000000000000000000000061
:104F50000000000000000000000000000000000051
:104F60000000000000000000AAAAAAAA0000000099
:040000050800018965
:00000001FF
