:020000040800F2
:1000000060160020450200088102000883020008F3
:10001000850200088702000889020008000000002D
:100020000000000000000000000000008B0200083B
:100030008D020008000000008F02000891020008F5
:10004000930200089302000893020008930200083C
:10005000930200089302000893020008930200082C
:10006000930200089302000893020008930200081C
:10007000930200089302000893020008930200080C
:1000800093020008930200089302000893020008FC
:1000900093020008930200089302000893020008EC
:1000A00093020008930200089302000893020008DC
:1000B00093020008930200089302000893020008CC
:1000C00093020008930200089302000893020008BC
:1000D00093020008930200089302000893020008AC
:1000E000930200089302000893020008930200089C
:1000F000930200089302000893020008930200088C
:10010000930200089302000893020008930200087B
:10011000930200089302000893020008930200086B
:10012000930200089302000893020008930200085B
:10013000930200089302000893020008930200084B
:10014000930200089302000893020008930200083B
:10015000930200089302000893020008930200082B
:10016000930200089302000893020008930200081B
:1001700093020008930200089302000800000000A8
:10018000930200089302000800F002F800F04AF819
:100190000AA090E8000C82448344AAF10107DA45E2
:1001A00001D100F03FF8AFF2090EBAE80F0013F0EA
:1001B000010F18BFFB1A43F0010318472414000075
:1001C00044140000103A24BF78C878C1FAD8520706
:1001D00024BF30C830C144BF04680C6070470000C1
:1001E0000023002400250026103A28BF78C1FBD840
:1001F000520728BF30C148BF0B607047642900F028
:10020000AD80002070471FB501F0E4F900F090FCCC
:1002100004000020002101F0C7F9401C60601FBDF0
:1002200010B510BD00F049FC1146FFF7ECFF01F0DE
:100230003FF900F06FFC03B4FFF7F2FF03BC00F0DE
:10024000BBFC000016481749174B99423CBF50F8B9
:10025000042B41F8042BF8D314494FF000028B42D1
:1002600038BF43F8042BFAD3DFF84400016841F4A7
:1002700070010160BFF34F8FBFF36F8F0D480047D0
:10028000FEE7FEE7FEE7FEE7FEE7FEE7FEE7FEE746
:10029000FEE7FEE708480949094A0A4B7047000093
:1002A00010170008000000203C000020601600200D
:1002B00088ED00E089010008601000206016002031
:1002C00060120020601200200FB41CB5084B06AA73
:1002D0007B4469460090059800F0CBF90446002065
:1002E000694600F0D9F920461CBC5DF814FB0000FB
:1002F000C50300002DE9F0410E46044600202062AF
:100300002046E168884730B3252805D0D4E901218B
:100310009047206A401CF2E7E168204600278847A2
:10032000050018D0A5F14100192802D820354FF456
:1003300000673246294620462760FFF75FFF40B13D
:10034000012804D0F61D26F007060836D8E7361D2A
:10035000D6E72846DAE7206ABDE8F0812DE9F041CA
:100360000646002410687529314616A510D0AFF353
:100370000080002802DA404213A507E031688A07AE
:1003800001D512A502E0490704D511A5012401E019
:10039000AFF3008000210A2206F1240709E0B0FB38
:1003A000F2FCB0FBF2F302FB1C003030785418462C
:1003B000491C0028F3D123462A463046BDE8F041C7
:1003C00000F0F9B8000000002D0000002B00000034
:1003D000200000000FB400B58DB010A90990009165
:1003E0000B904FF0FF300A9000200C9006487844A4
:1003F0000690064878446A4607900F9909A800F0CD
:1004000065F90DB05DF814FBFB020000130300005A
:100410002DE9FF5F1D464FF0FF3B91464FF000086E
:100420005F46D5E90146A96901987F1C8847296A7A
:10043000824688470028F6D1BAF1FF3F0CD0002E43
:1004400024F4C06419DD600614D5BAF12B0F09D06D
:10045000BAF12D0F0ED103E0584604B000F07EB87B
:1004600044F48064A96901987F1C8847761E8246FF
:10047000002E02DDBAF1300F03D0B9F1000F26D003
:1004800032E0A969761E01987F1C44F40074884705
:10049000002E824605DDBAF1780F06D0BAF1580F6A
:1004A00003D0B9F1000F10D01EE0B9F1000F02D057
:1004B000B9F1100F18D1A969761E01987F1C24F498
:1004C000007488478246102002E0082000E00A20DD
:1004D000814609E0A96908FB0908761E01987F1C7E
:1004E00044F4007488478246002E05DD4946504694
:1004F00000F0D7F80028EDDAE96901988847A005EF
:1005000002D46FF00100A8E7E00725D1600613D5FB
:10051000600502D5C8F1000000E0404629680A1DC8
:100520002A600968220501D5087015E0220701D567
:10053000088011E008600FE02868011D296000684C
:10054000210502D580F8008006E0210702D5A0F839
:10055000008001E0C0F8008038467EE730BCBDE88E
:10056000C09F4FF0000200B51346944696462039CE
:1005700022BFA0E80C50A0E80C50B1F12001BFF45C
:10058000F7AF090728BFA0E80C5048BF0CC05DF8C2
:1005900004EB890028BF40F8042B08BF704748BF10
:1005A00020F8022B11F0804F18BF00F8012B704784
:1005B0007047704770472DE9F0470D4699469246BF
:1005C000044600F124080168880604D5E06921F09A
:1005D0001001216000E00120A84201DD471B00E07E
:1005E0000027A1697A1902EB0900081AA061207896
:1005F000C00602D42046AFF30080002608E0D4E90C
:1006000001211AF806009047206A401C761C2062DF
:100610004E45F4DB2078C0060AD52046AFF30080B3
:1006200006E0D4E9012130209047206A401C206276
:10063000381EA7F10107F4DC07E0D4E9012118F81E
:1006400005009047206A401C2062281EA5F1010584
:10065000F3DC2046AFF300802078000602D50220AC
:10066000BDE8F0870120FBE701694A1C02610878B8
:10067000704700B58FB0CDE90131002105910549E2
:100680007944CDE9031011466846FFF733FE0FB0F9
:1006900000BD0000E5FFFFFF0A6802F8010B0A60D9
:1006A00070473A2800D2303820F02002412A01D386
:1006B000A2F13700884201D34FF0FF3070470000AD
:1006C000026811441378016018467047D1600549EB
:1006D0007944516104497944116200211161114644
:1006E00000F02EB8EDFFFFFF53000000426842B15A
:1006F000016811F8013B23B1521EC0E900121846EF
:1007000070470121C160881E704742685AB1C368B2
:10071000016843B983688B4205D0491E521CC0E969
:100720000012002070474FF0FF30704710B50446AC
:1007300000F0E8F90068005D00F0010010BD000065
:100740002DE9F34F4FF0000A0C4656468DB00120BC
:100750000C9001F10C000B9062690B9801219047FD
:10076000051E2DD0252D2CD0216A8847C0B1626985
:100770000B9801219047216A88470028F7D16269C8
:10078000411E0B98904700E0761CA1690D988847A0
:10079000216A88470028F7D1E1690D988847DBE78F
:1007A000A1690D988847A842074601D1761CD3E776
:1007B000E1690D9888477F1C02D1BAF1000F6FD014
:1007C0006BE162690B9800273D46394690472A281D
:1007D00004D162690B98012190470125DFF8D0828E
:1007E00062690B9801219047A0F130010A290AD2D1
:1007F0004745E5DC07EB870100EB4107303FDFD4DD
:1008000045F01005ECE7E90601D46FF000476C28CD
:100810000AD04C2814D0682815D06A280DD0742826
:100820001CD07A281AD01DE062690B9801219047EC
:100830006C2802D045F0040514E045F002050DE0F7
:1008400045F020050AE062690B980121904768286D
:1008500002D045F0080505E045F4006562690B9893
:1008600001219047C4E9015765283DD019DC58287B
:100870007AD00CDC452837D004DC252826D0412846
:100880009ED131E046282FD0472899D12CE05B2813
:1008900077D0612828D063287CD0642823D15AE0FF
:1008A000F6E06F2848D008DC66281DD067281BD0EA
:1008B000692821D06E2816D127E0702845D07328EA
:1008C00068D0752847D078280DD14DE0A1690D98E2
:1008D0008847252805463FF469AFE1690D988847A8
:1008E0006D1C3FF46AAFD8E00D9923466A466FF05D
:1008F0000100AFF30080C5E045F0400023464FF013
:1009000000026060A80736D43EE0E8077FF447AFF6
:100910002068011D21600068290501D506701BE7CC
:10092000290701D5068017E7A90703D5F117C0E904
:10093000006111E706600FE745F0400023464FF0E5
:1009400008026060A80716D41EE040F60E0125EAF2
:100950000100606016E045F0400023464FF00A02B7
:100960006060A80707D40FE045F040006060A8076A
:1009700008D5234610220D996FF00100AFF30080D7
:1009800080E007E0102223460D996FF00100FFF789
:100990003FFD77E04FF0000963284F46C8464B46BD
:1009A000CB4602D05B2806D038E0E80601D401200F
:1009B000A060012732E06269D4F80CB00B980121E5
:1009C00090475E2807D14FF0010949466269D4F883
:1009D0000CB00B989047216939B900210A4603AB46
:1009E00043F82120491C0829FADBD8B3216949B30F
:1009F00008F1010862690B98012190475D28F4D144
:100A0000B9F1000F09D0002003A951F82020D243EA
:100A100041F82020401C0828F7DB03AB20690028A0
:100A200020794FEA40701ED05B462246CDF8008008
:100A3000CDE901970D9900286FF0010020DAAFF39E
:100A400000801FE0C11703AA00EBD1614B1121F018
:100A50001F0102EB8302411A1368012088400343FF
:100A60001360C7E719E00D99224600286FF00100D6
:100A7000009702DAAFF3008004E0AFF3008001E0FA
:100A8000AFF3008000280ADA401C06D10C9820B190
:100A90004FF0FF300FB000F00DB85046FAE7E9070D
:100AA00001D10AF1010A064400200C9054E600002E
:100AB000CCCCCC0C30BCBDE8C08F754600F034F80F
:100AC000AE4605006946534620F00700854618B03B
:100AD00020B5FFF7DFFBBDE820404FF000064FF0E8
:100AE00000074FF000084FF0000B21F00701AC4663
:100AF000ACE8C009ACE8C009ACE8C009ACE8C00982
:100B00008D46704710B500F013F8001D10BD00BFF2
:100B1000990A000010B50446AFF300802046BDE8F6
:100B20001040FFF788BB000000487047001000200D
:100B300000487047201000204FF0013C50F8042B73
:100B400051F8043B9A4221D1A2EB0C03934313EAE0
:100B5000CC1317D150F8042B51F8043B9A4215D10D
:100B6000A2EB0C03934313EACC130BD150F8042BE4
:100B700051F8043B9A4209D1A2EB0C03934313EAC8
:100B8000CC13DBD04FF00000704700BFD01A01BA81
:100B9000B1FA81F101F0180122FA01F0CB40C1F164
:100BA0002001DBB2C0B2C01A2CFA01F3D11A914372
:100BB00011EAC311E6D1704701491820ABBEFEE728
:100BC000260002007047000070B5002518A11D48DE
:100BD000FFF77AFB05462A461A491B4800F048FCF5
:100BE000194800F03BFC04466E2C01D04E2C01D17C
:100BF000012070BD792C01D0592C0CD113A11148C2
:100C0000FFF762FB05462A460E490F4800F030FC0C
:100C100000F018FAEDE711A10A48FFF755FB054669
:100C20002A460849084800F023FCFFF7CDFFE0E71B
:100C300052652D72756E20504F5354207465737435
:100C40003F0D0A003C0000200044004052657374D0
:100C5000617274696E670D0A00000000496D707260
:100C60006F70657220696E7075740D0A0000000067
:100C70002DE9F04393B00024002500270026A0466C
:100C8000A146482101A8FFF76CFC00BF2AE000251F
:100C900013E0324850F8240001A951F83510884279
:100CA0000AD101A800EBC5004068401C01A901EB76
:100CB000C50148604FF001096D1C092DE9DBB9F150
:100CC000000F0CD1254850F8240001A941F8360046
:100CD000012001EBC6014860761C4FF000094FF07F
:100CE0000009641CB4F57A7FD1DB002430E001A850
:100CF00050F834001A490968884228DB01A850F8E6
:100D0000340018490968884221DC01A850F83400F1
:100D1000E8B101A850F8342013A11548FFF7D4FA20
:100D2000804642461249134800F0A2FB01A800EB9E
:100D3000C40011A142680E48FFF7C6FA07463A46BA
:100D40000B490C4800F094FB4FF000080027641C8E
:100D5000092CCCDB012013B0BDE8F0835C0000203F
:100D6000340000203800002025643A2000000000F4
:100D70003C0000200044004025640D0A00000000F3
:100D80002348C06C40F012002149C8646FF0300065
:100D9000204908600846006840F0100008601D48BF
:100DA0000830006820F030001A4908310860084611
:100DB000006840F030000860081F006820F0040060
:100DC000091F086013480C30006820F030001149FA
:100DD0000C3108606FF440300F4908600846006825
:100DE00040F4803008600846806820F44030886015
:100DF0000846806840F4403088600846406820F427
:100E0000807048600846C06820F44030C860704771
:100E10000010024000040048001000482DE9FC4189
:100E200000270025A846002653480368534854A1CC
:100E300002685948FFF748FA07463A465649574864
:100E400000F016FB56A15448FFF73EFA07463A4613
:100E50005149524800F00CFB504800F0FFFA04469C
:100E6000792C01D0592C05D1152258A14B4800F0FE
:100E7000FFFA4AE06E2C01D04E2C46D159A14648CB
:100E8000FFF722FA07463A464349444800F0F0FA91
:100E9000424800F0E3FA044606E00DF80640761CEE
:100EA0003E4800F0DBFA04460D2CF6D1334A56A139
:100EB0006846FFF78FFA31480068322805DB2F4873
:100EC000006842F2DE6188420CDD50A13248FFF733
:100ED000FBF907463A463049304800F0C9FA01208C
:100EE000BDE8FC8125480068643023490860084655
:100EF000036822484AA102682748FFF7E5F9074638
:100F00003A462549254800F0B3FA4AA12248FFF79E
:100F1000DBF907463A462049204800F0A9FA0025A7
:100F200025E04FF08040006840F001004FF0804124
:100F300008600846D0F8348016E04FF08040006921
:100F400000F0020080B14FF08040406BA0EB080041
:100F50003B4941F825004FF08040006820F0010037
:100F60004FF08041086000E0E7E700BF6D1CB5F579
:100F70007A7FD6DD0120B3E738000020340000205E
:100F800043757272656E742072616E6765202564A8
:100F9000202D2025640D0A003C0000200044004064
:100FA0005B595D20746F20616363657074207661A6
:100FB0006C756573205B4E5D20746F2073657420C3
:100FC0006E6577206F6E65730D0A0000426F756E57
:100FD00064733A20393530202D2031303530200DE2
:100FE0000A000000456E746572206E6577206C6F94
:100FF00077657220626F756E64202835302D39391F
:101000003530293A200D0A00256400004F75742000
:101010006F6620626F756E6473200D0A0000000019
:101020004E65772072616E6765202564202D20252E
:10103000640D0A0052756E6E696E670D0A0000003D
:101040005C00002070B500250024012081070860A5
:101050008007446B2EA13448FFF736F905462A462F
:101060003149324800F004FA50E04FF08040006906
:1010700000F0020000282ED04FF08040406B001B93
:101080002B49884213D82BA12748FFF71DF90546A5
:101090002A462549254800F0EBF94FF080400068CA
:1010A00020F001004FF080410860012070BD26A1B2
:1010B0001D48FFF709F905462A461B491B4800F061
:1010C000D7F94FF08040006820F001004FF08041D8
:1010D0000860FFF779FD4FF08040406B001B14491A
:1010E000884213D918A11048FFF7EEF805462A46A2
:1010F0000D490E4800F0BCF94FF08040006820F028
:1011000001004FF080410860FFF75EFDADE7000091
:101110005374617274696E6720504F535420546544
:1011200073740D0A000000003C00002000440040E1
:10113000A0860100504F53542054657374205061B1
:1011400073736564210D0A00504F53542054657326
:1011500074204661696C6564210D0A005E49096866
:1011600021F007015C4A11601146096841F0020153
:1011700011605A49096841F48071584A116000BFF2
:101180005649096801F480610029F9D010205349BB
:10119000496821F0F851514A51601146496841EAC5
:1011A000006151601146096821F08071116000BF33
:1011B0004A49096801F00071B1F1007FF8D0474950
:1011C000C96821F00301454AD1601146C96841F060
:1011D0000201D1601146C96821F4FE4141F4A051D9
:1011E000D1601146C96821F0700141F01001D16051
:1011F0001146C96821F0C061D1601146C96841F04B
:101200008071D1601146096841F08071116000BFA2
:101210003249096801F000710029F9D02F49896825
:1012200021F003012D4A91601146896841F00301C4
:10123000916000BF2949896801F00C010C29F9D19E
:101240002649896821F0F001244A91601146896895
:1012500021F4E06191601146896821F46051916048
:101260001146096821F08061116000BF1B490968BF
:1012700001F08061B1F1806FF8D01849096921F45B
:10128000FE41164A11611146096941F4C0511161CC
:101290001146096941F4003111611146096941F4AF
:1012A000803111611146096841F08061116000BF11
:1012B0000A49096801F080610029F9D0074988319D
:1012C000096821F44001054AC2F888101146096EE8
:1012D00041F40011116670470020024000100240E6
:1012E0001A48C06C40F008001849C86418480068E3
:1012F00020F47050164908600846006840F42050F9
:10130000086013482030006840F0EE60104920313A
:1013100008600F480830006840F470500C490831EC
:101320000860081D006820F47050091D0860084618
:10133000006840F4A05008600548001D006820F0D7
:1013400060000349091D086070470000001002405A
:10135000000C004800B50D48806D40F400300B498A
:1013600088650A488830006820F00C00C1F88800C1
:101370000846D0F8880040F00400C1F88800FFF764
:10138000AFFF034800F010F800BD0000001002405D
:1013900000440040642242430723B2FBF3F100BF44
:1013A0004A1E111EFCD17047016821F00101016045
:1013B000016821F010210160016821F40041016001
:1013C000416821F44051416042F28D01C1600168E1
:1013D00041F00C0101601E4988421BD1016841F0B7
:1013E00020010160016821F040010160016821F0E5
:1013F00010010160016821F080010160016821F4A1
:1014000080710160016821F040010160016821F0F4
:10141000010101600F49884209D1016A41F0400190
:1014200001620D49096841F0C0010B4A1160016871
:1014300041F00101016000BFC16901F40011002900
:10144000FAD000BFC16901F480010029FAD07047C9
:10145000004C00400044004008380140014600BFF5
:10146000C86900F020000028FAD0888CC0B270470C
:10147000F0B504460E46174600250CE000BFE069B3
:1014800000F080000028FAD0705D20854FF496703F
:10149000FFF780FF6D1CBD42F0D300BFE06900F094
:1014A00040000028FAD0E06920F04000E061F0BD83
:1014B00070B500250126FFF751FEFFF761FCFFF72D
:1014C00049FF3048C06C40F001002E49C8644FF01D
:1014D0009040006820F003004FF0904108600846FB
:1014E000006840F0020008600846006A40F0010011
:1014F00008622448806D40F0010022498865502030
:10150000810688628006406940F001004861084613
:10151000006A002008620846806940F00100886186
:101520000846006A40F001000862FFF78BFD24E0E6
:10153000FFF774FCFFF79CFB13A11648FEF7C4FEEF
:1015400005462A4613491448FFF792FF1248FFF751
:1015500085FF0446792C01D0592C01D101260CE0DD
:101560000EA10C48FEF7B0FE05462A4609490A4876
:10157000FFF77EFF0026012070BD002ED8D101208C
:10158000FAE700000010024052652D72756E3F0DA3
:101590000A0000003C0000200044004045786974C7
:1015A000696E670D0A00000010B500290AD008789E
:1015B000002807D005487844FFF7BEFA002801D07C
:1015C000002010BD0248784410BD00004A00000011
:1015D000420000004FF04070E1EE100A704700003A
:1015E00010170008000000203C000000C4010008A3
:1015F0004C1700083C00002024160000E001000801
:101600001001000043000000F8FFFFFF00404040D1
:1016100040404040404041414141414040404040C5
:101620004040404040404040404040404005020271
:101630000202020202020202020202020220202030
:10164000202020202020200202020202020290908C
:10165000909090901010101010101010101010108A
:1016600010101010101010100202020202028888DE
:1016700088888888080808080808080808080808EA
:1016800008080808080808080202020240000000D2
:10169000000000000000000000000000000000004A
:1016A000000000000000000000000000000000003A
:1016B000000000000000000000000000000000002A
:1016C000000000000000000000000000000000001A
:1016D000000000000000000000000000000000000A
:1016E00000000000000000000000000000000000FA
:1016F00000000000000000000000000000000000EA
:1017000000000000000000000000000000000000D9
:10171000004769766520526564204C454420636F1C
:101720006E74726F6C20696E707574202859203D3C
:10173000204F6E2C204E203D206F6666293A0D0A00
:0C17400000000000B60300001A040000C6
:040000050800018965
:00000001FF
