:020000040800F2
:10000000802E00207D0200083B1E00080F1C000807
:10001000391E0008C1030008192C00080000000068
:100020000000000000000000000000009D0100082A
:10003000C303000800000000F901000815210008B2
:10004000970200089702000897020008970200082C
:10005000970200089702000897020008970200081C
:10006000970200089702000897020008970200080C
:1000700097020008970200089702000897020008FC
:1000800097020008970200089702000897020008EC
:1000900097020008970200089702000897020008DC
:1000A00097020008970200089702000897020008CC
:1000B000192200089702000897020008970200081A
:1000C00097020008970200089702000897020008AC
:1000D00097020008970200080D2C000897020008FC
:1000E000970200089702000897020008970200088C
:1000F000970200089702000897020008970200087C
:10010000970200089702000897020008970200086B
:10011000970200089702000897020008970200085B
:10012000970200089702000897020008970200084B
:10013000970200089702000897020008970200083B
:10014000970200089702000897020008970200082B
:10015000970200089702000897020008970200081B
:10016000970200089702000897020008970200080B
:10017000970200089702000897020008000000009C
:100180009702000897020008DFF80CD000F006F98B
:1001900000480047392C0008802E00202C4B19689D
:1001A000086800F05AB880F30988BFF36F8F4FF0EA
:1001B000000080F3118870470000000008480068C4
:1001C000006880F308884FF0000080F3148862B65E
:1001D00061B6BFF34F8FBFF36F8F00DF00BF00BF6B
:1001E00008ED00E0DFF80C00016841F470010160E7
:1001F000704700BF88ED00E0EFF30980BFF36F8F19
:10020000134B1A681EF0100F08BF20ED108A20E96A
:10021000F04F106009B44FF0500080F31188BFF325
:100220004F8FBFF36F8F03F075FC4FF0000080F32A
:10023000118809BC1968086800F014B81EF0100F86
:1002400008BF00F014B880F30988BFF36F8F7047C0
:10025000C4000020EFF30580704730C8B0E8C04FFD
:10026000FFF7A1BF30C8B0E8C04FFFF7E7BFB0EC61
:10027000088AB0EC08CAFFF7E6BF000006488047CE
:1002800006480047FEE7FEE7FEE7FEE7FEE7FEE77B
:10029000FEE7FEE7FEE7FEE7D5210008890100083A
:1002A0002DE9F05F0546002092469B4688460646AB
:1002B000814640241BE0284641464746224600F03E
:1002C0005DF853465A46C01A914110D3114618465C
:1002D000224600F044F82D1A67EB01084F462246EB
:1002E0000120002100F03BF817EB00094E41201ED1
:1002F000A4F10104DFDC484631462A46434600F0BB
:1003000000B830BCBDE8C09F40EA01039B0703D0A2
:1003100009E008C9121F08C0042AFAD203E011F844
:10032000013B00F8013B521EF9D27047D2B201E006
:1003300000F8012B491EFBD270470022F6E710B5EA
:1003400013460A4604461946FFF7F0FF204610BD43
:10035000421C10F8011B0029FBD1801A7047202A8B
:1003600004DB203A00FA02F1002070479140C2F10C
:10037000200320FA03F3194390407047202A04DB3E
:10038000203A21FA02F00021704721FA02F3D0400E
:10039000C2F120029140084319467047064C074DB0
:1003A00006E0E06840F0010394E807009847103445
:1003B000AC42F6D3FFF7ECFEE8450008084600081B
:1003C000FEE7704710B590F825100024022903D0ED
:1003D0000421C16301241AE001680A6822F00E02B8
:1003E0000A6001680A6822F001020A6090F844106D
:1003F000036C01F01C02012101FA02F25A6080F83C
:100400002510002180F82410816B01B18847204617
:1004100010BD00002DE9F84FDFF898B100234FF030
:10042000010C4FF0030A4FF00F090BF1040EB9E075
:100430000CFA03F4224070D04D68022D01D0122D29
:100440000ED1DD0800EB8508D8F820505E07F70EC6
:1004500009FA07F6B5430E69BE402E43C8F820607E
:1004600007685E0091F804800AFA06F508F00308B0
:10047000AF4308FA06F848EA0708C0F800804F685A
:10048000012F05D0022F03D0112F01D0122F13D12D
:10049000D0F80880CF6828EA0508B74047EA08077F
:1004A0008760D0F804800F7928EA0408C7F30017A2
:1004B0009F4047EA08074760D1F804806FEA0807C1
:1004C000BF0706D1C76AA743C8F3C0049C403C439A
:1004D000C462C468AC438D68B5402543C5604C68B0
:1004E000E4005ED5344C256E45F001052566246E8A
:1004F00023F0030504F001040094304C2E19B46875
:100500009D072F0F09FA07F5AC43B0F1904F05D0C6
:100510002B4DA84204D101251CE042E0002519E042
:10052000284DA84201D1022514E0274DA84201D14F
:1005300003250FE0254DA84201D104250AE0244DF2
:10054000A84201D1052505E0224DA84201D106258A
:1005500000E00725BD402543B560DBF800405D465F
:100560004E689443F60300D514432C60DEF8004037
:1005700075464E689443B60300D514432C600D4D68
:1005800008352C684E689443F60200D514432C605D
:10059000084D0C352C684E689443B60200D51443C0
:1005A0002C605B1C0A6832FA03F57FF441AF00F05F
:1005B00013B8000000040140001002400000014098
:1005C0000004004800080048000C004800100048E3
:1005D000001400480018004818BCBDE8E08F0AB1BC
:1005E0008161704781627047014800687047000070
:1005F000BC00002002480168491C016070470000EF
:10060000BC00002010B50024032000F089F8002071
:1006100000F008F808B1012401E000F03BF82046A2
:1006200010BD000000B5014687B000221C2000F07C
:1006300057F81C2000F048F81348816D41F0010183
:100640008165806D05A900F001000690684600F004
:1006500019FB00F037FB0D494FF08042B0FBF1F180
:100660000B48491E0260416040F2E7320021C0E9B8
:100670000321816000F030FE10B1012007B000BD01
:10068000034800F059FEF9E70010024040420F0015
:10069000400200200B4882B0016E41F0010101666A
:1006A000016E01F001010091816D41F08051816581
:1006B000806D002200F0805000900F21901E02B04B
:1006C00000F00EB80010024000F01F02012191401E
:1006D0004009800000F1E020C0F8001170470000E0
:1006E000F0B40E4B1B680C46C3F30223C3F107059D
:1006F000042D00D90425191D072901D2002300E08B
:10070000DB1E012606FA05F1491E214099409E4054
:10071000761E16403143F0BC01F090BB0CED00E0BA
:10072000064900F0070208684FF6FF03184040EA48
:100730000220034A10430860704700000CED00E0FF
:100740000000FA051649B0F5007F0868C0F34120A3
:1007500009D0022805D0086820F4C06040F4806009
:100760000860002070470128FBD0086820F4C060B2
:1007700040F4007008600B483222006850430A4A77
:10078000B0FBF2F0401C00E0401E4A69520501D562
:100790000028F9D148694005E3D5032070470000DF
:1007A00000700040C000002040420F000248006876
:1007B00000F4C06070470000007000402DE9F84F61
:1007C000044600270088E54D3E46010504F1200B54
:1007D0001DD5606E78B1B0F5800F11D0B0F5000F67
:1007E00004D0B0F5400F22D001270FE0E86840F4B4
:1007F0008030E8601BE00021201D01F02FFB03E0AA
:100800000021584601F0C0FB070010D03E4620886A
:10081000C00426D5A06EC0B1B0F1807F1AD0B0F16F
:10082000007F0DD0B0F1407F19D0012718E0D5F836
:100830008800616E20F440000843C5F88800E6E7B0
:10084000E86840F48030E86009E00021201D01F0F4
:1008500005FB03E00021584601F096FB0746F7B17F
:100860003E46206880033AD5A86D4FF00008C000CE
:1008700009D4A86D40F08050A865A86D4FF001081C
:1008800000F080500090DFF8D8A2DAF8001041F4B0
:100890008071CAF80010FFF7A7FE814610E0D5F876
:1008A0008800A16E20F040700843C5F88800D8E7A2
:1008B000FFF79AFEA0EB0900022801D9032705E003
:1008C000DAF80000C005F3D5002F7CD04FEA070608
:1008D000B8F1000F03D0A86D20F08050A8652078F3
:1008E000C00707D0D5F88800A16B20F003000843AB
:1008F000C5F888002078800707D5D5F88800E16B17
:1009000020F00C000843C5F888002078400707D580
:10091000D5F88800216C20F030000843C5F8880025
:100920002078000707D5D5F88800616C20F0C0005A
:100930000843C5F888002078C00607D5D5F8880098
:10094000A16C20F440700843C5F888002078800628
:1009500007D5D5F88800E16C20F440600843C5F85D
:1009600088002088800507D5D5F88800E16D20F43F
:1009700040200843C5F888002088400507D5D5F8F1
:100980008800216E20F440100843C5F888002078C4
:10099000400607D5D5F88800216D20F44050084363
:1009A000C5F888002078000607D5D5F88800616D65
:1009B00020F440400843C5F888002088C00509D5C8
:1009C000D5F8880000E01CE0A16D20F44030084319
:1009D000C5F8880020884FF0006780044FF08068D9
:1009E0004FD5D5F88800E16E20F040600843C5F887
:1009F0008800E06EB8423CD1E86840F48010E860BE
:100A00003FE0D5F8900010F4407015D0D4F8841071
:100A1000814211D0D5F89000D5F8901020F44070A4
:100A200041F48031C5F89010D5F8901021F4803150
:100A3000C5F89010C5F89000C00710D0FFF7D4FD9E
:100A4000074641F2883906E0FFF7CEFDC11B494554
:100A500001D903263CE7D5F890008007F4D5D5F8F6
:100A60009000D4F8841020F440700843C5F890003A
:100A70002EE7404505D10121201D01F0EFF900B11D
:100A800006462068000317D5D5F88800216F20F0AE
:100A900040600843C5F88800206FB84204D1E86878
:100AA00040F48010E86007E0404505D10121201D99
:100AB00001F0D4F900B106462068400317D5D5F8F7
:100AC0008800616F20F040600843C5F88800606FBF
:100AD000B84204D1E86840F48010E86007E040457F
:100AE00005D10121201D01F0B9F900B10646208889
:100AF00040041AD5D5F88800A16F20F04050084373
:100B0000C5F88800A06FB0F1805F03D0B0F1005F3E
:100B100005D00AE00221201D01F0A0F903E0022126
:100B2000584601F031FA00B106462088000407D586
:100B3000D5F88800E16F20F080400843C5F88800B0
:100B40002068C00307D555F8880FD4F8801020F02E
:100B5000004008432860304600F004B8001002400E
:100B60000070004018BCBDE8E08F00002DE9F047A0
:100B70000F46050058D03F4E306800F00700B842DD
:100B800009D2306820F0070038433060306800F048
:100B90000700B84248D12878374CC0072CD0686885
:100BA000032811D0022812D0216898B149050029E4
:100BB0003ADAA16821F003010143A160FFF714FDB7
:100BC000804641F2883910E021688901EFE7216809
:100BD0008903ECE78907EAE7FFF706FDA0EB0801C8
:100BE000494502D90320BDE8F087A068696800F094
:100BF0000C00B0EB810FEFD12878800705D5A068F5
:100C0000A96820F0F0000843A060306800F00700F9
:100C1000B8420BD9306820F00700384330603068A4
:100C200000F00700B84201D00120DCE72878400737
:100C300005D5A068E96820F4E0600843A060287842
:100C4000000706D5A068296920F4605040EAC10079
:100C5000A06000F05BF8A168084AC1F30311515C81
:100C600001F01F01C84006490860BDE8F0470020B8
:100C7000FFF7D8BC00200240001002409445000855
:100C8000C00000200F2202600C4A936803F00303A7
:100C90004360936803F0F0038360936803F4E063B8
:100CA000C36092684FF4E06303EAD2020261044831
:100CB000006800F007000860704700000010024064
:100CC000002002400548064900688968054AC1F3CA
:100CD0000221515C01F01F01C8407047C000002094
:100CE00000100240D445000805480649006889689C
:100CF000054AC1F3C221515C01F01F01C840704791
:100D0000C000002000100240D445000870B52549FD
:100D1000002318468A68CC6812F00C0204F003061F
:100D2000214C4FEA640509D00C2A05D0042A26D0AC
:100D3000082A00D1284670BD012E10D10B681B0770
:100D400004D4D1F89430C3F3032302E00B68C3F357
:100D50000313164E56F823307AB10C2AEBD1C8682B
:100D600000F00302C868C0F30210401C022A08D039
:100D7000032A09D0B3FBF0F008E0184670BD204606
:100D800070BDB4FBF0F001E0B5FBF0F0CA68C968D3
:100D9000C2F306225043C1F34161491C4900B0FB34
:100DA000F1F070BD001002400024F400A4450008DA
:100DB0002DE9F84305007CD0FD4CA06800F00C063E
:100DC000E06800F003072878C00661D576B10C2EE4
:100DD00001D1012F0AD0A8690028206878D040F0FE
:100DE00001002060FFF700FC804659E02068800782
:100DF00002D5A8690028DED0286A2168090703D532
:100E0000216801F0F00104E0D4F89410F02202EA25
:100E10001111884215D901F03BF9002849D1206809
:100E200040F0080020602068296A20F0F0000843A4
:100E300020606068E96920F47F4040EA012060603A
:100E400015E0206840F0080020602068296A20F042
:100E5000F000084320606068E96920F47F4040EAC0
:100E600001206060286A01F013F90028D6D1FFF74D
:100E70004DFFA168CF4AC1F30311515C01F01F017E
:100E8000C840CD4908600020FFF7CCFB00287DD189
:100E90002FE000BFFFF7A8FBA0EB0800022876D8E0
:100EA00020688007F6D5206840F0080020602068A0
:100EB00001E0BBE00CE0296A20F0F000084320606C
:100EC0006068E96920F47F4040EA0120606010E03A
:100ED00020F001002060FFF787FB804606E000BF9E
:100EE000FFF782FBA0EB08000228D8D82068800713
:100EF000F6D42878C00740D0082E18D00C2E01D187
:100F0000032F14D06868B0F5803F17D0B0F5A02F3C
:100F1000206817D020F480302060206820F48020E2
:100F200020606868E0B1FFF75FFB804614E020684E
:100F3000800322D56868002878D01EE0206840F43D
:100F40008030EDE740F480202060F7E7FFF74CFBAE
:100F5000A0EB08006428A2D820688003F6D50CE036
:100F6000FFF742FB804605E0FFF73EFBA0EB0800E1
:100F7000642894D820688003F6D4287880073BD56D
:100F8000042E11D00C2E04D1022F01E036E1A1E095
:100F90000AD0E868002820681ED040F480702060E5
:100FA000FFF722FB07460CE0206840050CD5E868F7
:100FB0000028C1D008E000BFFFF716FBC01B0228C5
:100FC00093D820684005F7D56068297C20F0F85058
:100FD00040EA016060600FE020F480702060FFF75D
:100FE00003FB074605E000BFFFF7FEFAC01B02281F
:100FF00070D820684005F7D42878000729D568699B
:101000000028D4F8940012D040F00100C4F89400F5
:10101000FFF7EAFA074604E0FFF7E6FAC01B0228EA
:1010200058D8D4F894008007F6D512E0EDE020F00F
:101030000100C4F89400FFF7D7FA074605E000BFA7
:10104000FFF7D2FAC01B022844D8D4F894008007D6
:10105000F6D42878400768D5A06D0027C00008D4D2
:10106000A06D40F08050A065A06D012700F0805079
:10107000009052480168C90512D40168814641F4C4
:1010800080710160FFF7B0FA804605E0FFF7ACFA27
:10109000A0EB080002281DD8D9F80000C005F5D53E
:1010A000A868012817D00528D4F8900018D020F09F
:1010B0000100C4F89000D4F8900020F0040000BFB4
:1010C000C4F89000A86841F28839D0B1FFF78CFAD3
:1010D000804611E06BE0D4F8900040F00100EFE7AB
:1010E00040F00400C4F89000F5E700BFFFF77CFA79
:1010F000A0EB080149455AD8D4F890008007F5D5EF
:101100000EE0FFF771FA804606E000BFFFF76CFAC9
:10111000A0EB0801494570D8D4F890008007F5D4B9
:101120001FB1A06D20F08050A065A86AF0B30C2E0E
:101130006BD00228206820F08070206004D02068E6
:1011400010F0205F47D04AE0FFF74EFA064604E071
:10115000FFF74AFA801B02284FD820688001F7D495
:10116000286BE96A000110380843696BAA6B090211
:10117000120941EA42410843A98F114A490802EB8A
:101180004151084395F840104908120102EB4161B2
:101190000843E060206840F080702060E06840F024
:1011A0008070E060FFF720FA054610E02BE024E0B5
:1011B0000010024094450008C0000020007000406C
:1011C0000000E0FFFFF710FA401B022815D8206846
:1011D0008001F7D517E0E06820F00300E060E068E8
:1011E0000B490840E060FFF7FFF9054608E000BF43
:1011F000FFF7FAF9401B022802D90320BDE8F88363
:1012000020688001F4D40020F8E70120F6E7000010
:10121000FFFFEEFE70B5040003D06079002510B129
:1012200005E0012070BD2571204600F00DF8022078
:1012300060712068016841F0040101600120607163
:10124000A560002070BD000008B50068064988420E
:1012500008D10648C16C41F48021C164C06C00F41F
:101260008020009008BD00000008065000100240D9
:10127000704770477047000070B590F83C20012A15
:1012800024D0012480F83C40022280F83D200268EE
:10129000536895680E4EB24202D00E4EB24203D150
:1012A00023F470064B68334323F070060B6889689B
:1012B000334325F08005294353600268916080F82C
:1012C0003D40002180F83C10084670BD022070BDF2
:1012D000002C01400034014010B5040003D094F804
:1012E0003D0010B107E0012010BD002084F83C0053
:1012F000204600F00DF8022084F83D00211D2068F2
:1013000000F090FF012084F83D00002010BD000097
:1013100008B500680649884208D10648816D41F049
:1013200004018165806D00F00400009008BD00009C
:1013300000080040001002400168CA6842F0010243
:10134000CA600068826807490A40062A08D0826895
:101350000A40B2F5803F03D0016841F0010101600D
:10136000002070470700010070B5044690F83C006B
:10137000012817D0012584F83C50022084F83D0054
:1013800020688268324E324022F47F4282600868D0
:10139000502839D00DDC202855D005DC98B3102812
:1013A00043D150E0022070BD30284CD040283CD1C1
:1013B00041E0602830D070280CD0B0F5805F03D0B9
:1013C000B0F5005F31D112E020688168204A7032A8
:1013D000114016E0CB68D1E90121206800F08FFFB1
:1013E00021688868304040F0770088601DE0CB6855
:1013F000D1E90121206800F082FF2068816841F472
:101400008041816011E01EE0CA684968206801F0EF
:1014100011F95021206806E0CA684968206801F087
:101420001AF96021206800F074FF84F83D50002014
:1014300084F83C0070BDCA684968206801F0FAF879
:1014400040212068EFE7226801461046EBE70000E4
:1014500088FFFEFF704770B50446006801694FF0D1
:101460000005C943890715D4C168C943890711D448
:10147000E91E0161012020772068806980072046ED
:1014800002D0FFF7E7FF04E000F0E8F8204600F0A4
:10149000A9F9257720680169C943490717D4C168AC
:1014A000C943490713D46FF004010161022020777A
:1014B0002068806910F4407F204602D0FFF7CAFF01
:1014C00004E000F0CBF8204600F08CF92577206886
:1014D0000169C943090716D4C168C943090712D471
:1014E0006FF008010161042020772068C06980073F
:1014F000204602D0FFF7AEFF04E000F0AFF8204630
:1015000000F070F9257720680169C943C90617D42E
:10151000C168C943C90613D46FF0100101610820E6
:1015200020772068C06910F4407F204602D0FFF782
:1015300091FF04E000F092F8204600F053F925777F
:1015400020680169C943C90708D1C168C943C907EF
:1015500004D1891E0161204600F07EF920680169EE
:10156000C943090609D4C168C943090605D46FF007
:10157000800101612046FFF77CFE20680169C943B4
:10158000C90509D4C168C943090605D46FF480713F
:1015900001612046FFF76CFE20680169C9434906D6
:1015A00009D4C168C943490605D46FF040010161FF
:1015B000204600F058F920680169C94389060BD418
:1015C000C168C943890607D46FF020010161204634
:1015D000BDE87040FFF74EBE70BD000010B586B08C
:1015E000044614216846FEF7A8FE2368174C002124
:1015F000174A0220A34210D1D36C43F00203D364F4
:10160000D26C02F00202059240220092CDE9010163
:10161000CDE9031069460F4813E00F4CA34212D1E5
:10162000D36C43F00103D364D26C02F00102059243
:1016300001220092CDE90101CDE9031069464FF086
:101640009040FEF7E7FE06B010BD00000008004025
:101650000010024000040048000C0040704770B5C4
:10166000044690F83C000D4601280ED0012684F86F
:101670003C60022084F83D000C2A45D007DC5AB1BA
:10168000042A1BD0082A78D12CE0022070BD102A31
:101690004ED0142A71D15DE0206800F043FE20682E
:1016A000816941F0080181612068816921F00401AC
:1016B0008161206881692A69114311E0206800F086
:1016C0007FFE2068816941F4006181612068816941
:1016D00021F480618161206881692A6941EA0221DF
:1016E00081614AE0206800F0B3FE2068C16941F0E2
:1016F0000801C1612068C16921F00401C16120684D
:10170000C1692A69114311E0206800F0E9FE2068F0
:10171000C16941F40061C1612068C16921F480613F
:10172000C1612068C1692A6941EA0221C16124E0DE
:10173000206800F00FFF2068416D41F0080141650D
:101740002068416D21F0040141652068416D2A69DE
:10175000114311E0206800F035FF2068416D41F42D
:10176000006141652068416D21F480614165206818
:10177000416D2A6941EA0221416584F83D600020FB
:1017800084F83C0070BD10B5040003D094F83D000F
:1017900010B107E0012010BD002084F83C00204675
:1017A00000F00CF8022084F83D00211D206800F0B4
:1017B00039FD012084F83D00002010BD08B5006807
:1017C0000649884208D10648816D41F008018165CB
:1017D000806D00F00800009008BD0000000C004083
:1017E000001002407047000010B504460068012256
:1017F00000F078FD1248216881420BD011488142E7
:1018000008D01148814205D01048814202D01048CA
:10181000814203D1486C40F40040486420688268EB
:101820000C490A40062A08D082680A40B2F5803F77
:1018300003D0016841F001010160002010BD0000EB
:10184000002C0140003401400040014000440140B0
:1018500000480140070001000068B0F1804F01D14D
:10186000FEF7C8BE70477047704770472DE9F041DA
:1018700002680446D0691168936810F00F0F4FF0AA
:1018800000055BD003F0010601F49077374369D07F
:10189000C70707D0CF0505D501271762626F42F051
:1018A00001026267820708D5DA0706D0276802229C
:1018B0003A62626F42F004026267420708D5DA07B3
:1018C00006D0236804221A62626F42F00202626745
:1018D00002070AD501F02002324306D0236808220D
:1018E0001A62626F42F008026267626F002A32D0A9
:1018F000800605D5880603D5216E09B120468847A4
:10190000606F000703D420688068400625D5204614
:1019100000F04FFF20688168490619D5816821F0E1
:1019200040018160E06E98B120498163E06EFEF76E
:1019300049FD00280FD0E06E816B06E0860611D5C8
:101940008E060FD5216E1EE02046BDE8F041084707
:101950002046FFF78AFFBDE8F0812046FFF785FFAC
:101960006567F8E7C60209D55B0207D54FF480101A
:1019700010622046BDE8F041FFF776BF030605D5AB
:101980000B0603D5616E0029DED1E4E74006E2D5FF
:101990004806E0D51168204621F040011160202161
:1019A00084F87110656600F031F9D4E79F270008CC
:1019B00010B5040003D094F8710010B107E00120C5
:1019C00010BD002084F87000204600F027F8242085
:1019D00084F871002068016821F00101016020464F
:1019E00000F052FF0128EBD0606A10B1204600F0F1
:1019F00044FE2068416821F490414160206881687C
:101A000021F02A0181602068016841F00101016034
:101A10002046BDE8104000F094BE000010B586B02E
:101A2000044614216846FEF788FC1649206888425F
:101A300026D11548816D41F400318165816D01F435
:101A400000310591C16C41F00801C164C06C694668
:101A500000F0080005906020009002200190002016
:101A6000029003200390072004900848FEF7D2FC60
:101A7000002205212620FEF733FE2620FEF724FE55
:101A800006B010BD0044004000100240000C0048A9
:101A900030B590F87230202B4AD1B1B1AAB190F88C
:101AA0007030012B44D0012380F870304165A0F8DC
:101AB0005820A0F85A20002202661D038168FF23E7
:101AC000A94207D1016911B10CE0012030BD40F2FB
:101AD000FF110DE07F2419B1B1F1805F05D009E05D
:101AE000016901BBA0F85C3004E00169D9B13F2174
:101AF000A0F85C104267222180F8721001688B68A0
:101B000043F001038B608168A94201D1016969B189
:101B10000849016680F870200068016841F49071FE
:101B20000160002030BDA0F85C40E3E70249F0E727
:101B3000022030BD2F280008D327000838B5002523
:101B4000009500681449884225D1144C20466179DB
:101B5000806C0D2902D0E16B29B10AE0694602F0E0
:101B6000ABF9E5630FE06A46002102F0F3F90120CA
:101B7000E0630B49207862790A54401CC0B220709F
:101B80000D54142800D32570044905480122491D2D
:101B90007838FFF77DFF38BD00440040000000208A
:101BA0002C02002090F87130202B29D1B9B1B2B1AC
:101BB00090F87030012B23D0012380F87030C1647D
:101BC000A0F85020A0F85220002141664167212250
:101BD00080F871208268B2F5805F02D003E00120B6
:101BE0007047026952B1074A426680F87010006877
:101BF000016841F08001016000207047024AF3E76C
:101C0000022070476B2B0008292B00087047FEE765
:101C1000164C174D174F4FF48076E078217950EA33
:101C2000010216D001280AD0012908D0022808D0C4
:101C3000022906D003280BD0032909D012E0002284
:101C400000E0012204212846FEF7C9FC002205E03D
:101C5000012204212846FEF7C2FC01223146384603
:101C6000FEF7BDFC642001F091F8D6E700000020EB
:101C700000040048001000482DE9F04186B014210E
:101C80006846FEF75AFB2348C16C41F00101C1646C
:101C9000C16C01F001010591C16C41F00201C16408
:101CA000C16C01F002010591C16C41F01001C164E9
:101CB000C16C01F010010591C16C41F00801C164D3
:101CC000C06C154F00F00800059000220421384632
:101CD000FEF785FCDFF844804FF480760022314621
:101CE0004046FEF77CFC0420009001250024CDE94D
:101CF0000154694638460394FEF78CFB0096CDE903
:101D00000154694640460394FEF784FB06B0BDE8E3
:101D1000F08100000010024000040048001000485C
:101D200010B58EB000240794089409940A940B947B
:101D30000C941C2168460D94FEF7FFFA18481749C9
:101D400001607F21C0E9011443F2D301C0E903140B
:101D50008461FFF7C1FA4FF48050079007A910483B
:101D6000FFF702FB0E48FFF70EFD30200B900BA98A
:101D70000D940B48FFF780FA6020009040F2E2409B
:101D8000CDE901040022694605480494FFF767FC89
:101D90000348FFF723FC0EB010BD00000008004010
:101DA0003401002010B58AB00024079408941C2147
:101DB00068460994FEF7C1FA1348124901607F2171
:101DC000C0E9011443F2D301C0E903148461FFF7B1
:101DD000DAFC3020079007A909940B48FFF74CFA6A
:101DE0006020009040F2E240CDE901040022694603
:101DF00005480494FFF733FC0348FFF7EFFB0AB0F4
:101E000010BD0000000C0040740100200948084982
:101E100001604FF4E1314160002181600C22C1601A
:101E2000C0E904128161C16101624162FFF7C0BD76
:101E300000440040B4010020FEE770470907090E86
:101E4000002806DA00F00F0000F1E02080F8141DF1
:101E5000704700F1E02080F8001470472DE9F04150
:101E6000444C05468846E0680026810728680DD066
:101E7000E16801F00301814216D1A8B1E068696808
:101E8000C0F30210401C88420ED120E0012804D08B
:101E9000022805D0032807D108E02168890701E05E
:101EA00021684905002907DB01265FE021688903D5
:101EB00002D421684903F5E7E1686A686FF00F030F
:101EC00021F0730103EB021211430143E16020682A
:101ED00020F080602060FEF787FB074605E000BF2A
:101EE000FEF782FBC01B022837D820680001F7D418
:101EF000B8F1000F18D0B8F1010F1ED0287D4FF0B7
:101F00007E41400801EB4060A96840EA0120216958
:101F1000194A114008432061206840F08060206029
:101F2000FEF762FB07461AE0A868E96800020909A3
:101F300040EA41402169114AEBE7288A10494008EC
:101F400001EB4050A96840EA012021690D4AE0E711
:101F5000FEF74AFBC01B022801D9032606E02068D1
:101F60000001F5D52069A969084320613046BDE824
:101F7000F081000000100240FF80FFF9FF80FDFFAC
:101F80000000E0FFFF809FFF2DE9F0413D4C064639
:101F90008846E0680025810730680DD0E16801F0CF
:101FA0000301814216D1A8B1E0687168C0F3021044
:101FB000401C88420ED120E0012804D0022805D020
:101FC000032807D108E02168890701E02168490555
:101FD000002907DB012551E02168890302D421682B
:101FE0004903F5E7E16872686FF00F0321F07301B0
:101FF00003EB021211430143E160206820F080509E
:102000002060FEF7F1FA074605E000BFFEF7ECFAA4
:10201000C01B022829D820688000F7D4B8F1000F2F
:1020200015D0307C4FF07E41400801EB4060B16834
:1020300040EA01206169144A114008436061206848
:1020400040F080502060FEF7CFFA07460FE0B068FE
:10205000F1680002090940EA414061690B4AEBE777
:10206000FEF7C2FAC01B022801D9032506E020684A
:102070008000F5D560697169084360612846BDE854
:10208000F081000000100240FF80FFF9FF80FDFF9B
:10209000F8B51C4D06460024A86DC00002D5FEF719
:1020A00085FB0DE0A86D40F08050A865A86D00F09C
:1020B00080500090FEF77AFBA96D21F08051A96550
:1020C000B0F5007F04D0802E07D94FF003040AE05A
:1020D000802E08D9A02E01D804E001D1022402E00C
:1020E000702E00D101240848016821F00701214326
:1020F0000160006800F00700A04201D00120F8BD97
:102100000020F8BD0010024000200240012000F035
:102110003DFEFBE710B5502080F31188BFF34F8FD1
:10212000BFF36F8F02F096F818B104494FF080505A
:102130000860002080F3118810BD000004ED00E06D
:102140002DE9F041B8B0442122A8FEF7F6F8142199
:1021500033A8FEF7F2F888216846FEF7EEF802246D
:10216000E001259010202294269001262C94CDE9A0
:102170002D4614204FF00708CDE92F080427CDE99C
:10218000314722A8FEF714FE0F20002533900320CC
:10219000CDE934053695042133A83795FEF7E6FCE2
:1021A0000B480F95009040061D900597CDE901461C
:1021B0000C20CDE90308E004CDE906406846FEF7AF
:1021C000FDFA2002FEF7BEFA38B0BDE8F08100004B
:1021D000020004000D48016841F4700101600C48E0
:1021E000016841F001010160002181600268094B32
:1021F0001A4002608214C260026822F480220260E7
:1022000081610249C00380390860704788ED00E0B1
:1022100000100240FFFFF6EA0148FFF71CB900007A
:10222000400200202DE9F0470268264B264D274E3C
:10223000274F284C4FF0804A984209D0504507D08C
:10224000A84205D0B04203D0B84201D0A04204D188
:1022500022F0700C4A6842EA0C02DFF87CC0DFF81A
:102260007C80DFF87C9098420FD050450DD0A8427A
:102270000BD0B04209D0B84207D0A04205D060458B
:1022800003D0404501D0484503D122F44075CA68C7
:102290002A434D6922F080022A4302608A68C262A2
:1022A0000A688262984207D0A04205D0604503D0F8
:1022B000404501D0484501D10969016301214161CF
:1022C000BDE8F087002C01400004004000080040F9
:1022D000000C004000340140004001400044014037
:1022E0000048014010B501F01F030121046A994024
:1022F0008C430462016A9A401143016210BD10B51B
:10230000846842EA032224F47F440A432243826021
:1023100010BD826822F070020A4342F0070181601A
:10232000704700002DE9F043026A22F001020262C8
:10233000056A436882691C4C25F0020522400C683E
:1023400022F0030214438A68194E2A43174D194F8D
:10235000DFF864C0DFF86490A84207D0B04205D02F
:10236000B84203D0604501D0484506D122F00808A4
:10237000CA6842EA080222F00402A84207D0B0422A
:1023800005D0B84203D0604501D0484505D14D691C
:1023900023F440731D438B692B4343608461496878
:1023A00041630262BDE8F0838FFFFEFF002C014015
:1023B0000034014000400140004401400048014019
:1023C000F0B5026A22F010020262056A426883696F
:1023D000194C1B4E23400C6823F4407343EA042439
:1023E00025F020038D6843EA0513144DA84201D05F
:1023F000B04206D1CF6823F0800343EA071323F0ED
:102400004003A8420AD0B04208D00E4DA84205D0E1
:102410000D4DA84202D00D4DA84207D14D6922F4BE
:10242000406242EA85028D6942EA85024260846127
:10243000496881630362F0BDFF8FFFFE002C0140FD
:102440000034014000400140004401400048014088
:10245000F0B5026A22F480720262056A4368C269BA
:10246000194C1B4E22400C6822F00302144325F441
:1024700000728D6842EA0522144DA84201D0B04294
:1024800006D1CF6822F4006242EA072222F4806279
:10249000A8420AD0B04208D00E4DA84205D00E4D39
:1024A000A84202D00D4DA84207D14D6923F44053F4
:1024B00043EA05138D6943EA05134360C461496823
:1024C000C1630262F0BD00008FFFFEFF002C0140DF
:1024D00000340140004001400044014000480140F8
:1024E00030B5026A22F480520262046A4268C3690B
:1024F000124D24F400542B400D6823F4407343EA3A
:1025000005238D6844EA05340D4DA8420BD00D4DCE
:10251000A84208D00C4DA84205D00C4DA84202D0CC
:102520000B4DA84204D14D6922F4804242EA851243
:102530004260C36149680164046230BDFF8FFFFEE1
:10254000002C0140003401400040014000440140A3
:102550000048014030B5026A22F480320262046A07
:102560004268436D114D2B400D681D4324F4003328
:102570000C8943EA04430E4CA0420BD00D4CA04200
:1025800008D00D4CA04205D00C4CA04202D00C4CFF
:10259000A04204D14C6922F4803242EA0422426013
:1025A000456549688165036230BD00008FFFFEFF0D
:1025B000002C014000340140004001400044014033
:1025C0000048014030B5026A22F480120262046AB7
:1025D0004268436D114D24F400142B400D6843EA0A
:1025E00005230D8944EA05540D4DA8420BD00D4D2D
:1025F000A84208D00C4DA84205D00C4DA84202D0EC
:102600000B4DA84204D14D6922F4802242EA852272
:10261000426043654968C165046230BDFF8FFFFEBB
:10262000002C0140003401400040014000440140C2
:102630000048014010B5036A046A24F001040462F2
:10264000846924F0F00444EA021423F00A020A43E5
:102650008461026210BD10B5036A23F010030362A7
:102660008369046A23F4704343EA023224F0A0032E
:1026700043EA01118261016210BD90F82410C9077C
:1026800006D001684A68836A22F400321A434A601D
:1026900090F82410890706D501684A68C36A22F4B5
:1026A00080321A434A6090F82410490706D5016821
:1026B0004A68036B22F480221A434A6090F824107F
:1026C000090706D501684A68436B22F400421A43A1
:1026D0004A6090F82410C90606D501688A68836BA1
:1026E00022F480521A438A6090F82410890606D595
:1026F00001688A68C36B22F400521A438A6090F81A
:102700002410490611D501684A68036C22F480122E
:102710001A434A60016CB1F5801F06D101684A680E
:10272000436C22F4C0021A434A6090F82410090650
:1027300006D501684A68806C22F4002202434A6090
:102740007047F8B5002604464667FDF74DFF05467D
:10275000206800686FF07E47000708D52B460022EE
:102760004FF400112046009700F01DFA60B9206870
:10277000006840070AD52B4600224FF4800120460E
:10278000009700F010FA08B10320F8BD202084F86B
:10279000710084F8720084F870600020F8BD10B5F4
:1027A000806A0021A0F85A10A0F85210FFF75DF8D7
:1027B00010BD01680A6822F490720A6001688A6894
:1027C00022F001028A60202180F872100021016647
:1027D000704710B5B0F85C2090F872300168222B79
:1027E00004D0088B40F00800088310BD898C436D2D
:1027F00011401980416D891C4165B0F85A10491E7D
:102800000904090CA0F85A10EFD101680A6822F4F3
:1028100090720A6001688A6822F001028A602021B1
:1028200080F8721000210166FFF788F910BD10B51D
:10283000B0F85C2090F872300168222B04D0088B2D
:1028400040F00800088310BD898C1140426D531C74
:1028500043651170B0F85A10491E0904090CA0F81C
:102860005A10F0D101680A6822F490720A60016877
:102870008A6822F001028A60202180F8721000210B
:102880000166FFF75BF910BD2DE9F04104460168D0
:1028900080682369E669184363691025002733437C
:1028A0001843954A0B68954E334003430B602068EC
:1028B0004168E36821F44051194341602168A069EF
:1028C000914201D0236A18438B6823F43063034399
:1028D0008B608B4B21688B4899420DD1D0F88800D2
:1028E00010F0030006D001285AD0022856D0032841
:1028F00059D157E0012556E0834B99420BD1D0F8CE
:10290000880010F00C0047D0042849D0082845D092
:102910000C2848D146E07D4B99420BD1D0F8880075
:1029200010F0300038D010283AD0202836D0302887
:1029300039D137E0764B99420BD1D0F8880010F0AE
:10294000C00029D040282BD0802827D0C0282AD1E9
:1029500028E0704B99420ED1D0F8880010F44070F6
:102960001AD0B0F5807F1BD0B0F5007F16D0B0F53F
:10297000407F18D116E0914215D1D0F8880010F4AC
:10298000406009D0B0F5806F0AD0B0F5006F05D077
:10299000B0F5406F07D105E0002504E0022502E014
:1029A000042500E008255C4B00264FF400409142CE
:1029B0003DD135B1022D07D0042D07D0082D10D1FF
:1029C00007E0FEF77FF903E0184602E0FEF79EF904
:1029D000A8B3626802EB4201814202D8B0EB023F29
:1029E00001D9012775E0DFF834815DB1022D0CD0EB
:1029F000042D13D0082DF4D150082905401846F1B4
:102A0000000105E0FEF75EF90AE050084449F5E7E9
:102A10000023FDF745FCA0F5407156E0FEF776F97E
:102A20006268010E0302500818187141F0E7E1696D
:102A30004FF6EF7881422FD1092DD2D200E048E045
:102A4000DFE805F006092005230505052600C8E78F
:102A5000FEF738F901E0FEF747F94100D4F8040029
:102A600001EB5001B1FBF0F080B2A0F11001414543
:102A7000B7D84FF6F0710140C0F34200014320681F
:102A8000C16026E027496068EAE7FEF73FF9E4E71E
:102A90004FF480316068E3E7092DA2D2DFE805F04A
:102AA00006091E052205050525009AE7FEF70AF925
:102AB00001E0FEF719F90146606801EB500100BF23
:102AC000B1FBF0F080B2A0F11001414589D8216836
:102AD000C860266638466666BDE8F081606803EB2C
:102AE0005001EDE7FEF712F9E5E7616800EB5100F0
:102AF000B0FBF1F0E6E7000000800040F369FFEF73
:102B000000380140001002400044004000480040EE
:102B1000004C0040005000400024F400FFFC0F0077
:102B2000000024F40048E80190F87110212910D128
:102B3000B0F8521071B1C16C02680988C1F3080184
:102B40001185C16C891CC164B0F85210491EA0F8EF
:102B50005210704701680A6822F080020A6000681B
:102B6000016841F040010160704790F8711021291F
:102B70000DD1B0F8521059B1C16C4A1CC264026840
:102B800009781185B0F85210491EA0F8521070470C
:102B900001680A6822F080020A600068016841F05A
:102BA0004001016070472DE9F041984617460E46F6
:102BB0000446069D1DE0681C1BD02DB1FDF714FDD9
:102BC000A0EB0800A84214D92068016821F4D07154
:102BD00001602068816821F001018160202084F873
:102BE000710084F87200002084F870000320BDE8B2
:102BF000F0812068C06936EA000004D00020B842A5
:102C0000D9D00020F3E70120F9E700000148FEF7E2
:102C10002DBE0000B4010020FEE702E008C8121F2C
:102C200008C1002AFAD170477047002001E001C1B5
:102C3000121F002AFBD1704786B0FDF7E3FCFFF7B7
:102C40007FFAFFF719F8FFF7E1F80E490C48086022
:102C50000846FEF7DFFAFFF7A5F8FFF761F8142240
:102C600009496846FDF750FB0021684600F09AF8D4
:102C70000649086400F0F2FC00F08FF8FEE700005F
:102C800000080650240100208045000800000020B4
:102C900001460020842900D0C81C704710B51B488D
:102CA00088B00024C06950B101280BD002280CD094
:102CB00003280DD004280ED005280FD010E04FF4C3
:102CC000A0740DE04FF4FA740AE04FF42F7407E09B
:102CD0004FF4617404E040F21A4401E040F2E2442F
:102CE0001C216846FDF729FB6020CDE90004002087
:102CF00002900246049069460548FEF7B0FC0021A8
:102D00000348FEF771FD08B010BD00000000002070
:102D10003401002010B51B4888B00024006A50B16F
:102D200001280BD002280CD003280DD004280ED087
:102D300005280FD010E04FF4A0740DE04FF4FA74A2
:102D40000AE04FF42F7407E04FF4617404E040F29E
:102D50001A4401E040F2E2441C216846FDF7EDFA16
:102D60006020CDE9000400200290024604906946EC
:102D70000548FEF774FC00210348FEF735FD08B056
:102D800010BD0000000000207401002010B500B943
:102D9000012000F0E3FD002010BD10B500F07EFE24
:102DA000002010BD3EB504460D46B0F90800FFF7FF
:102DB0006FFF02A9CDE90001208A2B4682B2D4E937
:102DC000001001F00BFA012801D000203EBD02984E
:102DD0003EBD00002DE9F041184C0F4605466669DE
:102DE0002068001D00F0BAFC38B9206890F82C105B
:102DF00001208840A1698143A161681C07D137B1D6
:102E00002168BDE8F0410E48091D00F0E1BC2068D2
:102E10003544B5424560216805D2A068BDE8F0415F
:102E2000091D00F0BDBC6068091D00F0B9FC206BF5
:102E3000854200D22563BDE8F0810000C400002077
:102E40005C0300202DE9F041054600F0CDFC2E4C3E
:102E50002069401C206120682C4F10B1E06940B30C
:102E60002DE025602069012829D1002606EB860087
:102E700007EB800000F086FC761C072EF6D3234873
:102E80008C3000F07FFC2148A03000F07BFC1F4814
:102E9000B43000F077FC1D48C83000F073FC1B48CC
:102EA000DC3000F06FFC19488C3060601430A0609A
:102EB00005E02068E96AC06A884200D82560E06AB7
:102EC000401CE062E96A0120A26988401043A061C9
:102ED00001EB810007EB8000291D00F079FC00F078
:102EE000A3FCE06900280CD02068E96AC06A884227
:102EF00007D207494FF080500860BFF34F8FBFF3F0
:102F00006F8FBDE8F0810000C40000208002002027
:102F100004ED00E030B4026C0B46002A0BD0C1680F
:102F20001144C1604468A14201D30168C16030BC52
:102F30001846FDF7E9B930BC70472DE9F041856BC3
:102F4000174604460026026C82B1C7B1E068FDF75F
:102F5000DBF9E168206C091AE1602268914202D233
:102F60006168081AE060022F16D017E02068A8B93F
:102F7000606801F0D3F90646002060600EE0A068AA
:102F8000FDF7C2F9216CA0680844A060616888421E
:102F900004D32068A06001E005B16D1E6D1CA5631F
:102FA0003046BDE8F08110B50446006B00F050FCDF
:102FB0002046BDE8104000F04BBC00000F4842F234
:102FC0001071420705D0C01D0C4A20F00700821A7C
:102FD000891A0B4A00230144C2E900030839103A58
:102FE00021F0070111604B600B600B1AC0E9001360
:102FF00093604FF000405360D06070477003002032
:1030000010010020154E164CA6F1C8074FF080584D
:10301000DFF8509012E000BF00F0E6FBF068C568F2
:10302000281D00F09BFB2069401E2061E068401EC7
:10303000E06000F0F9FB2846FFF7B5FFE0680028E4
:10304000EAD13868012805D9C9F80080BFF34F8F4D
:10305000BFF36F8F00F095FBF0E7000048030020FE
:10306000C400002004ED00E02DE9F0479A46DDE9B8
:10307000098481466FF00303206B03EB8202104446
:10308000089D20F00706700707D0502080F31188B4
:10309000BFF34F8FBFF36F8FFEE723180A5C83F8EF
:1030A00034200A5C12B1401C1028F6D3002784F8A3
:1030B0004370072D00D30625E562C4E91157201D92
:1030C00000F06BFB04F1180000F067FB2461C5F110
:1030D00007006462A061E76484F850705246494674
:1030E000304600F00FF92060B8F1000F01D0C8F8A9
:1030F0000040BDE8F087000030B5114900E01146FE
:103100000A688242FBD34B685C18844203D1406852
:1031100018444860084643681C18944209D1084C7A
:10312000103C2468A24209D052681A4442600A68DE
:1031300012680260814200D0086030BD0460F9E787
:103140001001002010B5044600F04EFBA06B28B122
:103150005FF0000400F068FB204610BD0124F9E791
:1031600006484168096829B14168C968C968496861
:10317000016370474FF0FF31FAE70000C400002000
:1031800008484068401C4FF0500080F3118804D07C
:10319000BFF34F8FBFF36F8FFEE7BFF34F8FBFF3C8
:1031A0006F8FFEE7180100202DE9F041044600F082
:1031B0001BFB94F9455004F1240609E0606A48B10C
:1031C000304601F041F908B100F0F6FB6D1E6DB21A
:1031D000002DF3DC4FF0FF3684F8456000F024FB4F
:1031E00000F002FB94F9445004F1100709E0206953
:1031F00048B1384601F028F908B100F0DDFB6D1E3A
:103200006DB2002DF3DC84F84460BDE8F04100F0BD
:103210000BBB00002DE9F0410546002700F072FCD1
:10322000314E306808B9FFF7C9FEF06805424BD14E
:10323000C5B3083568070ED005F00700C0F10800D7
:103240000544680707D0502080F31188BFF34F8FE3
:10325000BFF36F8FFEE72DB37068854234D82248E4
:10326000103001460C6801E020460C466168A94216
:1032700002D221680029F7D131688C4224D0076836
:103280002168016060680837411B10290FD9601957
:10329000420708D0502080F31188BFF34F8FBFF34F
:1032A0006F8FFEE710E041606560FFF725FF616802
:1032B0007068401A7060B268904200D2B060F068E6
:1032C00001430020C4E9000101F0F8F8780707D0B5
:1032D000502080F31188BFF34F8FBFF36F8FFEE74D
:1032E0003846BDE8F081000000010020044908686C
:1032F00018B10868826C521C82640868704700002C
:10330000C400002010B5031F4FF080741C601B1F09
:1033100021F001011960191F044B0B6014390A6078
:10332000091F6FF0020244380A6010BD81310008A5
:10333000654E4FF00309371F4FF001080025A6F135
:1033400050044FF0020A6078072877D2DFE800F0D7
:1033500004779E729E814A002069315C20290CD13D
:103360003118594A49784A3AE1611170801C20614C
:10337000FFF794FC84F80190E5702069305C00B997
:1033800025612069315C302906D13118801C4978CB
:10339000C4E9031084F801802069315C40290AD116
:1033A000616911B184F8039088E03118801C497874
:1033B000C4E9051020610146705C50280AD160699B
:1033C000002803DC491CC4E9041503E0401EA16980
:1033D000C4E90410705C602858D16078032855D087
:1033E000062052E0A06B19281DDC38B1052805D055
:1033F0000B2803D0112801D0172803D10520E06144
:10340000FFF74CFCA06B022805D0082803D00E283B
:1034100001D0142803D10420E061FFF73FFCA06B2A
:10342000401CA06306E02069401C206184F80190E4
:10343000E570A563A0680A2805DB07E026E0D4E96B
:103440000201884202DC401CA0601FE06570A5609C
:103450001CE0F87870281DD050281BD063281ED09F
:1034600043281CD072281DD052281BD06C281ED097
:103470004C281CD06E2809D04E2807D0622820D0B6
:1034800042281ED0504684F803A060706420FFF7E5
:103490007DFC58E784F801A084F80380F6E76570A6
:1034A000E570F3E7E0690028F0D0401E03E0E06932
:1034B0000528EBD0401CE061FFF7F0FB84F801A089
:1034C000E4E72561EBE7000050000020624E03278F
:1034D0004FF00108A6F126090025A6F172044FF06D
:1034E000020AA078072871D2DFE800F00471996C15
:1034F000997B4500E06A315C202908D13118801C95
:1035000049782162E062FFF705FCA7702571E06A47
:10351000305C00B9E562E06A315C302906D13118CF
:10352000801C4978C4E90A1084F80280E06A315CA2
:10353000402909D1216B09B1277188E03118801C1D
:103540004978C4E90C10E0620146705C50280AD149
:10355000206B002803DC491CC4E90B1503E0401E66
:10356000616BC4E90B10705C602858D1A078032807
:1035700055D0062052E0A06B19281DDC38B1052873
:1035800005D00B2803D0112801D0172803D105201E
:103590002062FFF7BFFBA06B022805D0082803D0EC
:1035A0000E2801D0142803D104202062FFF7B2FBBB
:1035B000A06B401CA06305E0E06A401CE062A770BD
:1035C0002571A563606A0A2805DB07E027E0D4E9D6
:1035D0000901884202DC401C606220E0A57065623F
:1035E0001DE099F8020070281DD050281BD06328D8
:1035F0001ED043281CD072281DD052281BD06C2806
:103600001ED04C281CD06E2809D04E2807D0622826
:1036100020D042281ED0504684F804A0A070642018
:10362000FFF7B4FB5DE784F802A084F80480F6E7B6
:10363000A5702571F3E7206A0028F0D0401E03E052
:10364000206A0528EBD0401C2062FFF763FB84F85A
:1036500002A0E4E7E562EBE7720000207CB5012000
:1036600000F000FB194C6064012000F0FBFAA0643C
:103670000122611D1648FEF70BFA0024134B4FF48C
:103680008075009492332A4612A11448019400F0E8
:10369000A5FD0E4B0094A6332A4611A112480194B1
:1036A00000F09CFD094B0094BA331E462A460FA138
:1036B0001048019400F092FD009433462A460EA172
:1036C0000F48019400F08AFD7CBD0000000000203E
:1036D000B401002074657374000000000537000811
:1036E00074657374310000003133000874657374BD
:1036F00032000000CD34000874657374330000009C
:10370000111C0008134C0A20134E20700D2060700D
:103710004FF00008A4F14C0505273078B0B1002126
:10372000A86C00F065FC012810D13078A07070788A
:10373000E070084800F0F6F86F70AF70002386F86C
:1037400000801A461946A86C00F006FB6420FFF7BB
:103750001DFBE2E74C0000202C020020D0E90132E2
:1037600001699A60D0E901235A604A68824201D116
:1037700082684A60002202610868401E086008688A
:103780007047704700F108014FF0FF32C0E90112A5
:10379000C160016100210160704700210161704733
:1037A00030B50B685A1C02D000F1080202E0026931
:1037B00004E02246546825689D42FAD953684B605C
:1037C00099608A60516008610168491C016030BDE0
:1037D00042684A6093688B609368596091600861A1
:1037E0000168491C01607047502080F31188BFF3C5
:1037F0004F8FBFF36F8F0A494868401C486001280B
:103800000CD10848006810F0FF0F07D0502080F35B
:103810001188BFF34F8FBFF36F8FFEE77047000033
:103820001801002004ED00E00849486828B1401E56
:10383000486001D180F311887047502080F31188CF
:10384000BFF34F8FBFF36F8FFEE70000180100201A
:1038500070B5002827D0144DA0F108046168E8680D
:10386000014207D1502080F31188BFF34F8FBFF37F
:103870006F8FFEE722683AB1502080F31188BFF3C2
:103880004F8FBFF36F8FFEE78143616000F03AF91D
:1038900060686968084468602046FFF72DFCBDE851
:1038A000704000F00BBE70BD000100204FF0E02022
:1038B00000210161816105494FF47A720968B1FB09
:1038C000F2F1491E4161072101617047C0000020EB
:1038D00010B5FCF7BFFC114910280ED300F1E02011
:1038E00090F8F0030A78904207D2502080F31188B4
:1038F000BFF34F8FBFF36F8FFEE7094800688968F9
:1039000000F4E060884207D9502080F31188BFF3AB
:103910004F8FBFF36F8FFEE710BD0000180100202E
:103920000CED00E070B50B4C05464FF0FF31606CBC
:1039300000F05EFB2846FCF70BFD82B229460648E4
:10394000FEF730F9606CBDE8704000231A46194656
:1039500000F002BA00000020B401002010B50200FF
:1039600014D00F48806B38B1502080F31188BFF31A
:103970004F8FBFF36F8FFEE700F0C4F800211046B1
:10398000FFF728FA00F09AFD002807D105494FF00B
:1039900080500860BFF34F8FBFF36F8F10BD0000E2
:1039A000C400002004ED00E002498A6A026049690F
:1039B00041607047C40000200149012048627047FF
:1039C000C400002010B50C4650B1094909681831EF
:1039D000FFF7E6FE2046BDE810400121FFF7FAB9E7
:1039E000502080F31188BFF34F8FBFF36F8FFEE736
:1039F000C400002070B504004BD0A26CA2B1606C72
:103A0000884200D30146E06A884242D0012A40D170
:103A1000204D2A6894420FD1502080F31188BFF3C3
:103A20004F8FBFF36F8FFEE7502080F31188BFF3F5
:103A30004F8FBFF36F8FFEE7E162A269002A02DBBE
:103A4000C1F10701A161144E00EB8000616906EB32
:103A5000800081421DD1201DFFF780FE012150B959
:103A6000E06A00EB800256F8222022B9AA6901FA26
:103A700000F08243AA61E06AAA6981401143A9610A
:103A800000EB800006EB8000211DBDE87040FFF7D1
:103A90009FBE70BDC4000020800200201CB51548E8
:103AA0000024CDE900402346802213A1144800F0F1
:103AB00095FB012809D0401C1AD1502080F31188B1
:103AC000BFF34F8FBFF36F8FFEE7502080F3118855
:103AD000BFF34F8FBFF36F8F06484FF0FF3134387D
:103AE00001630121C1614461BDE81C4000F040B8A0
:103AF0001CBD0000F800002049444C4500000000B7
:103B0000053000080248816B491C81637047000042
:103B1000C40000201448816B11B10121416270473B
:103B2000002141628169B1FA81F1C1F11F0101EB0C
:103B300081020E4951F822306BB101EB820101F193
:103B400008034A6852684A609A4201D152684A6042
:103B5000D16801607047502080F31188BFF34F8F08
:103B6000BFF36F8FFEE70000C4000020800200203A
:103B70001CB537480168374A914207D1502080F37D
:103B80001188BFF34F8FBFF36F8FFEE70068314995
:103B9000491E884207D1502080F31188BFF34F8F10
:103BA000BFF36F8FFEE72C4908780190FF20087063
:103BB00008788DF800009DF800009DF8002000F0C6
:103BC000F000904207D0502080F31188BFF34F8F50
:103BD000BFF36F8FFEE79DF80000204B00F0500010
:103BE00018700720986005E09DF8002052008DF8BD
:103BF0000020401E9DF800201206F5D4986003288E
:103C000007D0502080F31188BFF34F8FBFF36F8F21
:103C1000FEE74FF440709860019808700C4820301F
:103C2000016841F470010160016841F07041016078
:103C3000FFF73CFE00205860FCF7D4FA0848016802
:103C400041F040410160FCF7B9FA00201CBD0000C2
:103C500000ED00E071C20F4100E400E01801002017
:103C600034EF00E010B502460021012000F00CF80E
:103C7000041E07D00021416001600B460A46C16066
:103C800000F06AF8204610BD70B50E46050013D04E
:103C9000D6B105FB06F04830FFF7BCFA040009D0A6
:103CA00004F1480120468EB10160C0E90F560121A0
:103CB00000F00EF8204670BD502080F31188BFF34D
:103CC0004F8FBFF36F8FFEE70020E4E70060ECE763
:103CD00070B50D46040025D0FFF786FDD4E90F200E
:103CE000216802FB001161600021A1632168A160CD
:103CF0000A46D4E90F01401E00FB0121E160214684
:103D00004FF0FF3001F8440F487004F110008DB1FE
:103D1000FFF738FD04F12400FFF734FDFFF784FDC1
:103D2000012070BD502080F31188BFF34F8FBFF387
:103D30006F8FFEE721690029F0D000F085FB002895
:103D4000ECD004494FF080500860BFF34F8FBFF3B1
:103D50006F8FE3E704ED00E02DE9FF4782B01D46D9
:103D60008A464FF00008040003D0BAF1000F08D0D3
:103D700011E0502080F31188BFF34F8FBFF36F8F96
:103D8000FEE7206C38B1502080F31188BFF34F8FCD
:103D9000BFF36F8FFEE7022D0AD1E06B012807D039
:103DA000502080F31188BFF34F8FBFF36F8FFEE772
:103DB00000F042FA3F4F4FF000094FF0805648B9EB
:103DC000049838B1502080F31188BFF34F8FBFF3B0
:103DD0006F8FFEE7FFF708FDA06BE16B884207D30A
:103DE000022D05D00498D0B1B8F1000F1AD01EE012
:103DF0002A4651462046FFF7A0F8616A19B104F13E
:103E0000240000F021FB20B13E60BFF34F8FBFF3D1
:103E10006F8FFFF709FD012006B0BDE8F087FFF7BF
:103E200003FD22E06846FFF7BFFD4FF00108FFF7F2
:103E3000FBFCFFF767FEFFF7D7FC94F94400401C3A
:103E400001D184F8449094F94500401C01D184F8D4
:103E50004590FFF7E9FC04A9684600F085F930B108
:103E60002046FFF7A1F900F029FB0020D4E7FFF777
:103E7000BBFCA06BE16B884213D1FFF7D5FC04F1CA
:103E800010000499FFF79EFD2046FFF78DF900F022
:103E900015FB00289ED13E60BFF34F8FBFF36F8F9D
:103EA00098E7FFF7C1FC2046FFF77EF900F006FB1C
:103EB00090E7000004ED00E070B50E46040009D064
:103EC000206C78B1502080F31188BFF34F8FBFF37F
:103ED0006F8FFEE7502080F31188BFF34F8FBFF341
:103EE0006F8FFEE7206848B9606838B1502080F3D2
:103EF0001188BFF34F8FBFF36F8FFEE7FFF7E8FC2A
:103F00005020EFF3118580F31188BFF34F8FBFF37B
:103F10006F8FA16BE06B884218D994F94500491C5A
:103F2000A163411C04D0401C84F8450001200EE030
:103F3000606A0028FAD004F1240000F085FA002815
:103F4000F4D0002EF2D001203060EFE7002085F39E
:103F5000118870BD2DE9F04790468946040003D0D2
:103F6000B9F1000F08D011E0502080F31188BFF3A1
:103F70004F8FBFF36F8FFEE7206C38B1502080F376
:103F80001188BFF34F8FBFF36F8FFEE7FFF7A0FCE1
:103F90005020EFF3118680F31188BFF34F8FBFF3EA
:103FA0006F8FA76BF7B194F9445049462046FEF74E
:103FB000B1FF7F1EA763681C04D06D1C84F84450B9
:103FC000012010E020690028FAD004F1100000F070
:103FD0003BFA0028F4D0B8F1000FF1D00121C8F865
:103FE0000010EDE7002086F31188BDE8F08700009F
:103FF0002DE9F343002683B00400354609D0206C38
:1040000078B1502080F31188BFF34F8FBFF36F8FCB
:10401000FEE7502080F31188BFF34F8FBFF36F8FFF
:10402000FEE700F009F9DFF83C814FF000094FF09E
:10403000805748B9049838B1502080F31188BFF3F5
:104040004F8FBFF36F8FFEE7FFF7CEFBA06BC8B1BA
:10405000401EA063206810B9FFF748F9606020692E
:1040600050B104F1100000F0EFF928B1C8F8007069
:10407000BFF34F8FBFF36F8FFFF7D6FB012005B063
:10408000BDE8F083049808B166B10FE03DB150205F
:1040900080F31188BFF34F8FBFF36F8FFEE7FFF7F9
:1040A000C3FB5DE06846FFF77FFC0126FFF7BCFB22
:1040B000FFF728FDFFF798FB94F94400401C01D15D
:1040C00084F8449094F94500401C01D184F845904F
:1040D000FFF7AAFB04A9684600F046F8002820462E
:1040E00012D0FFF761F800F0E9F92046FFF72AF84F
:1040F0000028A9D09DB3FFF777FB606A50B3206B0F
:104100000068C0F1070126E0FFF71CF8E0B1206865
:1041100038B9FFF769FB606800F04CF90546FFF716
:1041200083FB04F124000499FFF74CFC2046FFF7C1
:104130003BF800F0C3F9002886D1C8F80070BFF33F
:104140004F8FBFF36F8F7FE72046FFF72DF800F00A
:10415000B5F979E700216068FFF74CFC9FE7FFE7BE
:1041600000208CE704ED00E02DE9F0410C4605004D
:1041700011D0C4B1FFF738FB174B5A696E6820683D
:10418000911B471C17D02F689B6A9F4219D09642FB
:1041900017D8012410E0502080F31188BFF34F8F0F
:1041A000BFF36F8FFEE7502080F31188BFF34F8F6E
:1041B000BFF36F8FFEE70024FFF736FB2046BDE814
:1041C000F081884205D9401A20602846FFF7ECFBB1
:1041D000F1E700202060DCE7C40000202DE9FF5F4C
:1041E0008346DDE90E87994616468A469000FFF71A
:1041F00011F805001AD05420FFF70CF8040012D073
:1042000025630021CDE90241CDE900874B463246C6
:1042100051465846FEF728FF2046FEF713FE0120C0
:1042200004B000F006B82846FFF712FB4FF0FF304D
:10423000F6E730BCBDE8C09F0548C16919B1806B85
:1042400018B100207047012070470220704700001D
:10425000C40000202DE9F0412E4C0027A06B40B196
:10426000206A401C2062606A00B101273846BDE820
:10427000F0816669761C666113D16068006838B1A8
:10428000502080F31188BFF34F8FBFF36F8FFEE78D
:104290006068A1686160A060A06A401CA062FEF72F
:1042A0005FFF206BDFF87080864209D3606800688A
:1042B00080B16068C068C568686886420DD22063B6
:1042C0002068C06A00EB800158F821000128CAD993
:1042D0000127C8E74FF0FF30F1E7281DFFF73EFA4E
:1042E000A86A18B105F11800FFF738FAE86A012149
:1042F000A26981401143A16100EB800108EB8100BC
:10430000291DFFF765FAE86A2168C96A8842CDD39A
:104310000127CBE7C40000208002002070B5040014
:104320004FF0000140D0214D2868844207D0502032
:1043300080F31188BFF34F8FBFF36F8FFEE7A06C40
:1043400038B1401EA064636CE26A9A422CD040B13E
:104350002AE0502080F31188BFF34F8FBFF36F8F97
:10436000FEE7201DFFF7FAF9114A012150B9E06A72
:1043700000EB800352F8233023B9AB6901FA00F057
:104380008343AB61606CE062C0F10700A061E06A4A
:10439000AB6981401943A96100EB800002EB80000A
:1043A000211DFFF715FA0121084670BDC400002049
:1043B0008002002070B504004FF0000038D0204D7E
:1043C000E16A2A68D26A914233D2A069002804DBEC
:1043D0002868C06AC0F10700A0611A4E01EB810194
:1043E000606906EB810188421ED1201DFFF7B6F9F6
:1043F000012150B9E06A00EB800256F8222022B970
:10440000AA6901FA00F08243AA612868C06AE062E2
:10441000AA6981401143A96100EB800006EB80008E
:10442000211DFFF7D5F902E02868C06AE06201208B
:1044300070BD616C2A68D26A9142F8D370BD0000E9
:10444000C4000020800200202DE9F041C068C4684B
:10445000ACB104F118000746FFF780F9154DA86BC1
:104460000126A0B139461448FFF7B2F9E06A29687D
:10447000C96A88421CD901206E62BDE8F0815020D3
:1044800080F31188BFF34F8FBFF36F8FFEE7201DBE
:10449000FFF764F9E16AAA6906FA01F01043A8611E
:1044A00001EB81000449B43901EB8000211DDBE7F9
:1044B0000020E2E7C4000020340300202DE9F0478B
:1044C0002C4D00242746A86B38B1FFF78DF9A86B57
:1044D000401EA863A86B40B146E0502080F31188CD
:1044E000BFF34F8FBFF36F8FFEE72969224E012084
:1044F000D1B3A6F1B40980463068E8B1F068C46869
:1045000004F11800FFF72AF9201DFFF727F9E06AE8
:10451000AA6908FA00F11143A96100EB800109EBD7
:104520008100211DFFF754F9E06A2968C96A8842B1
:10453000E2D3C5F82480DFE70CB1FEF711FE2C6A48
:1045400044B14646FFF786FE00B16E62641EF9D1A3
:1045500000202862686A38B10849012738070860D6
:10456000BFF34F8FBFF36F8FFFF75EF93846BDE89B
:10457000F0870000C40000203403002004ED00E0B8
:10458000DC4500080D2100080000000000000000CC
:104590008000000000000000000000000102030491
:1045A00006070809A0860100400D0300801A0600D6
:1045B00000350C0040420F0080841E0000093D00C1
:1045C00000127A000024F40000366E010048E80171
:1045D000006CDC02000000000102030464656661F7
:1045E000756C745461736B0008460008000000206D
:1045F000240100001A2C00082C4700082401002088
:104600005C2D00002A2C00080001010101000000BF
:10461000000000000000000000000000000000009A
:10462000000000000000000000000000000000008A
:10463000000000000000000000000000000000007A
:10464000000000000000000000000000000000006A
:1046500000000000000000002000200520002003D2
:1046600040002001200450200020023000200220C1
:1046700003301F301F301F200400200120004003A2
:104680002005200450003100000000000000000060
:1046900000000000000000000000320000000000E8
:1046A00000000000000000000000000000003300D7
:1046B00000000000000000000000000000000000FA
:1046C000000000000000000000093D0000000000A4
:1046D00000000000000000000000000000000000DA
:1046E00000000000000000000000000000000000CA
:1046F00000000000000000000000000000000000BA
:1047000000000000000000000000000000000000A9
:104710000000000000000000000000000000000099
:0C47200000000000AAAAAAAA00000000E5
:040000050800018965
:00000001FF
