:020000040800F2
:100000007006002029020008650200086702000847
:10001000690200086B0200086D0200080000000081
:100020000000000000000000000000006F02000857
:100030007102000800000000730200087502000849
:1000400077020008770200087702000877020008AC
:10005000770200087702000877020008770200089C
:10006000770200087702000877020008770200088C
:10007000770200087702000877020008770200087C
:10008000770200087702000877020008770200086C
:10009000770200087702000877020008770200085C
:1000A000770200087702000877020008770200084C
:1000B000770200087702000877020008770200083C
:1000C000770200087702000877020008770200082C
:1000D000770200087702000877020008770200081C
:1000E000770200087702000877020008770200080C
:1000F00077020008770200087702000877020008FC
:1001000077020008770200087702000877020008EB
:1001100077020008770200087702000877020008DB
:1001200077020008770200087702000877020008CB
:1001300077020008770200087702000877020008BB
:1001400077020008770200087702000877020008AB
:10015000770200087702000877020008770200089B
:10016000770200087702000877020008770200088B
:1001700077020008770200087702000800000000FC
:10018000770200087702000800F002F800F03CF85F
:100190000AA090E8000C82448344AAF10107DA45E2
:1001A00001D100F031F8AFF2090EBAE80F0013F0F8
:1001B000010F18BFFB1A43F0010318472805000080
:1001C00048050000103A24BF78C878C1FAD8520711
:1001D00024BF30C830C144BF04680C6070470000C1
:1001E0000023002400250026103A28BF78C1FBD840
:1001F000520728BF30C148BF0B6070471FB500F0E1
:100200006BFA1FBD10B510BD00F053F81146FFF793
:10021000F5FF00F07BF900F071F803B4FFF7F2FF8F
:1002200003BC00F079F8000016481749174B9942B3
:100230003CBF50F8042B41F8042BF8D314494FF07D
:1002400000028B4238BF43F8042BFAD3DFF8440096
:10025000016841F470010160BFF34F8FBFF36F8FEE
:100260000D480047FEE7FEE7FEE7FEE7FEE7FEE794
:10027000FEE7FEE7FEE7FEE708480949094A0A4BA0
:100280007047000004070008000000201000002054
:100290007006002088ED00E0890100087000002051
:1002A0007006002070020020700200207047704726
:1002B0007047754600F02CF8AE4605006946534677
:1002C00020F00700854618B020B5FFF7D5FFBDE840
:1002D00020404FF000064FF000074FF000084FF0AD
:1002E000000B21F00701AC46ACE8C009ACE8C0093E
:1002F000ACE8C009ACE8C0098D46704710B50446AB
:10030000AFF300802046BDE81040FFF786BF000035
:10031000004870471000002001491820ABBEFEE7DE
:1003200026000200704700B54FF09040006900F0D1
:10033000010058B100F0C4F900F0B6F900BF4FF069
:100340009040006900F001000028F8D14FF0904083
:10035000006900F0020048B100F0B2F900BF4FF0B0
:100360009040006900F002000028F8D14FF0904062
:10037000006900F0040048B100F096F900BF4FF0AA
:100380009040006900F004000028F8D14FF0904040
:10039000006900F0080048B100F01AF800BF4FF003
:1003A0009040006900F008000028F8D14FF090401C
:1003B000006900F0200048B100F09EF800BF4FF047
:1003C0009040006900F020000028F8D100BD000036
:1003D00000B501200349086000F094F80249086064
:1003E00000BD0000000000200400002000B53F48D0
:1003F0000068012878D100F085F83D490968401A65
:10040000B0F5806F11D23B48006870B9002000F051
:100410008BF8002000F09AF836480068401C3549F7
:10042000086000F06FF83249086000F06BF830495E
:100430000968401AB0F5806F0FD32E480068012874
:100440000BD100F03DF92B480068401C2949086099
:1004500000F058F82649086046E000F053F82449B7
:100460000968401AB0F5806F11D32248006802284D
:100470000DD100F025F900F017F91E480068401C66
:100480001C49086000F03EF8194908602CE000F0B3
:1004900039F817490968401AB0F5806F0FD315482D
:1004A000006803280BD100F00BF912480068401CCB
:1004B0001049086000F026F80D49086014E000F0CB
:1004C00021F80B490968401AB0F5806F0CD3094830
:1004D0000068042808D100F0F3F8002005490860FE
:1004E00000F010F80249086000BD00000000002084
:1004F000040000200C000020002001490860704723
:10050000000000204FF08040406A704700F092F8F1
:1005100000F02EF800F074F800F0AEF803E0FFF7FA
:1005200002FFFFF763FFFAE730B10749496941F479
:100530008071054A516105E00349496921F48071E0
:10054000014A5161704700000010004830B107496E
:10055000096841F00401054A116005E00349096892
:1005600021F00401014A11607047000014040048A2
:100570002048C06C40F001001E49C8640846C06CA9
:1005800040F00200C8640846C06C40F01000C86427
:100590001948006820F030001749086008460068D4
:1005A00040F0100008601548006820F440301349FE
:1005B00008600846006840F48030086008464068DB
:1005C00020F4807048600C48001D006820F0040092
:1005D0000949091D08600948C06820F440300749EE
:1005E000C86005480C30006820F0300002490C312A
:1005F00008607047001002400004004800100048E6
:100600004FF09040006840F6FF4188434FF0904122
:1006100008600846C06840F6FF4188434FF09041AB
:10062000C8600846C06840F6AA0108434FF09041F0
:10063000C86070470F48006840F480700D4908603A
:1006400000BF0C48006800F480600028F9D0094819
:10065000806820F00300074988600846806840F001
:100660000100886000BF0348806800F00C0000288B
:10067000F9D07047001002400A48806D40F0010038
:100680000849886543F67F608904886208464069A6
:1006900040F0010048610846006840F00100086031
:1006A000704700000010024000B50449496901226A
:1006B00022EA1120FFF738FF00BD000000100048BB
:1006C00000B504490968012222EA9100FFF73EFFC4
:1006D00000BD0000140400484FF04070E1EE100A25
:1006E0007047000004070008000000201000000010
:1006F000C401000814070008100000206006000074
:10070000E001000800000000000000000000000000
:0407100000000000E5
:040000050800018965
:00000001FF
